:020000040800F2
:100000005007002001010008090100080B01000849
:100010000D0100080F010008110100080000000098
:1000200000000000000000000000000013010008B4
:100030001501000800000000170100081901000860
:100040001B0100081B0100081B0100081B01000820
:100050001B0100081B0100081B0100081B01000810
:100060001B0100081B0100081B0100081B01000800
:100070001B0100081B0100081B0100081B010008F0
:100080001B0100081B0100081B0100081B010008E0
:100090001B0100081B0100081B0100081B010008D0
:1000A0001B0100081B0100081B0100085D2A000855
:1000B000F12A00081B0100086D2C00081B01000834
:1000C0001B0100081B0100081B0100081B010008A0
:1000D0001B010008B53400081B0100081B010008C3
:1000E0001B0100081B0100081B010008DFF80CD0F1
:1000F00000F0B6FB00480047593F000850070020B9
:100100000648804706480047FEE7FEE7FEE7FEE7B1
:10011000FEE7FEE7FEE7FEE7FEE7FEE78D270008C5
:10012000ED000008F0B480EA0102D40F4200B2EB07
:10013000410F02D20246084611464A0042D0C30D82
:10014000DDB2C1F3C752AD1A202D35DAC1F3160165
:1001500041F4000204B15242C5F1200602FA06F150
:100160002A411044B3EBD05F23D0C4B1012DA0EBE2
:10017000C35009DCF0BC4FF0004202EAC352DBB2CC
:1001800000F5000000F0CABA400000F1807000EBFA
:10019000C350A0F1807040EAD170490009E04908DD
:1001A00041EAC071A0EBC35000F50000400800EB2D
:1001B000C350F0BC00F0A9BA6142012202EB410138
:1001C000001BF6E7F0BC704781F00041AAE780F021
:1001D0000040A7E780EA010210B502F000434000AA
:1001E00022D04A001FD0010E01EB1261C0F356006D
:1001F000C2F3560240F4000042F40002A0FB0220C9
:1002000000047F39140400D0401C50EA124001D48D
:100210004000491EC2B20C0604EBD010401C40083E
:10022000802A02D003E0002010BD20F00100002948
:1002300000DA0020184310BD30B480EA010202F059
:10024000004530F0004221F0004013D090B1C30DC2
:10025000D40DC2F31601C0F31600E41A41F40001F4
:1002600040F400027D34914201D3641C00E0490057
:10027000002C02DA30BC002070474FF4000000234D
:10028000914201D3891A034340084FEA4101F7D153
:1002900051B1914202D14FF0004105E002D24FF03E
:1002A000010101E06FF0010103EBC450284430BCB0
:1002B00000F02BBA2DE9FE4F804681EA0300C00F03
:1002C0000C46009021F0004123F00045B8EB0200FD
:1002D000A94105D24046214690461C460B4602469F
:1002E00023F00040104347D0270DC7F30A00C3F3A3
:1002F0000A510290401A019040286BDAC3F31300B0
:1003000040F4801B0098924620B10023D2EB030AF0
:1003100063EB0B0B01985946C0F14002504600F0C8
:10032000D3F906460D4650465946019A00F0DBF9CE
:1003300010EB08006141002487EA115284EAE77358
:100340001A4340D0009A62B3019A012A4FEA075239
:1003500015DC001B61EB02014FF0004202EA07527C
:10036000CDE90042001C41F5801132462B4600F0D9
:1003700012FA03B0BDE8F08F40462146F9E7001BB2
:1003800061EB0201001C41F5801300185B4120184D
:10039000A2F5001747EB030140EAD570B6196D418D
:1003A00011E06D084FEA360645EAC0754FEA07527C
:1003B000001B61EB0201001C41F5801149084FEA66
:1003C00030000019514132462B4603B0BDE8F04FD2
:1003D00000F0D2B90098012240000023D0EB0202C5
:1003E00063EBE073009821464FEAE074B8EB00003D
:1003F00061EB0401E9E783F000435BE781F0004132
:1004000058E72DE9FE4F81EA030404F0004421F08F
:10041000004100944FF0000B23F0004350EA010428
:100420005ED052EA03045BD0C3F30A54C1F30A5509
:100430002C44A4F2F3340194A0FB0254C1F3130141
:1004400041F48011C3F3130343F4801301FB02440E
:1004500000FB034E840A970A44EA815447EA835713
:10046000A4FB076802958D0A05FB07854FEA932CCC
:1004700004FB0C542705029D4FEA065847EA16373D
:10048000B5EB08056EEB070C870E920E47EA811755
:1004900042EA8312A7FB0201B6EB0B0164EB0004F6
:1004A0002B0D43EA0C335E1844EB1C50DA465146E0
:1004B000E7FB0201C5F313044FEA0B3343EA14537D
:1004C0004FEA0432019C43EA0603A4F10C040294AF
:1004D000009CCDE900B400F05EF903B0BDE8F08FF8
:1004E00000200146F9E72DE9F04D81EA030404F00C
:1004F000004B21F0004514464FF0000A23F0004164
:1005000050EA050220D054EA01021DD0C5F30A5773
:100510000246C5F31303C1F31300C1F30A5640F4B6
:10052000801543F48013A7EB0608101BD64608F28B
:10053000FD3873EB050002D308F1010801E09218C1
:100540005B41B8F1000F03DA00200146BDE8F08DF1
:1005500000204FF48011064684460EE0171B73EB13
:10056000050705D3121B63EB050306434CEA010C98
:1005700049084FEA300092185B4150EA0107EDD17B
:1005800052EA030012D082EA040083EA050108431C
:1005900005D0101BAB4106D20122002306E0002249
:1005A0004FF0004302E06FF0010253101AEB060017
:1005B0004CEB085110EB0A0041EB0B01BDE8F04D8C
:1005C00000F0DAB8C10F80EAE0700844CA07962349
:1005D000002100F0A3B896230022114600F09EB837
:1005E00000F0004220F00040C10DC0F3160040F4BE
:1005F00000007F2901DA00207047962903DCC1F151
:100600009601C84001E096398840002AF4D0404263
:10061000704700F0004230F000400AD0C10D01F5F3
:100620006071C0F3160042EA0151C208400711434D
:10063000704700200146704730B5041E71F1000478
:1006400004DB4FF00044404264EB0101141E73F1DF
:10065000000405DB1C464FF00043524263EB0403E9
:100660008B4208BF824230BD01F0004330B421F01C
:10067000004150EA010206D00A0DA2F56072C1F3F2
:100680001301002A02DC30BC00207047440F44EA0A
:10069000C104C100E01830BC00EBC25000F035B816
:1006A000002801DBC0F10040002901DBC1F100415D
:1006B00081427047002801DBC0F10040002901DBC6
:1006C000C1F1004188427047202A04DB203A00FA39
:1006D00002F1002070479140C2F1200320FA03F399
:1006E000194390407047202A06DBCB17203A41FA85
:1006F00002F043EAE07306E041FA02F3D040C2F1AF
:10070000200291400843194670470029A8BF70474E
:10071000401C490008BF20F00100704710B4B0FA37
:1007200080FC00FA0CF050EA010404BF10BC7047D2
:1007300049B1CCF1200421FA04F411FA0CF118BFEC
:10074000012121430843A3EB0C01CB1D4FEA0061BB
:100750004FEA102042BF002010BC704700EBC3508E
:1007600010440029A4BF10BC7047401C490008BFBA
:1007700020F0010010BC704710B5141E73F1000486
:1007800008DA401C41F1000192185B411A4301D183
:1007900020F0010010BD2DE9F04D92469B4611B1AD
:1007A000B1FA81F202E0B0FA80F220329046FFF70F
:1007B0008BFF04460F4640EA0A0041EA0B0153460C
:1007C0005A46084313D0114653EA010019D0C8F124
:1007D0004002504600F056F805460E46504659462F
:1007E0004246FFF771FF084305D0012004E0204690
:1007F0003946BDE8F08D0020054346EAE0762C43FB
:1008000037430A986305E40AA0EB08000022FD0ABA
:1008100044EA47540A3002D500200146E9E70105C1
:1008200010196941DDE9084500196941BDE8F04D3D
:10083000A2E770B521F0004303430CD0C1F30A5581
:100840000024D5EB040564EB0403D617AD1AB341BD
:1008500002DB0020014670BD201841EB025170BD43
:10086000064C074D06E0E06840F0010394E80700FD
:1008700098471034AC42F6D3FFF73CFCA040000888
:10088000C0400008202A04DB203A21FA02F00021AF
:10089000704721FA02F3D040C2F120029140084390
:1008A000194670472DE9F04D00231A461B1A8A415C
:1008B00003DB00200146BDE8F08DC1F30A52C1F30D
:1008C000130141F480154FF0000BD10702D100183D
:1008D0006D41521E0027044640F2FF11384601EBDD
:1008E000620A3E468046024600204FF48011FFF720
:1008F000C9FFC2197141BB1846EB0100B4EB030CF0
:1009000075EB000C04D3E41A65EB000517460E46A0
:10091000241908F101006D4180463428E3DDF919FE
:1009200046EB0600091BA84103D24FF0FF321346E5
:1009300001E0002213461BEB070046EB0A51BDE81D
:10094000F04DFFF719BF70B58C1810F8015B15F06A
:10095000070301D110F8013B2A1106D110F8012B31
:1009600003E010F8016B01F8016B5B1EF9D12B0756
:1009700005D40023521E0DD401F8013BFAE710F80C
:10098000013BCB1A921C03E013F8015B01F8015BF9
:10099000521EF9D5A142D8D3002070BD2DE9F04FE9
:1009A00087B081468A4614469B46C4480078012891
:1009B00064D14FF4FA7000F0CDF90020C0490870FE
:1009C0002BE0C049B1F90000FFF7FCFD0546BE4829
:1009D00001682846FFF7A6FBBB490860B949B1F991
:1009E0000200FFF7EFFD0546B84801682846FFF70B
:1009F00099FBB6490860B349B1F90600FFF7E2FD7B
:100A00000546B34801682846FFF78CFBB0490860EB
:100A1000AB480078401CAA490870A94800780A2809
:100A2000CFDBA9480068FFF7F4FD07460022A94B79
:100A3000FFF759FD0546FFF717FEA3490860A348D5
:100A40000068FFF7E6FD07460022A24BFFF74BFDCB
:100A50000546FFF709FE9D4908609D480068FFF7BD
:100A6000D8FD074600229B4BFFF73DFD0546FFF7EB
:100A7000FBFD97490860002090490870D9F80000F4
:100A80000490D9F804000590D9F808000690B4F94C
:100A90000000FFF797FD06468B4801683046FFF7D8
:100AA00096FB05468C49FFF7C7FB0190B4F902009D
:100AB000FFF788FD0646854801683046FFF787FB4B
:100AC00005468549FFF7B8FB0290B4F90600FFF729
:100AD00079FD06467E4801683046FFF778FB0546FB
:100AE0007D49FFF7A9FB03907C48049A019901F026
:100AF0005FFB7B48059A029901F05AFB7949DAF8C5
:100B00000400FFF767FB054674482A46416B7648A8
:100B100001F04EFB7349DAF80000FFF75BFB80F051
:100B200000456F482A46416B704801F041FB6D4912
:100B3000DAF80800FFF74EFB05466D4A1168039886
:100B4000FFF748FB06462A4631466A4801F030FB6B
:100B50005C48B0F90800B0F5AF6F06DB5948B0F952
:100B6000080040F6340188420BDD0120624908701C
:100B70000020624908606249086062490860624971
:100B800008605048B0F9040040F24C4188420FDA46
:100B90004C48B0F90800B0F5AF6F09DD4948B0F92D
:100BA000080040F63401884202DA002052490870F9
:100BB00051480078002863D15448007801285FD15B
:100BC000B4F90400FFF7FEFC07464748416B38467E
:100BD000FFF7A8FA06464548416B3046FFF7F4FA9E
:100BE00005464448416B2846FFF7EEFA4349086042
:100BF000B4F90400FFF7E6FC07463B48416B384672
:100C0000FFF7E2FA06463948416B3046FFF7DCFA57
:100C100005463848416B2846FFF784FA3849086092
:100C2000B4F90400FFF7CEFC07462F48416B384665
:100C3000FFF7CAFA06462D48416B3046FFF772FAB5
:100C400005462C48416B2846FFF7BEFA2D4908603F
:100C5000B4F90400FFF7B6FC07462348416B384659
:100C6000FFF760FA06462148416B3046FFF75AFA13
:100C700005462048416B2846FFF754FA2249086090
:100C800021480068FFF7ACFC05B21E480068FFF77A
:100C9000A7FC06B21A480068FFF7A2FC07B2174883
:100CA0000068FFF79DFC0FFA80F82B463246394664
:100CB000404601F0ADF907B0BDE8F08FE20000203A
:100CC000E300002044030020E4000020E8000020AE
:100CD000EC0000200000244000002041DC01002046
:100CE00018020020A34C654290020020CC02002094
:100CF000540200200803002006000020D00000203D
:100D0000D4000020D8000020DC00002007000020D4
:100D100010B56FF0040001F025FD0A4800680A498B
:100D2000B0FBF1F0094908700846007800EB40017B
:100D3000C1EBC0104FF6FF7101EAC0000449088002
:100D400010BD00003001002000127A001A000020BF
:100D50001C000020014600224FF0E0231A610E4AD9
:100D600012884A435A6100229A611A46126942F077
:100D700001021A6100BF4FF0E022106900F0010289
:100D80001AB100F48032002AF5D000224FF0E0239F
:100D90001A619A61704700001C0000200146002281
:100DA0004FF0E0231A610E4A12784A435A6100223A
:100DB0009A611A46126942F001021A6100BF4FF0AF
:100DC000E022106900F001021AB100F48032002A1A
:100DD000F5D000224FF0E0231A619A6170470000BD
:100DE0001A00002008B50121042001F027FB40F281
:100DF0000F10ADF8000004208DF80300694602488A
:100E000000F0B4F808BD00000008014010B5FFF77D
:100E1000E9FF00F001F810BD00B589B001210846D6
:100E200001F0FCFA0121C80201F008FB4FF6FF7047
:100E3000ADF81C004720ADF818000020ADF81E00EA
:100E4000ADF81A008DF8200006A94FF0804002F09E
:100E500021FA4FF6FF70ADF810004720ADF80C00F6
:100E60000020ADF81200ADF80E008DF8140003A9B3
:100E70003D4802F00FFA0020ADF80000ADF8020086
:100E80000120ADF804000020ADF80600ADF8080020
:100E900069464FF0804001F0C7FF0420ADF8000024
:100EA0000020ADF802000120ADF804000020ADF8EC
:100EB0000600ADF8080069464FF0804001F0B4FF2D
:100EC0000820ADF800000020ADF802000120ADF8C8
:100ED00004000020ADF80600ADF8080069464FF0A8
:100EE000804001F0A1FF0C20ADF800000020ADF81B
:100EF00002000120ADF804000020ADF80600ADF8B6
:100F0000080069464FF0804001F08EFF0020ADF8E8
:100F10000000ADF802000120ADF804000020ADF89B
:100F20000600ADF8080069460F4801F07DFF1F215B
:100F30004FF0804001F048FF03210B4801F044FFCF
:100F400001221F21900701F0C5FF0122032106485D
:100F500001F0C0FF0121880701F03CFF0121024898
:100F600001F038FF09B000BD002C01402DE9F0412F
:100F7000024600250026002000230024002791F8C7
:100F800003C00CF00F0591F803C00CF0100CBCF17D
:100F9000000F03D091F802C04CEA050591F800C09B
:100FA000BCF1000F31D0146800202BE04FF0010C91
:100FB0000CFA00F3B1F800C00CEA03069E4220D1FF
:100FC00083004FF00F0C0CFA03F7BC4305FA03FC47
:100FD0004CEA040491F803C0BCF1280F06D14FF08D
:100FE000010C0CFA00FCC2F814C00AE091F803C02E
:100FF000BCF1480F05D14FF0010C0CFA00FCC2F80F
:1010000010C0401C0828D1D31460B1F800C0BCF156
:10101000FF0F34DD546800202EE000F1080C4FF083
:10102000010808FA0CF3B1F800C00CEA03069E426E
:1010300021D183004FF00F0C0CFA03F7BC4305FAE3
:1010400003FC4CEA040491F803C0BCF1280F05D15D
:1010500000F1080C08FA0CF8C2F8148091F803C0EB
:10106000BCF1480F07D100F1080C4FF0010808FA55
:101070000CF8C2F81080401C0828CED35460BDE89C
:10108000F0814161704701617047000010B5402058
:101090000A49086001F0DCFA802008490860012054
:1010A000FFF77CFE40200549091F08600220FFF77A
:1010B00075FE40200149086010BD0000140C01407D
:1010C00008B50121082001F0B9F9C020ADF80000F1
:1010D00010208DF8030003208DF8020069460448B3
:1010E000FFF744FFC0210248FFF7CDFF08BD000015
:1010F000000C014010B540200A49086001F0A8FA30
:1011000080200849091F08600120FFF747FE4020A2
:101110000449091F08600120FFF740FE40200149F3
:10112000086010BD140C014070B50546002401F0A4
:101130007DFA002618E04020104908600120FFF7E2
:101140002DFE40200D49091F08606006040E0B4863
:101150000C380068C0F3C01008B1601CC4B2012094
:10116000FFF71CFE701CC6B2082EE4DB15B1FFF7BA
:101170008DFF01E0FFF7BEFF204670BD140C01405B
:1011800070B504460D46164600F086F8204600F07D
:1011900055F800F0B3F818B100F098F8012070BDD0
:1011A000284600F04BF800F0A9F800F075F8611C33
:1011B000C8B200F043F800F0A1F80020FFF7B4FF38
:1011C000307000F083F80020E9E72DE9F04706468B
:1011D0000F4615469846002400F05EF8304600F0B1
:1011E0002DF800F08BF820B100F070F80120BDE878
:1011F000F087384600F022F800F080F800F04CF854
:10120000711CC8B200F01AF800F078F800240FE062
:10121000681EA04204D00120FFF786FF814603E04C
:101220000020FFF781FF814608F80490601CC4B2DB
:10123000AC42EDDB00F04AF80020D8E770B5044678
:1012400001F006FA40201349086000251EE004F072
:10125000800020B180200F49091F086002E0802033
:101260000C4908606006040E0120FFF797FD40203E
:101270000849091F08600120FFF790FD402005493B
:1012800008600120FFF78AFD681CC5B2082DDEDB6F
:1012900070BD0000140C014010B501F0D9F9802098
:1012A00009490860402008600420FFF777FD80208E
:1012B0000549091D08600420FFF770FD4020024920
:1012C000091D086010BD0000100C014010B501F0B0
:1012D000BFF9402008490860802008600420FFF71B
:1012E0005DFD40200449091F08608020086004203B
:1012F000FFF754FD10BD0000140C014010B5002490
:1013000001F094F98020104908600120FFF746FDA4
:1013100040200D4908600120FFF740FD07E0601CF8
:10132000C4B2FA2C03DDFFF7D1FF012010BD06483F
:1013300008380068C0F3C0100028F0D140200249EE
:10134000091D08600020F1E7100C014070B5064649
:101350000C461546FFF7A0FF3046FFF76FFFFFF77B
:10136000CDFF18B1FFF7B2FF012070BD2046FFF797
:1013700065FFFFF7C3FF2846FFF760FFFFF7BEFFDB
:1013800018B1FFF7A3FF0120EFE7FFF79FFF002051
:10139000EBE7000007B5A4B02598006822902598D7
:1013A00040682190259880682090249800681F90BC
:1013B000249840681E90249880681D90FE4801681B
:1013C0000068FEF707FF1590FC480168FA480068BE
:1013D000FEF700FF1490FA480168F7480068FEF72E
:1013E000F9FE1390F7480168F3480068FEF7F2FE33
:1013F0001290F24801680068FEF7ECFE1190F04888
:101400000168EE480068FEF7E5FE1090ED480168BF
:10141000EA480068FEF7DEFE0F90E94801680068C0
:10142000FEF7D8FE0E90E7480168E5480068FEF731
:10143000D1FE0D90E34801680068FEF7CBFE0C90EA
:10144000DDE92110FEF7C6FE0A902099FEF7C2FEE4
:1014500000210B90FFF724F901D127B000BD20999E
:101460000846FEF7B7FE0A9021990846FEF7B2FE3D
:10147000089022990846FEF7ADFE07900899FEF7FE
:1014800051FE09900A99FEF74DFE0B9002F012FDF5
:10149000169016992298FEF79DFE22901699219893
:1014A000FEF798FE219016992098FEF793FE209063
:1014B00013990F98FEF788FE4FF080410B90FEF7CE
:1014C00089FE1C900D991498FEF72CFE4FF0804178
:1014D0000B90FEF77FFE1B9011991598FEF774FE96
:1014E0000A900E99FEF770FE0B900C99FEF71AFE0B
:1014F0001A901B992098FEF76DFE0B901A9921986F
:10150000FEF768FE0A900B99FEF75EFE19901A9995
:101510002298FEF75FFE0B901C992098FEF75AFE6A
:101520000A900B99FEF750FE18901C992198FEF72F
:1015300051FE0B901B992298FEF74CFE0A900B99D6
:10154000FEF742FE1790A0491998FEF743FE0B9054
:101550009E4801680B98FEF7E5FD9C4908609A4992
:101560001898FEF737FE0B90994801680B98FEF724
:10157000D9FD9749086094491798FEF72BFE0B9008
:10158000944801680B98FEF7CDFD924908604FF032
:101590007F501999FEF71EFE0A901F99FEF7C2FDB3
:1015A0000B908A4801680B98FEF7BCFD1F904FF026
:1015B0007F501899FEF70EFE0A901E99FEF7B2FDB5
:1015C0000B90834801680B98FEF7ACFD1E904FF01E
:1015D0007F501799FEF7FEFD0A901D99FEF7A2FDB8
:1015E0000B907C4801680B98FEF79CFD1D90754898
:1015F0001D990068FEF7EEFD099071481E9900687C
:10160000FEF7E8FD07906D48006880F00040059007
:101610001F99FEF7DFFD06900799FEF7D5FD0890AC
:101620000999FEF7D1FD68490A90FEF7D3FD0B90AA
:10163000614801680B98FEF775FD5F4908606148D5
:101640001E990068FEF7C6FD09905D481D99006867
:10165000FEF7C0FD079058481F990068FEF7BAFDD5
:1016600006900799FEF75EFD08900999FEF7ACFD1C
:1016700055490A90FEF7AEFD0B90504801680B9853
:10168000FEF750FD4D4908604E481F990068FEF76F
:10169000A1FD099049481D990068FEF79BFD079040
:1016A00045481E990068FEF795FD06900799FEF7DC
:1016B0008BFD08900999FEF735FD43490A90FEF726
:1016C00089FD0B903E4801680B98FEF72BFD3C49C5
:1016D00008603B481F990068FEF77CFD0990374879
:1016E0001E990068FEF776FD079033481D99006843
:1016F000FEF770FD06900799FEF714FD0890099912
:10170000FEF762FD30490A90FEF764FD0B902D480C
:1017100001680B98FEF706FD2A4908600846016833
:101720000068FEF757FD0A90254801680068FEF73B
:1017300051FD0890214801680068FEF74BFD0690B6
:101740001D4801680068FEF745FD05900699FEF703
:10175000E9FC07900899FEF7E5FC09900A99FEF765
:10176000E1FC0B9002F0A6FB169013481699006856
:10177000FEF730FD10490860104816990068FEF722
:1017800029FD0E4908600E4816990068FEF722FDF3
:101790000B4908600B4816990068FEF71BFD0949C4
:1017A0000860249880680C490A90FEF713FD4FF0FA
:1017B0007E510B9012E00000AC000020B000002031
:1017C000B4000020B80000200AD7A33BBC000020D2
:1017D000C0000020C4000020A34C6542FEF76AFF51
:1017E0000AD3249880683B490A90FEF7F3FC3A49F3
:1017F0000B90FEF755FF13D2249880683549099065
:10180000FEF7E8FC35490A90FEF7E4FC0B902698B9
:10181000806801460A900B98FEF784FC2699886040
:1018200013990F98FEF7D0FC4FF080410490FEF71B
:10183000D1FC0590FEF7EDFECDE9060102F024F89B
:1018400081F000414FF0C042254BCDE90801FEF781
:10185000D8FDCDE90A01FEF707FF26990860119926
:101860001598FEF7B1FC01900E99FEF7ADFC0290C1
:101870000C99FEF757FC0390FEF7CBFECDE906016D
:101880004FF080401499FEF7A5FC02904FF0804085
:101890000D99FEF79FFC01900299FEF743FC03901F
:1018A000FEF7B7FECDE90401DDE9062302F034FAC4
:1018B00081F000414FF0C042094BCDE90801FEF72D
:1018C000A0FDCDE90A01FEF7CFFE2699486000BFD2
:1018D000C3E50000A34C6542000080BF0AD7233C4B
:1018E00066A64C4008B50121082000F0A7FD0121A3
:1018F000102000F0A3FD4FF4E040ADF800001020F0
:101900008DF8030003208DF8020069461248FFF7A6
:101910002DFB4FF40050ADF8000010208DF80300AF
:1019200003208DF8020069460C48FFF71FFB4FF4B7
:1019300080510948FFF7A5FB4FF400510648FFF717
:10194000A0FB4FF480410448FFF79BFB4FF400518C
:101950000248FFF796FB08BD000C01400010014053
:101960002DE9FE4F0446029411480068FEF751FE2F
:1019700007464FF033320F4BFEF743FD05460E4648
:101980000298FEF746FE07460B4A0C4BFEF739FD60
:101990002A463346CDE90001FEF78CFC8246FEF76D
:1019A00063FE81460248C0F800904846BDE8FE8FBD
:1019B0009C0000203333E33F9A9999999999D93F34
:1019C0002DE9FE4F0446029411480068FEF721FEFF
:1019D00007464FF033320F4BFEF713FD05460E4618
:1019E0000298FEF716FE07460B4A0C4BFEF709FD60
:1019F0002A463346CDE90001FEF75CFC8246FEF73D
:101A000033FE81460248C0F800904846BDE8FE8F8C
:101A1000980000203333E33F9A9999999999D93FD7
:101A20002DE9FE4F0446029411480068FEF7F1FDCF
:101A300007464FF033320F4BFEF7E3FC05460E46E8
:101A40000298FEF7E6FD07460B4A0C4BFEF7D9FC61
:101A50002A463346CDE90001FEF72CFC8246FEF70C
:101A600003FE81460248C0F800904846BDE8FE8F5C
:101A7000A40000203333E33F9A9999999999D93F6B
:101A80002DE9FE4F0446029411480068FEF7C1FD9F
:101A900007464FF033320F4BFEF7B3FC05460E46B8
:101AA0000298FEF7B6FD07460B4A0C4BFEF7A9FC61
:101AB0002A463346CDE90001FEF7FCFB8246FEF7DD
:101AC000D3FD81460248C0F800904846BDE8FE8F2D
:101AD000A00000203333E33F9A9999999999D93F0F
:101AE00000B589B001210D2000F0A8FC01210220E1
:101AF00000F094FCC020ADF8200018208DF82300E1
:101B000003208DF8220008A93848FFF72FFA032098
:101B1000ADF8200018208DF8230003208DF8220056
:101B200008A93348FFF722FA43F69720ADF81800CA
:101B30004720ADF814000020ADF81600ADF81A00EB
:101B400005A92C4801F0A6FB6020ADF80400002098
:101B5000ADF80A00ADF80C000120ADF8060001A9AF
:101B6000244801F0E3F90821224801F034FA60200A
:101B7000ADF804000020ADF80A00ADF80C0001201B
:101B8000ADF8060001A91B4801F02EFA08211948FA
:101B900001F089FA6020ADF804000020ADF80A00D9
:101BA000ADF80C000120ADF8060001A9114801F0C4
:101BB00087FA08210F4801F0E0FA6020ADF8040030
:101BC0000020ADF80A00ADF80C000120ADF80600C9
:101BD00001A9084801F0DAFA0821064801F021FBC2
:101BE0000121044801F0F6F809B000BD00080140E9
:101BF000000C0140000400407FB505466A460621FE
:101C00003B2000F0D8F91E480088ADF808001C48B9
:101C10004088ADF80A001A488088ADF80C0000240E
:101C20001BE002A931F91400FEF7CCFC064604EBD8
:101C30004401144A02EBC100314602F061F904EBA1
:101C40004401104A02EBC1018868FEF7C9FC00B2EA
:101C500002A921F81400601CC4B2032CE1DBBDF919
:101C60000800FEF7AFFC2860BDF90A00FEF7AAFCE9
:101C70006860BDF90C00FEF7A5FCA8607FBD000000
:101C80002C0000203C00002010B502E003A001F071
:101C90004FFD00F0B4F90028F8D010BD0D4D50559F
:101CA00036303530206E6F20636F6E6E6563742E34
:101CB0002E2E0D0A000000002DE9FF4705466A465A
:101CC0000621432000F077F921480088ADF808008C
:101CD0001F484088ADF80A001D488088ADF80C0008
:101CE000002421E0DFF86C8002A931F91400FEF72E
:101CF00069FC82464146FEF76DFA0746164951F8DF
:101D000024001649FEF766FA81463946FEF70AFABC
:101D1000114941F824000646FEF762FC00B202A910
:101D200021F81400601CC4B2032CDBDBBDF90800F1
:101D3000FEF748FC2860BDF90A00FEF743FC686026
:101D4000BDF90C00FEF73EFCA860BDE8FF8700006F
:101D5000320000209A99193E580100209A99593F63
:101D600010B5FFF791FF80216B2000F033F964205C
:101D7000FEF7F0FF01216B2000F02CF90021382044
:101D800000F028F918211B2000F024F908211C205C
:101D900000F020F903211A2000F01CF9002119207D
:101DA00000F018F90221372000F014F910BD0000EE
:101DB0000FB52B480088A0B90020ADF80000ADF8A1
:101DC0000200ADF804002749086027490860274948
:101DD00008600120224908800023002010805080E4
:101DE0009080BDF900001F49096808441D4908603A
:101DF000BDF902001C49096808441B490860BDF987
:101E00000400C01A194909680844184908601448B0
:101E10000088C8281DD1134800681149098890FB23
:101E2000F1F000B21080104800680D49098890FB5D
:101E3000F1F000B250800D4800680949098890FB14
:101E4000F1F000B29080002005490880012004B024
:101E500000BD03480088401C014908800020F6E7C7
:101E60009000002084000020880000208C000020CA
:101E70000CB53F4840783E49097840EA01203D4989
:101E80000988401A00B23C4908803948C07838496E
:101E9000897840EA012037494988401A00B236491A
:101EA0004880334840793249097940EA0120314974
:101EB0008988401A00B2304988802D48407A2C49E0
:101EC000097A40EA01202D490988401A00B22C49BC
:101ED00008802748C07A2649897A40EA01202749A4
:101EE0004988401A00B2264948802148407B204951
:101EF000097B40EA012021498988401A00B2204923
:101F000088802048007800F00100B8B108460168D8
:101F100000918088ADF804000023184ADDE9000133
:101F2000FFF746FF50B11748007820F0010015492F
:101F300008700846007840F00200087011480078E8
:101F4000C0F3400098B10C48016800918088ADF85A
:101F5000040042F20403074ADDE90001FFF728FF0D
:101F600028B10848007820F00200064908700CBD2E
:101F700048010020260000202C0000202000002026
:101F8000320000203800002010B5034A0E213B200B
:101F900000F011F810BD00004801002070B50446A3
:101FA0000D462A462146D020FFF7EAF808B1012065
:101FB00070BD0020FCE770B504460D46164633465A
:101FC0002A462146D020FFF700F908B1012070BD54
:101FD0000020FCE770B504460D462A462146D02075
:101FE000FFF7B4F908B1012070BD0020FCE708B587
:101FF00069467520FFF7D2FF9DF8000008BD10B5B7
:10200000FFF7F5FF682801D1012010BD0020FCE793
:1020100030B5B0F5FA6F01DD4FF4FA60B1F5FA6F43
:1020200001DD4FF4FA61B2F5FA6F01DD4FF4FA62A7
:10203000B3F5FA6F01DD4FF4FA63B0F57A7F01DA98
:102040004FF47A70B1F57A7F01DA4FF47A71B2F514
:102050007A7F01DA4FF47A72B3F57A7F01DA4FF4BE
:102060007A73044D28802D1D29802D1D2A802D1D59
:102070002B8030BD3404004070B5002100230F22B6
:10208000C47804B3154C246804F4E064C4F5E06437
:10209000210AC1F10403CA40447804FA03F18478A8
:1020A0001440214309010E4C0678A155047804F030
:1020B0001F050124AC4005786D11AD0005F1E02548
:1020C000C5F8004109E0047804F01F050124AC4084
:1020D000044D0678761145F8264070BD0CED00E001
:1020E00000E400E080E100E002490143024A11609F
:1020F000704700000000FA050CED00E008B54FF451
:10210000A060FFF7F1FF1E208DF8000001208DF880
:1021100001008DF802008DF803006846FFF7ACFF60
:1021200025208DF8000002208DF8010001208DF897
:1021300002008DF803006846FFF79EFF08208DF827
:10214000000002208DF801008DF8020001208DF8BA
:1021500003006846FFF790FF1C208DF80000002068
:102160008DF8010003208DF8020001208DF8030096
:102170006846FFF781FF1B208DF8000000208DF8D6
:10218000010002208DF8020001208DF8030068464E
:10219000FFF772FF27208DF8000001208DF8010065
:1021A0008DF802008DF803006846FFF765FF08BD53
:1021B0002DE9F04104460E46154629463046FEF705
:1021C00003F8E060A169E068FDF7FEFF6061E16887
:1021D0002068FDF7FFFFA06294F83800FEF7FBF9D6
:1021E00080466168FDF7F6FF07462169FDF7F2FFBB
:1021F000E0626169A068FDF7EDFF2063D4E90A01A0
:10220000FDF790FF0746216BFDF78CFF60632248C6
:10221000B0F90800B0F5AF6F38DD1F48B0F908001D
:1022200040F63401884231DA1B48B0F90400B42882
:102230002CDB2846216AFEF73DFA07D3206A80F09E
:10224000004729463846FEF735FA03D2002084F8C5
:1022500038001DE0012084F83800D4E90310FDF7B0
:1022600061FF2061616A2069FEF724FA01D2606A89
:102270002061606A80F0004738462169FEF71AFA4B
:1022800006D2606A80F00040206101E000202061F9
:10229000E068A061BDE8F0814403002029482A4994
:1022A000086000204860886028482949086029485B
:1022B000486029488860002081F838002748086273
:1022C000274848620020204981F8380025480862E4
:1022D000234848621B482449086000204860886001
:1022E0002248234908601B4848601B48886000203A
:1022F00081F83800194808621948486200201A49D4
:1023000081F83800174808621548486219481A4988
:1023100008600020486088604FF07F5017490860CF
:1023200000204860886081F8380015480862154828
:1023300048620020104981F838000A4808621248B3
:10234000486270470000C040DC0100208FC2553F4A
:1023500090020020E3A51B3C85EBD13E0000964394
:1023600000007A4400000C42180200200AD7433FC4
:10237000CC0200200000404054020020080300204E
:1023800000001643000096440000484310B5FFF7D4
:10239000FBFDFFF76DFD1C48FFF72EFC1B48FFF708
:1023A0008BFC194908681A49FDF714FF04461949BE
:1023B000FDF710FF1449086048681549FDF70AFF4A
:1023C00004461449FDF706FF0F4948608868104924
:1023D000FDF700FF04460F49FDF7FCFE0A4988603F
:1023E0000A4908680C49FDF7F5FE08490860486885
:1023F0000949FDF7EFFE0549486088680649FDF781
:10240000E9FE0249886010BD700100207C010020B7
:1024100040DAFF380AE81C4145798B3A29B1064A6F
:10242000D2690243044BDA6104E0034AD269824371
:10243000014BDA61704700000010024029B1064AE2
:1024400092690243044B9A6104E0034A9269824311
:10245000014B9A61704700000010024030B5002126
:102460000022002400232D4D6D6805F00C0121B1E0
:10247000042905D0082923D105E0294D056022E073
:10248000274D05601FE0254D6D6805F47012234D42
:102490006D6805F48034022505EB92421CB9214D8C
:1024A000554305600BE01D4D6D6805F400351DB109
:1024B0001C4D5543056002E0194D5543056002E08F
:1024C000174D056000BF00BF144D6D6805F0F001A9
:1024D0000909154D6B5C0568DD4045600F4D6D6861
:1024E00005F4E061090A104D6B5C4568DD408560CC
:1024F0000A4D6D6805F46051C90A0B4D6B5C456867
:10250000DD40C560054D6D6805F44041890B074D00
:102510006B5CC568B5FBF3F5056130BD001002408A
:1025200000127A0000093D001C0100202C0100204F
:102530002DE9F0473848808837494988401A07B262
:10254000002F00DA3FB240F6340087420EDAB7F5CA
:10255000617F0BDD3846FEF735F88146FFF730FA2C
:102560008046FEF73DF800B22C4908802C48808850
:102570002B494988401A04B2002C00DA24B240F6F4
:10258000340084420EDAB4F5617F0BDD2046FEF79D
:1025900019F88146FFF7E4F98046FEF721F800B20A
:1025A0001E4948801F4880881E494988401A05B244
:1025B000002D00DA2DB240F6340085420EDAB5F572
:1025C000617F0BDD2846FDF7FDFF8146FFF728FA06
:1025D0008046FEF705F800B21049888012488088CE
:1025E00011494988401A06B2002E00DA36B240F688
:1025F000340086420EDAB6F5617F0BDD3046FDF71A
:10260000E1FF8146FFF73CFA8046FDF7E9FF00B2A3
:102610000249C880BDE8F087F40000204403002090
:10262000FC000020040100200C01002008B501215D
:102630000820FFF703FF8020ADF8000004208DF88C
:10264000030069460148FEF791FC08BD000C0140FB
:1026500008B501210820FFF7F1FE8020ADF8000049
:1026600010208DF8030003208DF80200694602480F
:10267000FEF77CFC08BD0000000C014010B500F026
:1026800001F810BD0CB5002001900090334800689F
:1026900040F480303149086000BF3048006800F4E1
:1026A000003000900198401C0190009818B90198E2
:1026B000B0F5A06FF1D12948006800F4003010B1E6
:1026C0000120009001E0002000900098012843D1F3
:1026D0002348006840F0100021490860084600685F
:1026E00020F0030008600846006840F0020008601F
:1026F0001A484068194948600846406848600846DA
:10270000406840F4806048600846406820F47C10CF
:1027100048600846406840F4E81048600846006891
:1027200040F08070086000BF0C48006800F0007046
:102730000028F9D00948406820F0030007494860A4
:102740000846406840F00200486000BF0348406807
:1027500000F00C000828F9D10CBD00000010024068
:1027600000200240042808D14FF0E021096941F01F
:1027700004014FF0E022116107E04FF0E021096908
:1027800021F004014FF0E0221161704710B51348A9
:10279000006840F00100114908600846406810498F
:1027A00008400E494860084600680E4908400B4939
:1027B00008600846006820F48020086008464068E9
:1027C00020F4FE0048604FF41F008860FFF756FFBA
:1027D0004FF000600449086010BD00000010024086
:1027E0000000FFF8FFFFF6FE08ED00E010B5FFF770
:1027F00079F8FFF783FCFEF78BFA4FF4E13000F035
:102800004DFFFEF75DFC00F06FFBFFF7A9FAFFF745
:1028100067F9FFF743FDFEF7F9FA10BDF0B50C4676
:10282000154600220021068C4FF6FE773E400684B6
:10283000028B018C4FF60C7632407E1C06EA0316A2
:102840002E433243104EB0420ED0104EB0420BD049
:10285000B0F1804F08D00E4EB04205D00D4EB042C0
:1028600002D00D4EB04206D14FF6FD76314044F015
:102870000106314305E04FF6F576314044F001069C
:10288000314302830184F0BD002C0140003401403B
:102890000004004000080040000C0040F0B50C4669
:1028A0001546002200210026078C4FF6EF7C07EA30
:1028B0000C070784028B018C4FF6FF7707EA04169A
:1028C00040F6FF473A404FF6FF7707EA03373A43AF
:1028D0004FF6FF7707EA05273A43114FB8420ED06B
:1028E000104FB8420BD0B0F1804F08D00E4FB84215
:1028F00005D00E4FB84202D00D4FB84206D14FF668
:10290000DF77394046F01007394305E04FF65F772F
:10291000394044F01007394302830184F0BD0000C0
:10292000002C014000340140000400400008004039
:10293000000C0040F0B50C46154600220021002690
:10294000078C4FF6FF6C07EA0C070784828B018C1B
:102950004FF6FF7707EA04264FF60C773A404FF61A
:10296000FF7707EA03172F433A43114FB8420ED0BF
:10297000104FB8420BD0B0F1804F08D00E4FB84284
:1029800005D00E4FB84202D00D4FB84206D14FF6D7
:10299000FF57394046F48077394305E04FF2FF573F
:1029A000394044F48077394382830184F0BD0000CC
:1029B000002C0140003401400004004000080040A9
:1029C000000C0040F0B50C46154600220021002600
:1029D000078C4EF6FF7C07EA0C070784828B018C7C
:1029E0004FF6FF7707EA043640F6FF473A404FF6C6
:1029F000FF7707EA05273A434FF6FF7707EA0337E1
:102A00003A43114FB8420ED0104FB8420BD0B0F13C
:102A1000804F08D00E4FB84205D00E4FB84202D0BA
:102A20000D4FB84206D14DF6FF77394046F4805736
:102A3000394305E047F6FF57394044F4805739439E
:102A400082830184F0BD0000002C0140003401406D
:102A50000004004000080040000C004010B50221B6
:102A6000204800F0D0F918B31F48407870B91D48CD
:102A700000F0BCF91C4948800020C8800221194898
:102A800000F0A0FA0120184948700DE0154800F048
:102A9000ADF9154988800021124800F093FA002012
:102AA000114948700120087002210E4800F08FF98A
:102AB0000D4880880C494988401A40F63401884204
:102AC0000FDA0948808808494988401AB0F5617FC3
:102AD00007DD0548808804494988401A00B2034947
:102AE000088110BD002C0140140100204403002087
:102AF00010B50121880700F086F918B10121880777
:102B000000F065F90221480700F07DF920B3534831
:102B1000407868B94FF0804000F068F94F4948802C
:102B20000221480700F04EFA01204C4948700FE09E
:102B30004FF0804000F05AF94849888000214FF05A
:102B4000804000F03FFA002044494870012008709E
:102B50000221480700F03BF90421080700F053F96F
:102B600020B33F48407868B94FF0804000F041F909
:102B70003B4948800221480700F088FA0120384983
:102B800048700FE04FF0804000F033F934498880FE
:102B900000214FF0804000F079FA00203049487061
:102BA000012008700421080700F011F90821C80667
:102BB00000F029F920B32B48407868B94FF08040E5
:102BC00000F01AF9274948800221480700F0C8FAA6
:102BD0000120244948700FE04FF0804000F00CF9CC
:102BE0002049888000214FF0804000F0B9FA002091
:102BF0001C494870012008700821C80600F0E7F859
:102C00001021880600F0FFF820B31748407868B913
:102C10004FF0804000F0F3F8134948800221480744
:102C200000F0F2FA0120104948700FE04FF08040A8
:102C300000F0E5F80C49888000214FF0804000F05A
:102C4000E3FA002008494870012008701021880626
:102C500000F0BDF8FFF76CFC10BD0000F400002090
:102C6000FC000020040100200C01002070B50121AF
:102C7000474800F0C8F800287DD046480088401C2E
:102C80004449088044480088401C43490880434820
:102C90000088401C4149088041480088401C404948
:102CA000088040480088401C3E4908803E48008813
:102CB000401C3D4908803D480088401C3B49088035
:102CC00034480088022802DB00203249088032485C
:102CD0000088052805DB00202F49088001203449A1
:102CE00008702E4800880A2805DB00202B49088040
:102CF0000120304908702A480088142802DB00208F
:102D0000274908802748008864282ADB00202549B5
:102D100008802948007820B928480078401C2749B5
:102D200008702648007864281BDB25494868FDF7B1
:102D300070FC04464FF03332224BFDF77DFC10D27D
:102D40001F490868FDF765FC04464FF033321D4B00
:102D5000FDF772FC05D200201849087001201649C1
:102D6000087011480088C82802DB00200E4908803E
:102D70000E48008800E005E0B0F5C87F02DB0020C7
:102D80000A4908800121024800F021F870BD0000C6
:102D9000000800400A0000200C0000200E00002067
:102DA0001000002012000020140000201600002057
:102DB0000200002001000020070000200800002081
:102DC000640100203333D33FCA4302827047CA43B1
:102DD0000282704721B1028842F00102028004E0C1
:102DE00002884FF6FE731A40028070470146888EB3
:102DF00070470146088F70470146888F704701462B
:102E0000B1F84000704730B502460020002300248E
:102E1000158A05EA0103958905EA010413B10CB18D
:102E2000012000E0002030BD70B505460C46244866
:102E300085420ED0234885420BD0B5F1804F08D093
:102E40002148854205D02148854202D0204885424C
:102E500000D100E000BF208850B92389A288618892
:102E60002846FFF7DBFCE188284600F0E7F925E07B
:102E7000208804280AD12389A28861882846FFF780
:102E80000DFDE188284600F0E2F917E020880828C7
:102E90000AD12389A28861882846FFF74BFDE18883
:102EA000284600F0E1F909E02389A28861882846D4
:102EB000FFF788FDE188284600F0DFF970BD0000CB
:102EC000002C014000340140000400400008004094
:102ED000000C00401AB183890B43838102E083898F
:102EE0008B438381704700000EB501210420FFF75A
:102EF00095FA40F2E730ADF804004720ADF8000045
:102F00000020ADF80600ADF802006946064800F062
:102F1000C1F9012211460448FFF7DCFF01210248F4
:102F2000FFF758FF0EBD00000008004070B50024F8
:102F300000220023058C4FF6FE7635400584028C76
:102F40008388048B4FF68F752C40B51E2C400D885E
:102F50002C43751E2A400D892A434D882A43144D5F
:102F6000A8420BD0134DA84208D0134DA84205D05B
:102F7000124DA84202D0124DA84213D14FF6F77558
:102F80002A404D892A434FF6FB752A408D882A43F3
:102F90004FF6FF652B404FF6FF552B408D892B4395
:102FA000CD892B4383800483CD888586028470BDC0
:102FB000002C014000340140004001400044014029
:102FC000004801400A460021018C4FF6FD7319406C
:102FD0001143018470470A460021018B4FF6F773B5
:102FE000194011430183704770B50024002200236B
:102FF000058C4FF6EF7635400584028C8388048B70
:1030000048F6FF752C404FF6FF452C400D884FF6D3
:10301000FF7606EA05252C434FF6DF752A400D8919
:1030200006EA05152A434D8806EA05152A43154D7B
:10303000A84202D0144DA8421DD14FF67F752A40F8
:103040004D894FF6FF7606EA05152A434FF6BF7500
:103050002A408D8806EA05152A434FF6FF352B4096
:103060004FF2FF752B408D8906EA85052B43CD89EC
:1030700006EA85052B4383800483CD880587028477
:1030800070BD0000002C0140003401400A460021C0
:10309000018C4FF6DF7319404FF6FF7303EA0213FA
:1030A0001943018470470A460021018B4FF2FF73D8
:1030B00019404FF6FF7303EA022319430183704757
:1030C00070B5002400220023058C4FF6FF663540C2
:1030D0000584028C8388848B4FF68F752C404FF6C5
:1030E000FC752C400D882C434FF6FF552A400D8966
:1030F0004FF6FF7606EA05252A434D8806EA0525A0
:103100002A43154DA84202D0144DA8421DD14FF2BA
:10311000FF752A404D894FF6FF7606EA05252A43BA
:103120004FF6FF352A408D8806EA05252A434EF6DC
:10313000FF752B404DF6FF752B408D8906EA05156E
:103140002B43CD8906EA05152B4383808483CD88E4
:103150008587028470BD0000002C014000340140CE
:103160000A460021018C4FF6FF5319404FF6FF73BA
:1031700003EA02231943018470470A460021818B28
:103180004FF6F773194011438183704770B50022E1
:1031900000230024058C4EF6FF7635400584038C11
:1031A0008488828B48F6FF752A404FF6FF452A40F7
:1031B0000D884FF6FF7606EA05252A434DF6FF7582
:1031C0002B400D8906EA05352B434D8806EA053567
:1031D0002B430B4DA84202D00A4DA84208D14BF612
:1031E000FF752C408D894FF6FF7606EA85152C4336
:1031F00084808283CD88A0F84050038470BD000095
:10320000002C0140003401400A460021018C4DF69B
:10321000FF7319404FF6FF7303EA02331943018429
:1032200070470A460021818B4FF2FF7319404FF619
:10323000FF7303EA0223194381837047028B4FF621
:10324000F3731A400283028B0A4302837047028B96
:103250004FF2FF331A400283028B4FF6FF7303EAEB
:1032600001231A4302837047828B4FF6F3731A408F
:103270008283828B0A4382837047828B4FF2FF33B3
:103280001A408283828B4FF6FF7303EA01231A43AD
:1032900082837047002202881D4B98420ED01D4B3E
:1032A00098420BD0B0F1804F08D01B4B984205D00C
:1032B0001A4B984202D01A4B984204D14FF68F73A2
:1032C0001A404B881A43174B984207D0164B984226
:1032D00004D04FF6FF431A40CB881A4302808B88F4
:1032E00083850B8803850A4B98420BD0094B984283
:1032F00008D00E4B984205D00D4B984202D00D4B92
:10330000984201D10B7A0386012383827047000023
:10331000002C01400034014000040040000800403F
:10332000000C00400010004000140040004001402C
:10333000004401400048014010B55348007880B176
:10334000002051490870FFF721F8504A5049514870
:10335000FEF720F850480378504A4E494B48FDF795
:103360001DFB4F48007800287ED000204C49087093
:103370004C48007838BB4C48006840F480504A49BB
:1033800008600846006840F400500860084600687D
:1033900040F4804008604548007848B10020434927
:1033A00008704148006840F480503F4908600AE0D6
:1033B00001203E4908703C48001F006840F48050DE
:1033C0003949091F08603A480078F8B13548007853
:1033D000012827D13448006840F480503249086001
:1033E0000846006840F4005008600846006840F451
:1033F000804008602D48007848B100202B490870B3
:103400002948006840F40050274908600AE001207C
:10341000264908702448001F006840F400502249E3
:10342000091F086022480078F0B91E48007801287A
:1034300029D11D48006840F480501B4908600846A7
:10344000006840F4005008600846006840F480407E
:1034500008601648007858B10020144908701248D6
:10346000006840F4804000E00DE00F4908600AE089
:1034700001200E4908700C48001F006840F480408D
:103480000949091F086010BD0100002064010020E7
:10349000700100207C010020E10000204403002096
:1034A0000000002007000020140C0140180000203C
:1034B0000600002010B500BF40F225510B4800F077
:1034C00032F860B940F22441084800F02CF830B1DD
:1034D00006480088C4B20548001D0088C4B240F206
:1034E0002551024800F004F810BD000000380140EA
:1034F00010B50022002340F66A14A14200D100BF9B
:103500000A1201249440A3B2DC43048010BD21B10F
:10351000828942F40052828104E082894DF6FF7371
:103520001A408281704770B50246002400230025AE
:10353000002040F66A16B14200D100BFC1F3421527
:1035400001F01F03012606FA03F3012D02D196892B
:10355000334006E0022D02D1168A334001E0968AFC
:1035600033400C12012606FA04F41688344013B1D5
:103570000CB1012000E0002070BDF0B5034600242E
:1035800000260025002040F66A17B94200D100BF8E
:103590001846C1F3421401F01F06012707FA06F589
:1035A000012C01D10C3004E0022C01D1103000E0DC
:1035B00014301AB107682F43076002E00768AF4371
:1035C0000760F0BD2DE9F04786B005460E460024A1
:1035D000A24600BFA1460027B08900B100BF2F4618
:1035E0002C8A4CF6FF700440F08804432C82AC898E
:1035F0004EF6F3100440B0883189084371890843BE
:103600000443AC81AC8A4FF6FF400440B0890443C8
:10361000AC8201A8FEF722FF1F48874202D1DDF8E5
:1036200010A001E0DDF80CA0A88900F4004040B132
:103630000AEBCA0000EB0A1031684900B0FBF1F850
:1036400007E00AEBCA0000EB0A1031688900B0FB02
:10365000F1F86420B8FBF0F004012009642101FBBB
:103660001089A88900F4004040B1322000EBC90065
:10367000B0FBF1F000F00700044308E0322000EB5B
:1036800009106421B0FBF1F000F00F0004432C811D
:1036900006B0BDE8F08700000038014010B586B0E4
:1036A0000446012144F20C00FEF7C8FE0121880403
:1036B000FEF7B4FE4FF40070ADF8140018208DF83A
:1036C000170003208DF8160005A91748FDF74EFCDA
:1036D0004FF48060ADF8140004208DF8170003202B
:1036E0008DF8160005A91048FDF740FC0820ADF83C
:1036F0000E000020ADF80C000194ADF80A00ADF802
:103700000800ADF8100001A90848FFF75BFF01228F
:1037100040F225510548FFF730FF01210348FFF72C
:10372000F6FE06B010BD0000000801400038014060
:10373000014A024900F096B8993E0008F0000020C6
:10374000490050EAC12018BF04204A0D18BF40F0BC
:10375000010040F2FF72B2EB515F08BF40F002007F
:10376000012808BF052070472DE9F0414F1E00EBEE
:10377000C7010446D1E9000115461E4637F006028E
:103780000DD02A463346FCF73CFE7F1E04EBC703F0
:10379000D3E90023FCF78EFD37F00602F1D1022FAA
:1037A00025D0042F13D0062F18BFBDE8F0812A467C
:1037B0003346FCF726FED4E90A23FCF77BFD2A46B4
:1037C0003346FCF71EFED4E90823FCF773FD2A46B6
:1037D0003346FCF716FED4E90623FCF76BFD2A46B8
:1037E0003346FCF70EFED4E90423FCF763FD2A46BA
:1037F0003346FCF706FED4E90223FCF75BFD2A46BC
:103800003346FCF7FEFDD4E90023BDE8F041FCF7A8
:1038100051BD0122FDF70DB8FCF74CBD0022134647
:1038200010461146FCF75FBE024A00201107FDF763
:1038300000B8000001FDFFFF02E008C8121F08C128
:10384000002AFAD170477047002001E001C1121F21
:10385000002AFBD170470000014908607047000052
:10386000440100202DE9F04116460F46044600258C
:1038700003E03946B047641C6D1C20780028F8D15D
:103880002846BDE8F08100002DE9F04D8D4F21F074
:10389000004A86B005460C46BA452ADBAAEB07006B
:1038A00028430AD08848824501DC1AD1CDB106B040
:1038B0002846BDE8F04DFFF7ACBF844A844B28464C
:1038C000FCF79FFD07460E46824A834B2846214659
:1038D000FCF797FD06B03A463346BDE8F04DFCF7DD
:1038E000E9BC0120FFF7B8FF06B0BDE8F04DFFF7D7
:1038F00095BF7A48824542DABAF1795F0BDA2846F9
:10390000FFF71EFF042808BFFFF78EFF284606B00A
:103910002146BDE8F08D2A460B461046FCF771FDA6
:10392000834602466E480E460B4606217844FFF752
:103930001BFF5A463346FCF764FD804669488A46B9
:103940005A46334604217844FFF70EFF5A46334661
:10395000FCF757FD00223B46FCF7ACFC02460B4649
:1039600040465146FCF7BFFD2A462346FCF749FD79
:1039700006B02A462346BDE8F04DFCF79BBC28461E
:1039800024F0004100223D463B46FCF737FD4FF056
:10399000FF32FCF74EFF0646024653480F460B46E1
:1039A00006217844FFF7E0FE32463B46FCF729FD4E
:1039B000CDE900014D4832463B4604217844FFF7EB
:1039C000D3FE32463B46FCF71CFD00222B46FCF79B
:1039D00071FC834602913046394600F0C3FA8046B6
:1039E00043480D46504517DCDDE900015A46029B6D
:1039F000FCF779FD42462B46FCF703FD42462B4679
:103A0000FCF758FC0122FCF714FF304A304BFCF75E
:103A1000F2FC304A304B4CE04FF0000A52460B4665
:103A20004046FCF747FCCDE9031052462B461046B2
:103A30001946FCF7E6FC32463B46FCF7DFFCDDE9C5
:103A40000332FCF750FD06460F46DDE900015A46F9
:103A5000029BFCF748FD834600910122304639461F
:103A6000FCF7E7FE194A1A4BFCF7C8FC06460F465E
:103A7000012240462946FCF7DCFE5A46009BFCF733
:103A8000C0FC32463B46FCF7B6FC06460F46012218
:103A900050462946FCF7CDFE0E4DDFF858802A46E9
:103AA0004346FCF7ABFC32463B46FCF7A7FC2A46F4
:103AB0004346FCF7A3FC002CD8BF81F0004106B0C0
:103AC000BDE8F08D0000F03F0000F07F075C14338C
:103AD00026A6913C182D4454FB21F93F0000E03FFD
:103AE00080060000960600000A060000200600007E
:103AF0003333EF3FFB21E93F2DE9F84F04460D46F4
:103B000021F0004000917349814211DC72498842E2
:103B100001DC06D12CB120462946BDE8F84FFFF75D
:103B200078BE6E48002DCCBF6D496E49BDE8F88F58
:103B30006D49814211DD6D498142D8BF4FF0FF369A
:103B40006DDD20462946FFF7FBFD042808BFFFF77F
:103B50006BFE20462946BDE8F88F6549654F25F084
:103B60000045814233DD6449814219DD0026324639
:103B70004FF0804320462946FCF79CFB80468A464E
:103B8000012220462946FCF754FE00223B46FCF762
:103B900032FC42465346FCF7A6FC04460D463EE086
:103BA00001260022BA463B4620462946FCF782FB06
:103BB00080460F460022534620462946FCF71BFC50
:103BC00042463B46FCF78FFC04460D4627E04B4936
:103BD00081421BDDDFF828A1022600225346204641
:103BE0002946FCF70EFC00223B46FCF763FB8046AF
:103BF0000F460022534620462946FCF7FCFB42466E
:103C00003B46FCF770FC04460D4608E003262246BE
:103C10002B4600203B49FCF766FC04460D46224635
:103C20002B4610461946FCF7ECFB8B4682460246B3
:103C30000B46FCF7E6FB07460246334888460B4630
:103C400006217844FFF790FD52465B46FCF7D9FB0E
:103C500082462E488B463A46434605217844FFF774
:103C600083FD3A464346FCF7CCFB02460B46002E4A
:103C7000504659460CDAFCF71DFB22462B46FCF752
:103C8000C0FB01B022462B46BDE8F04FFCF7B6BBA7
:103C9000FCF710FB22462B46FCF7B3FB1C4A7A4488
:103CA00002EBC603D3E90023FCF7A5FB22462B4613
:103CB000FCF7A1FB174A7A4402EBC603D3E90023C1
:103CC000FCF79CFB009A002AB8BF81F00041BDE8D8
:103CD000F88F0000000010440000F07F182D4454BD
:103CE000FB21F93FFB21F9BF0000DC3F0000203E33
:103CF0000000F33F0000F03F0000E63F008003407B
:103D00000000F83F0000F0BF22040000E0030000C4
:103D10007E030000460300002DE9F04D9446CCF1EF
:103D2000000423F000464CEA0404524F46EAD474DF
:103D30009A46884621F00042BC4206D8454240EAF5
:103D4000050442EAD474BC4204D9BDE8F04D624691
:103D5000FFF762BDAAF14055A5F17F6555EA0C0455
:103D60000BD0022404EAAA74434DDFF810E144EAC0
:103D7000D87452EA000B04D00CE0BDE8F04DFFF718
:103D8000BBBE002C14BF012CBDE8F08D022C30D03E
:103D9000032C32D056EA0C0B0AD0BE4220D1BA42D4
:103DA00009D126F0804622F080423346114617E0C2
:103DB00000291ADB25E0DFF8C8B0FB44002C04BF63
:103DC000DBE90001BDE8F08D012C02BFDBE9000159
:103DD00081F00041BDE8F08D022C0AD0032C0CD0FC
:103DE000BA4212D1B8F1000F0BDA23482549BDE8D9
:103DF000F08D28462449BDE8F08D28467146BDE87F
:103E0000F08D1D482149BDE8F08D921B12153C2A0A
:103E1000C4BF19481D490EDCBAF1000FBEBF12F134
:103E20003C0F0020014606DB6246FCF75CFB21F0FC
:103E30000041FFF761FE002C08BFBDE8F08D012CAA
:103E400004BF81F00041BDE8F08D114A114B022CF6
:103E500007D0FCF7D0FA2A46BDE8F04D0A4BFCF734
:103E6000CABAFCF7C8FA2A46BDE8F04D064BFCF783
:103E7000C5BA00000000F07F182D4454FB2109C092
:103E8000DA020000FB21F9BFFB210940FB21F93FC9
:103E9000075C143326A6A13C00BF054A128802F035
:103EA0004002002AF9D0C2B2014B1B1D1A80704794
:103EB000003801402DE9F04704464FF07C51204680
:103EC000FCF788F9814625462E460C48A0EB66068D
:103ED000354629464846FCF77DF982462946FCF7D7
:103EE00079F980464FF07F51FCF771F90746294672
:103EF000FCF770F905462846BDE8F087865A375F1B
:103F00002DE9F04104460D4621692068FCF70AF9C5
:103F1000606061696068FCF705F9064631466068D3
:103F2000FCF78AF9E0602846A168FCF74DF90746DE
:103F3000E168FCF74FF90646A168FCF7F3F8A060CA
:103F40004FF07E50E168FCF73FF906466168FCF7E8
:103F500041F92060BDE8F081FEF748FC01E0FFF781
:103F6000EBF9FCE72DE9F04106460F46FCF79AFC19
:103F7000041E0D4618BF0120284320F00040C0F168
:103F80007F6000F1E040C00F0ED0301C18BF012050
:103F9000384320F00040C0F17F6000F1E040C00FE6
:103FA00004BF0120FFF758FC20462946BDE8F081F8
:103FB000555555555555C53F7D6FEB0312D6D4BFAA
:103FC0005544880E55C1C93F3B8F68B52882A4BFB0
:103FD00088B20175E0EF493F09F7FD0DE13D023F71
:103FE0004B2D8A1C273A03C0C88A599CE52A0040F9
:103FF00059018D1B6C06E6BF82922EB1C5B8B33F46
:104000004FBB610567ACDD3F182D4454FB21E93FF0
:104010009BF681D20B73EF3F182D4454FB21F93FDF
:10402000E2652F227F2B7A3C075C143326A6813C65
:10403000BDCBF07A8807703C075C143326A6913C10
:10404000C4EB98999999C9BF711623FEC671BCBF7C
:104050006D9A74AFF2B0B3BF9AFDDE522DDEADBFE4
:104060002F6C6A2C44B4A2BF0D5555555555D53FFC
:10407000FF8300922449C23F6E204CC5CD45B73F17
:10408000513DD0A0660DB13FEB0D76244B7BA93F8F
:1040900011DA22E33AAD903F00000000000000007A
:1040A000C040000800000020480100004609000848
:1040B00008410008480100200806000048380008B0
:1040C000610231012932C50AD7A33C08092E6F12BB
:1040D000833A0C020B3F1809115D1201BC80BB44EE
:1040E00004510A10802C091FA80930DCB9402C02A9
:1040F00003040410090607080902040608ACA24AD2
:08410000041C29184100000015
:04000005080000ED02
:00000001FF
