:020000040800F2
:100000000805002001010008931500085B11000895
:10001000911500080F0200080917000800000000F1
:10002000000000000000000000000000971500081C
:10003000110200080000000095150008991500083D
:100040001B0100081B0100081B0100081B01000820
:100050001B0100081B0100081B0100081B01000810
:100060001B0100081B0100081B0100081B01000800
:100070001B0100081B0100081B0100081B010008F0
:100080001B0100081B0100081B0100081B010008E0
:100090001B0100081B0100081B01000813020008D7
:1000A0001B0100081B0100081B0100081B010008C0
:1000B0001B0100081B0100081B0100081B010008B0
:1000C0001B0100081B0100081B0100081B010008A0
:1000D0001B0100081B0100081B0100081B01000890
:1000E0001B0100081B0100081B010008DFF80CD0F1
:1000F00000F06CF800480047451A00080805002089
:100100000648804706480047FEE7FEE7FEE7FEE7B1
:10011000FEE7FEE7FEE7FEE7FEE7FEE7EB15000879
:10012000ED000008202A04DB203A21FA02F0002129
:10013000704721FA02F3D040C2F1200291400843F7
:1001400019467047D2B201E000F8012B491EFBD2DC
:1001500070470022F6E710B513460A4604461946D2
:10016000FFF7F0FF204610BD2DE9F05F05460020A7
:1001700092469B4688460646814640241BE0284618
:10018000414647462246FFF7CDFF53465A46C01A1E
:10019000914110D311461846224600F029F82D1A35
:1001A00067EB01084F4622460120002100F020F8AD
:1001B00017EB00094E41201EA4F10104DFDC484684
:1001C00031462A464346BDE8F09F0000064C074DE5
:1001D00006E0E06840F0010394E807009847103417
:1001E000AC42F6D3FFF786FFD41A0008F41A0008D1
:1001F000202A04DB203A00FA02F1002070479140E7
:10020000C2F1200320FA03F3194390407047FEE740
:100210007047202000F002B870477047044910B5BD
:100220000A68024202D00860FFF7F7FF10BD000025
:10023000140401402DE9F84FDFF8B891002409F1CA
:10024000040A0AF1040B23460F270BF1040EC9E040
:100250000125A5402A40AA427DD1674ED1F804C0AD
:10026000ACEB0608B44532D014DCBCF1030F3AD035
:1002700009DCBCF1000F2AD0BCF1010F1CD0BCF18D
:10028000020F31D11DE0BCF1110F17D0BCF1120FDC
:100290002AD119E0B8F5881F19D006DCB8F5803FDF
:1002A00015D0B8F5801F1FD111E0B8F5001F0ED092
:1002B000B8F5041F18D10AE0CB6815E0CB681B1D08
:1002C00012E0CB6808330FE0CB680C330CE08B688E
:1002D0002BB1012B4FF0080303D0456104E0042348
:1002E00002E0056100E00023FF2A01D8064601E094
:1002F00000F104064FEA840501D9A5F12005D6F8DE
:10030000008007FA05FC28EA0C0803FA05F548EA1C
:100310000508C6F800804D68ED0062D5374DAE691E
:1003200046F00106AE61AD6924F0030605F0010553
:100330000095334D06EB050CDCF80850A607360F88
:1003400007FA06F825EA0805DFF8B880404503D12A
:100350004FF0000817E044E0DFF8AC80404502D1E0
:100360004FF001080FE0DFF8A480404502D14FF0C4
:10037000020808E0DFF89880404502D14FF00308FA
:1003800001E04FF0040808FA06F848EA0508CCF83E
:1003900008804D68D9F80060ED034D4601D516433D
:1003A00000E096432E604D68DAF80060AD035546D4
:1003B00001D5164300E096432E604D68DBF80060DF
:1003C000ED025D4601D5164300E096432E604D6870
:1003D000DEF80060AD02754601D5164300E0964395
:1003E0002E60641C0D682A46E5407FF431AFBDE8FD
:1003F000F88F0000000401400000111000100240BE
:100400000000014000080140000C014000100140C4
:10041000001401400AB1016170470904FBE70000C4
:1004200001488068704700000000002070B504009B
:1004300025D094F83D00002520B984F83C50204692
:1004400000F0E0F9242084F83D002068016821F0E4
:10045000010101602068016841F4004101602068E9
:10046000016821F40041016000F028FB4D4A6168F9
:10047000914201D84C4900E04C49884201D2012008
:1004800070BD4B492368B0FBF1F15E6826F03F0672
:100490000E435E606368934206D94FF496735943E6
:1004A0004FF47A73B1FBF3F12368491C1E6A26F0FE
:1004B0003F06314319626168914210D84900401EDD
:1004C000B0FBF1F2521CC2F30B02042A01D2042049
:1004D00022E0B0FBF1F0401CC0F30B001CE0A2686E
:1004E000F2B301EBC10303EB0116431EB3FBF6F3BA
:1004F0005B1C43F480431B0549D092B301EBC1025E
:1005000002EB0111401EB0FBF1F0401CC0F30B00E8
:1005100040F4804040F400402168CA694CF6FF7303
:100520009A431043C861D4E9071001432068026868
:1005300022F0C00211430160D4E9030101432068A5
:10054000826848F2FF339A4311438160D4E9050180
:1005500008432168CA6822F0FF021043C86001E026
:100560000EE016E02068016841F001010160256499
:10057000202084F83D00256384F83E50002070BDA3
:1005800001EB4106431EB3FBF6F35B1CB3E701200E
:10059000C2E701EB4101401EB0FBF1F0401CC0F38B
:1005A0000B00B7E7A086010080841E0000093D0013
:1005B00040420F002DE9FF4F83B00025DDE910799F
:1005C0009A4693460446DDF848800095FFF728FFD9
:1005D000064694F83D0020287CD119230122854944
:1005E0002046009600F050FE0028F5D194F83C001B
:1005F00001286FD0012084F83C0020680168C907F9
:1006000003D1016841F0010101602068016821F413
:1006100000610160222084F83D00402084F83E0003
:1006200025646762A4F82A90608D20857248E06294
:10063000CDE9008653465A462046049900F0A6FDAF
:1006400000287DD1208DDFF8B491202768B10128E2
:1006500014D00228206801681ED041F48061016036
:100660002068416980690090B6E02068416981692D
:100670000091016841F400710160ADE020680168FB
:1006800021F48061016072B620684169816900913E
:10069000016841F400710AE041F40061016072B642
:1006A0002068416981690091016821F480610160DD
:1006B00062B691E0032868D801280CD0022843468E
:1006C0004FF000024946204600960FD000F0DCFDB6
:1006D000B0BB10E08BE032464146204600F053FEAE
:1006E00070BB20680069616A08706CE000F0CCFDA6
:1006F00030BB72B634E02068016821F4806101608B
:1007000072B620680069616A0870606A401C6062A5
:10071000208D401E2085608D401E6085384846F241
:10072000A8110068B0FBF1F0C0EBC00000EB800046
:100730000090401E009008D020684069C04300E04F
:1007400029E040070CD50098F3E744F8305F677361
:10075000A573206940F02000206162B625731AE07D
:100760002068016841F40071016020680069616AD5
:100770000870606A401C6062218D491E2185618D70
:10078000491E618562B621681BE03246414620461B
:1007900000F0F9FD18B1012007B0BDE8F08F206826
:1007A0000069616A0870606A401C6062218D491EA0
:1007B0002185618D491E618521684A69D2435207AE
:1007C0000AD409690170606A401C6062208D401E75
:1007D0002085608D401E6085208D00287FF46AAFE3
:1007E00084F83D7084F83E5084F83C50D4E70220F1
:1007F000D2E70000020010000000FFFF040001002B
:100800000C00002010B586B00021009101910291EA
:10081000039100680F4988421AD10F4CA06940F03B
:100820000800A061A069694600F008000490C0209B
:10083000009012200190032003900848FFF7FAFC73
:10084000E06940F40010E061E06900F400100490F9
:1008500006B010BD0054004000100240000C0140E2
:1008600002488168027811448160704700000020CE
:10087000074810B5016841F010010160032000F045
:1008800075F8002000F006F800F024F8002010BDF4
:100890000020024070B50D4D04464FF47A7128785F
:1008A000B1FBF0F00A490968B1FBF0F000F07EFB03
:1008B00048B9102C07D200222146501E00F036F80D
:1008C00000206C6070BD012070BD000000000020A1
:1008D0000C0000200C4808B5816941F001018161DC
:1008E000816901F001010091C16941F08051C1614C
:1008F000C06900F0805000900448416821F0E06138
:1009000041F00071416008BD00100240000001404C
:10091000002809DB00F01F020121914040098000FE
:1009200000F1E020C0F8001170470000F0B40E4B59
:100930001B680C46C3F30223C3F10705042D00D93D
:100940000425191D072901D2002300E0DB1E012622
:1009500006FA05F1491E214099409E40761E164038
:100960003143F0BC00F0E2BE0CED00E0064900F0BF
:10097000070208684FF6FF03184040EA0220034AC6
:1009800010430860704700000CED00E00000FA051D
:100990002DE9F0470F46050061D0434E306800F066
:1009A0000700B84209D2306820F0070038433060B1
:1009B000306800F00700B84251D128683B4C8107ED
:1009C00012D5400703D5606840F4E0606060287885
:1009D000000703D5606840F4605060606068A968F3
:1009E00020F0F000084360602878C00728D06868CD
:1009F000012810D02168022810D0890700292EDA9A
:100A0000616821F0030101436160FFF709FD804641
:100A100041F288390DE021688903EFE78901EDE7AC
:100A2000FFF7FEFCA0EB0801494502D90320BDE811
:100A3000F0876068696800F00C00B0EB810FEFD1BF
:100A4000306800F00700B8420BD9306820F007008A
:100A500038433060306800F00700B84201D0012010
:100A6000E5E72878400705D56068E96820F4E0608C
:100A7000084360602878000706D56068296920F47B
:100A8000605040EAC100606000F038F86168084AD0
:100A9000C1F30311515CC84006490860064800686C
:100AA000FFF7F8FE0020C2E70020024000100240DD
:100AB000BC1A00080C00002004000020044805496E
:100AC00000684968044AC1F30221515CC84070477C
:100AD0000C00002000100240CC1A00080448054910
:100AE00000684968044AC1F3C221515CC84070479C
:100AF0000C00002000100240CC1A000812A185B0A2
:100B00000FC98DE80F0014A0144A006804905168C2
:100B1000134801F00C03042B10D0082B0ED1C1F3A5
:100B20008343C9031DF803000AD5516804AAC1F321
:100B30004041515C0A4A5043B0FBF1F005B07047A8
:100B400008494843FAE700000203040506070809BC
:100B50000A0B0C0D0E0F10100102000000100240D5
:100B600000127A0000093D002DE9F84F040070D012
:100B70002078C04DC00749D06868C0F381000128C3
:100B800007D06868C0F38100022809D16868C003F3
:100B900006D52868800339D560680028E7D035E09D
:100BA0006068B0F5803F0BD010B1B0F5A02F11D028
:100BB000286820F480302860286820F4802002E033
:100BC000286840F480302860606890B1FFF728FC06
:100BD00006460AE0286840F480202860F0E700BF5D
:100BE000FFF71EFC801B642873D828688003F7D5A4
:100BF0000CE0FFF715FC064605E000BFFFF710FC10
:100C0000801B6428F0D828688003F7D420789A4E97
:100C100080074FF001094FF0000839D5686810F0DF
:100C20000C0F07D06868C0F38100022809D16868FA
:100C3000C00306D42868800714D52069012808D18C
:100C400010E02069B0B1C6F80090FFF7E9FB074655
:100C500005E00AE1FFF7E4FBC01B0228C4D82868BE
:100C60008007F7D52868616920F0F80040EAC100E4
:100C700028600DE0C6F80080FFF7D2FB074604E0CD
:100C8000FFF7CEFBC01B022823D828688007F7D4C3
:100C9000207800072CD57948A169D9B1C0F8009017
:100CA000FFF7BEFB074604E0FFF7BAFBC01B0228B4
:100CB0000FD8686A8007F7D571484FF4FA51006879
:100CC000B0FBF1F0009000BF0098411E0091FAD2F5
:100CD0000EE080E0C0F80080FFF7A2FB074604E0CA
:100CE000FFF79EFBC01B022875D8686A8007F7D4FF
:100CF0002078400760D5E8690027C00008D4E8697B
:100D000040F08050E861E869012700F080500090D1
:100D10005C480168C90513D40168834641F48071B9
:100D20000160FFF77DFB824606E000BFFFF778FB1E
:100D3000A0EB0A0064284ED8DBF80000C005F5D50A
:100D4000E06801280AD008B1052813D0286A20F0ED
:100D500001002862286A20F0040002E0286A40F0BE
:100D600001002862E06841F2883B98B1FFF758FB28
:100D700082460BE0286A40F004002862EEE700BFDC
:100D8000FFF74EFBA0EB0A0159455AD8286A8007A5
:100D9000F6D50CE0FFF744FB824605E0FFF740FB89
:100DA000A0EB0A0159454CD8286A8007F6D41FB138
:100DB000E86920F08050E861E06988B36968C1F3B0
:100DC0008101022944D00228C6F8608004D0FFF7D0
:100DD00027FB044638E034E0FFF722FB074604E037
:100DE000FFF71EFBC01B02282BD828688001F7D410
:100DF000206AB0F5803F05D16868A16820F4003012
:100E000008436860D4E908010843696821F4741153
:100E100008436860C6F86090FFF702FB044606E0EE
:100E200025E000BFFFF7FCFA001B022809D828685C
:100E30008001F7D51BE000BFFFF7F2FA001B022884
:100E400002D90320BDE8F88F28688001F4D40EE0B1
:100E50000128F7D06868226A00F48031914204D1F9
:100E6000616A00F47010884201D00120EAE7002096
:100E7000E8E70000001002400000424280044242C5
:100E80000C0000200070004070B5040009D0606ABA
:100E9000002540B125616561A56294F8510040B11B
:100EA0000CE0012070BD6068B0F5827FF4D0E56190
:100EB000F2E784F85050204600F040F8022084F811
:100EC00051002068016821F040010160A08821895B
:100ED00000F4827001F404410843A18901F4006127
:100EE0000843217C01F002010843217D01F001014A
:100EF0000843218B01F400710843217F01F0380180
:100F0000084394F8201001F080010843218D01F47A
:100F10000051084321680860A069042101EA1040DB
:100F2000216848602068C16921F40061C16165657C
:100F3000012084F85100002070BD000030B585B05C
:100F40000024009401940294039400681449884298
:100F500023D11448816941F480518161816901F490
:100F600080510491816941F00401816180690E4DD5
:100F700000F004000490A0200090022001900320C3
:100F8000039069462846FFF755F94020CDE9000453
:100F9000694628460294FFF74DF905B030BD0000C0
:100FA00000300140001002400008014010B5401E12
:100FB000B0F1807F01D3012010BD4FF0E0246061CB
:100FC0000F21601700F0B2FB0020A0610720206114
:100FD000002010BD70B5040004D094F83D00002539
:100FE00010B106E0012070BD84F83C50204600F0AE
:100FF00023F8242084F83D002068C16821F40051C2
:10100000C160204600F0F2FA2068016921F49041A5
:1010100001612068416921F02A0141612068C168AD
:1010200041F40051C1602564202084F83D0084F81B
:101030003E00002070BD000030B585B00024009453
:1010400001940294039400681449884224D11448FE
:10105000816941F480418161816901F48041049199
:10106000816941F00401816180690E4D00F0040046
:1010700004904FF400700090022001900320039030
:1010800069462846FFF7D6F82815CDE900046946D9
:1010900028460294FFF7CEF805B030BD0038014075
:1010A00000100240000801402DE9F843044690F882
:1010B0003D001F4616460D4620284CD1C5B1BEB195
:1010C00094F83C00012846D0012084F83C004FF001
:1010D0000008C4F84080212084F83D00FFF7A0F903
:1010E000A6848146E684A068B0F5805F03D004E062
:1010F0000120BDE8F883206928B12E465FF0000585
:1011000084F83C800EE00026FAE78021204600F0BB
:10111000C9FAA0B9AEB116F8010B21684860E08C9D
:10112000401EE084E08C4B464FF000020097002800
:10113000EBD14FF04001204600F0B4FA30B103206B
:10114000D7E735F8020BC0F30800E6E7202084F863
:101150003D000020CDE70220CBE7FEE701684A69A9
:10116000D24352050FD46FF480624A61002140F8E7
:10117000301F202242738173026942F0040202612F
:101180000173012070470020704700002DE9F84FDF
:101190000446006889460B9D01689846174641F44D
:1011A000806101602068016841F4807101600095F0
:1011B0004FF0011B0022594620460A9B00F064F8BC
:1011C0004FF4007A40B120680068C00501D5C4F82A
:1011D00040A00320BDE8F88F216809F0FE000861F7
:1011E0002B46284920460A9A00F082F8F0BB206876
:1011F0004169806900902A4620460A9900F0F6F875
:1012000040B1206C04283AD12068016841F4007193
:10121000016034E0FEB2B8F1010F09D02168380A4C
:1012200008612A4620460A9900F0E0F80028E8D133
:10123000206806612A4620460A9900F0D7F800285F
:10124000DFD12068016841F48071016000950022BF
:10125000594620460A9B00F017F80028B3D12168B0
:1012600009F0FF0040F00100086100E007E02B46B4
:10127000044920460A9A00F03BF80028AAD0012031
:10128000A8E70000020001002DE9F0471E46904645
:101290000D460446C1F30747DDF8209008E0701CB6
:1012A00006D0FFF7BDF8A0EB0900B0420FD876B129
:1012B0002068012F18D0806925EA00000004000C86
:1012C00014D000214145EAD00020BDE8F08700207D
:1012D00044F8300F20216173A073216941F020018F
:1012E000216120730120F0E74069E5E70121E9E78A
:1012F0002DE9F0479A4691460E46044600254FF0E8
:101300002008C1F3074725E020684069C043400535
:1013100014D42068016841F40071016021686FF401
:1013200080604861256384F83D8084F83E50206CDD
:1013300040F00400206484F83C501FE0B9F1FF3F06
:1013400008D0FFF76DF8A0EB0A0149450CD8B9F1B8
:10135000000F09D02068012F13D0806926EA000011
:101360000004000C0BD0CFE744F8305F84F80D8008
:10137000A573206940F02000206125730120BDE89D
:10138000F0874069EAE72DE9F041002590460E46D6
:101390000446202717E04069C043C0060CD454F827
:1013A000301B6FF01000486144F810596777A5773B
:1013B000206A2062257717E0FFF732F8A0EB0800DB
:1013C000B04208D83EB120684169C9434906E2D419
:1013D0000020BDE8F08144F8305F6773A573206991
:1013E00040F02000206125730120F2E770B5164619
:1013F0000D4604460DE02046FFF7B0FE08B101207F
:1014000070BD681C05D0FFF70BF8801BA84207D8F9
:1014100035B120684069C0430006ECD4002070BD9F
:10142000002044F8300F20216173A073216941F03E
:10143000200121612073E2E730B585B00024204807
:101440000094019402940394816941F02001816128
:10145000816901F020010491816941F004018161F9
:10146000816901F004010491816941F00801816101
:101470008069144D00F008000490002210212846D5
:10148000FEF7C8FF102000900120CDE901040224DE
:10149000694628460394FEF7CDFE202000900A48B6
:1014A000CDE9010469460948FEF7C4FE0022012186
:1014B0001720FFF73BFA1720FFF72AFA05B030BDD7
:1014C000001002400008014000001110000C014013
:1014D0000D4810B50B4901600C49416000214FF4E3
:1014E00080428160C0E9031241618161C161016292
:1014F000FEF79CFF002803D0BDE81040FEF78CBE2D
:1015000010BD00000054004014000020A08601001F
:10151000104810B50E4901604FF4827141600021FE
:101520008160C1604FF400720161C0E905121022B0
:10153000C0E90721416281620A21C162FFF7A4FC70
:10154000002803D0BDE81040FEF766BE10BD0000C5
:1015500000300140680000200C4810B50A490160C5
:101560004FF461214160002181600C22C160C0E91B
:1015700004128161C161FFF72DFD002803D0BDE891
:101580001040FEF749BE10BD00380140C0000020E9
:10159000FEE7704770477047FFF762B930B58FB00C
:1015A00028216846FEF7D5FD14210AA8FEF7D1FDD3
:1015B00001210804CDE900100024029402250491C1
:1015C000CDE907504FF4E01009906846FFF7CCFAD8
:1015D0000F20CDE90A056802CDE90C4002210AA8D6
:1015E0000E94FFF7D5F90FB030BD704770B50446C3
:1015F00000680169E26821F44051114301612169E9
:10160000A0680843616908432168CA6841F20C6315
:101610009A430243CA6020684169A26921F440717B
:10162000114341611E492068884202D1FFF756FAF2
:1016300001E0FFF743FA00EBC00101EB0012606824
:1016400064218000B2FBF0F3B3FBF1F36FF01806F6
:101650007343B2FBF0F5B2FBF0F605EB83053223E2
:1016600003EB0515B5FBF1F5B6FBF1F605F0F0055A
:1016700005EB0615B2FBF0F6B2FBF0F0B0FBF1F0B3
:101680006FF01802504306EB800003EB0010B0FB34
:10169000F1F0216800F00F002844886070BD000060
:1016A000003801402DE9F041984617460E460446A1
:1016B000069D1DE0681C1BD02DB1FEF7B1FEA0EB0E
:1016C0000800A84214D92068C16821F4D071C16013
:1016D0002068416921F001014161202084F83D002A
:1016E00084F83E00002084F83C000320BDE8F0812F
:1016F0002068006836EA000004D00020B842D9D043
:101700000020F3E70120F9E7FEE700000FB4054BE6
:1017100010B503A9044A029800F028F810BC5DF83F
:1017200014FB00002D1A0008100000200907090E04
:10173000002804DB00F1E02080F80014704700F07E
:101740000F0000F1E02080F8141D704702E008C887
:10175000121F08C1002AFAD170477047002001E02B
:1017600001C1121F002AFBD1704700002DE9FF4F75
:101770008DB09B460F460446002606E025280BD078
:101780005A460F999047641C761C20780028F5D1A2
:1017900011B03046BDE8F08F0025A84601229849D7
:1017A00000E0054314F8013F203B02FA03F0084231
:1017B000F7D120782E2817D114F8010F45F0040531
:1017C0002A280ED06FF02F022078A0F130010929CD
:1017D0000AD808EB880102EB410100EB0108641C08
:1017E000F2E757F8048B641C20786C280DD004DCD9
:1017F0004C2812D06A2811D104E074280DD07A2820
:101800000CD10AE045F4001507E0617845F4801535
:10181000814202D1641C05F58015641C2278692A76
:1018200045D008DC002AB3D0582A69D0632A10D0EA
:10183000642A08D13BE0702A67D0732A13D0752A36
:101840005CD0782A5CD010465A460F999047761C97
:10185000D3E017F8040B8DF8000000208DF801008C
:10186000E946012003E057F8049B4FF0FF30690779
:101870004FF0000501D40AE06D1C45450DDA8542A4
:10188000FADB19F805100029F6D106E06D1C854237
:10189000FCDB19F805100029F8D12E4404E019F8F2
:1018A000010B5A460F9990476D1EF8D2A5E00A2009
:1018B0000021CDE90801C5F3025002280DD001CF67
:1018C000C117031E71F100030DDA4FF0000CD0EBCD
:1018D0000C006CEB01012D2308E0FF1D27F007072A
:1018E000F7E80201EDE72B0504D52B238DF828300E
:1018F00001233BE0EB0739D02023F7E70A2000E083
:1019000010200021CDE9080107E01020002145F05A
:101910000405CDE908014FF00808C5F3025002287C
:101920000FD001CF00214FF0000A2B071FD5702ADE
:101930000DD0DDE908C38CF0100C5CEA030C0CD070
:1019400015E0FF1D27F00707F7E80201EBE740224B
:101950008DF828204FF0010A0BE050EA010306D071
:1019600030238DF828308DF8292002239A46582AF2
:1019700004D024A20DF120090B9209E026A2F9E778
:10198000DDE90823FEF7F0FB0B9B9B5C09F8013DAA
:1019900050EA0102F4D1ADEB09002030089068074D
:1019A00001D44FF001080899884502DDA8EB010039
:1019B00000E000208046002506E00AA85A46405D67
:1019C0000F9990476D1C761C5545F6DB04E03020DE
:1019D0005A460F999047761CB8F10001A8F101080A
:1019E000F5DC05E019F8010B5A460F999047761C73
:1019F0000899481E08900029F4DC641CC5E6000024
:101A000009280100303132333435363738396162D4
:101A10006364656600000000303132333435363798
:101A200038394142434445460000000013B5FF23C6
:101A3000012269460248FFF737FB00981CBD0000F1
:101A4000C00000201FB5FEF713FFFFF7A7FDFFF74B
:101A5000F3FCFFF73DFDFFF75BFDFFF77DFD0EA0FB
:101A6000FFF754FE002401218DF80C400A2203A840
:101A70008DE807000B462246D1210B48FEF79AFD60
:101A80009DF80C1009A0FFF741FE8DF80C4021468F
:101A900008A0FFF73BFEFEE7737461727420696E65
:101AA0006974310D0A000000140000206164647242
:101AB0002049442025780D0A0000000000000000A5
:101AC00000000000010203040607080900000000EE
:101AD00001020304F41A00080000002014000000B2
:101AE0004C170008081B000814000020F404000034
:101AF0005C1700080100000010000000000000005A
:081B00000024F40000000000C5
:04000005080000ED02
:00000001FF
