:020000040800F2
:10000000B0040020010100089B1C00087D120008BC
:10001000991C00086D010008151F00080000000071
:100020000000000000000000000000009F1C00080D
:100030006F010008000000009D1C0008A11C0008C2
:100040001B0100081B0100081B0100081B01000820
:100050001B0100081B0100081B0100081B01000810
:100060001B0100081B0100081B0100081B01000800
:100070001B0100081B0100081B0100081B010008F0
:100080001B0100081B0100081B0100081B010008E0
:100090001B0100081B0100081B0100081B010008D0
:1000A0001B0100081B0100081B0100081B010008C0
:1000B0001B0100081B0100081B0100088112000839
:1000C0001B0100081B0100081B0100081B010008A0
:1000D0001B010008091F00081B0100081B01000884
:1000E0001B0100081B0100081B010008DFF80CD0F1
:1000F00000F02AF800480047A11F0008B0040020C3
:100100000648804706480047FEE7FEE7FEE7FEE7B1
:10011000FEE7FEE7FEE7FEE7FEE7FEE7F31C00086A
:10012000ED000008D2B201E000F8012B491EFBD21D
:1001300070470022F6E710B513460A4604461946F2
:10014000FFF7F0FF204610BD064C074D06E0E068C3
:1001500040F0010394E8070098471034AC42F6D30E
:10016000FFF7C8FFE41F000804200008FEE77047FF
:10017000704710B590F821100022022905D0042103
:10018000816380F82020012010BD01680B6823F0F6
:100190000E030B6001680B6823F001030B6090F8FD
:1001A0004030C46B012101FA03F3636080F8211031
:1001B00080F82020104610BD10B590F821100024C2
:1001C000022903D00421816301243DE001680A680B
:1001D00022F00E020A6001680A6822F001020A6039
:1001E0001A4A0168914201D1012121E0174A1432D3
:1001F000914201D110211BE0144A2832914201D1D1
:10020000891515E0114A3C32914201D189140FE061
:100210000E4A5032914202D14FF4803108E00B4A2D
:100220006432914202D14FF4801101E04FF08071AD
:10023000064A083A5160012180F82110002180F817
:100240002010416B01B18847204610BD08000240D4
:1002500090F82100704700002DE9F84FDFF8B891C1
:10026000002409F1040A0AF1040B23460F270BF1BD
:10027000040EC9E00125A5402A40AA427DD1674E5F
:10028000D1F804C0ACEB0608B44532D014DCBCF1A4
:10029000030F3AD009DCBCF1000F2AD0BCF1010FEA
:1002A0001CD0BCF1020F31D11DE0BCF1110F17D0F1
:1002B000BCF1120F2AD119E0B8F5881F19D006DC5D
:1002C000B8F5803F15D0B8F5801F1FD111E0B8F503
:1002D000001F0ED0B8F5041F18D10AE0CB6815E056
:1002E000CB681B1D12E0CB6808330FE0CB680C33E2
:1002F0000CE08B682BB1012B4FF0080303D0456154
:1003000004E0042302E0056100E00023FF2A01D895
:10031000064601E000F104064FEA840501D9A5F183
:100320002005D6F8008007FA05FC28EA0C0803FA35
:1003300005F548EA0508C6F800804D68ED0062D56D
:10034000374DAE6946F00106AE61AD6924F0030693
:1003500005F001050095334D06EB050CDCF808505F
:10036000A607360F07FA06F825EA0805DFF8B88071
:10037000404503D14FF0000817E044E0DFF8AC80BF
:10038000404502D14FF001080FE0DFF8A48040455E
:1003900002D14FF0020808E0DFF89880404502D112
:1003A0004FF0030801E04FF0040808FA06F848EAA5
:1003B0000508CCF808804D68D9F80060ED034D467B
:1003C00001D5164300E096432E604D68DAF80060D0
:1003D000AD03554601D5164300E096432E604D68A7
:1003E000DBF80060ED025D4601D5164300E0964360
:1003F0002E604D68DEF80060AD02754601D51643EB
:1004000000E096432E60641C0D682A46E5407FF4A8
:1004100031AFBDE8F88F000000040140000011106A
:10042000001002400000014000080140000C0140A3
:10043000001001400014014001488068704700002E
:1004400000000020704770472DE9F0470268002146
:100450005368C66A90F83E4090F83D50102C12D078
:10046000402C10D0046C002C7DD05469E443A607C6
:100470007AD4DE43B60577D4036C03B19169BDE845
:10048000F04701F0CBBA976951694FF42A0CC94380
:100490005FEAC1784FF02A4904D066452AD04E451C
:1004A00028D010E0DE43B6050DD4C16A614501D104
:1004B000012103E0C16A494501D10821C162BDE8BB
:1004C000F04701F015BA0E0716D4DE43B60513D473
:1004D000416CC9B21161416B09B1896A29B9816B5B
:1004E000002907D0896A002904D00068416841F4D6
:1004F00000614160BDE8F0878E0706D4DE43B60593
:1005000003D4BDE8F04701F047B9FE4352687607CF
:100510004FEA02521DD4002AECDB0A0608D4DA4363
:10052000520505D4490705D5BDE8F04701F0D8B814
:100530004907DFD4D9438905DCD4212D05D0402CCF
:10054000D8D1BDE8F04701F019BABDE8F04701F095
:1005500085B8002ACEDB4A060BD4DA43520508D40C
:10056000490708D501E00DE00EE0BDE8F04701F0D5
:1005700001B84907BED4D9438905BBD4BDE8F047CB
:1005800000F08EBF916970E7E10606D4D943890572
:1005900003D4BDE8F04701F065BA2821212D27D00A
:1005A000292D25D0650655D4DD436D0552D4640749
:1005B00052D590F83D30448D002C9BD01269446A8E
:1005C0002270426A521C4262428D521E4285428D06
:1005D000002A8FD12A2B8DD10268536823F48063BF
:1005E00053602222026380F83D1000F047F981E752
:1005F000250623D4DD436D0520D4640720D590F86B
:100600003D30448D002CF2D0446A24781461426A53
:10061000521C4262428D521E4285428D002AE6D112
:10062000292BE4D10268536823F4806353602122AC
:10063000026380F83D1000F022F95BE76107D6D431
:10064000D9438905D3D4418D0029D0D0416A097896
:1006500011610AE06107CAD4D9438905C7D4418D25
:100660000029C4D01169426A1170416A491C416273
:10067000418D491E41853DE77047000070B504007B
:1006800025D094F83D00002520B984F83C50204640
:1006900000F0BEF8242084F83D002068016821F0B5
:1006A000010101602068016841F400410160206897
:1006B000016821F40041016000F010FA4D4A6168C0
:1006C000914201D84C4900E04C49884201D20120B6
:1006D00070BD4B492368B0FBF1F15E6826F03F0620
:1006E0000E435E606368934206D94FF49673594394
:1006F0004FF47A73B1FBF3F12368491C1E6A26F0AC
:100700003F06314319626168914210D84900401E8A
:10071000B0FBF1F2521CC2F30B02042A01D20420F6
:1007200022E0B0FBF1F0401CC0F30B001CE0A2681B
:10073000F2B301EBC10303EB0116431EB3FBF6F367
:100740005B1C43F480431B0549D092B301EBC1020B
:1007500002EB0111401EB0FBF1F0401CC0F30B0096
:1007600040F4804040F400402168CA694CF6FF73B1
:100770009A431043C861D4E9071001432068026816
:1007800022F0C00211430160D4E903010143206853
:10079000826848F2FF339A4311438160D4E905012E
:1007A00008432168CA6822F0FF021043C86001E0D4
:1007B0000EE016E02068016841F001010160256447
:1007C000202084F83D00256384F83E50002070BD51
:1007D00001EB4106431EB3FBF6F35B1CB3E70120BC
:1007E000C2E701EB4101401EB0FBF1F0401CC0F339
:1007F0000B00B7E7A086010080841E0000093D00C1
:1008000040420F00704770477047704770470000C4
:1008100010B586B00021009101910291039100680A
:100820001349884222D1134CA06940F00800A0610E
:10083000A069694600F008000490C02000901220D2
:100840000190032003900C48FFF706FDE06940F497
:100850000010E061E069002200F4001004901146ED
:100860001F2000F073F81F2000F062F806B010BDE2
:100870000054004000100240000C014070477047D7
:1008800002488168027811448160704700000020AE
:10089000074810B5016841F010010160032000F025
:1008A00075F8002000F006F800F024F8002010BDD4
:1008B0000020024070B50D4D04464FF47A7128783F
:1008C000B1FBF0F00A490968B1FBF0F000F0ECFA76
:1008D00048B9102C07D200222146501E00F036F8ED
:1008E00000206C6070BD012070BD00000000002081
:1008F0000C0000200C4808B5816941F001018161BC
:10090000816901F001010091C16941F08051C1612B
:10091000C06900F0805000900448416821F0E06117
:1009200041F00071416008BD00100240000001402C
:10093000002809DB00F01F020121914040098000DE
:1009400000F1E020C0F8001170470000F0B40E4B39
:100950001B680C46C3F30223C3F10705042D00D91D
:100960000425191D072901D2002300E0DB1E012602
:1009700006FA05F1491E214099409E40761E164018
:100980003143F0BC01F0D0BA0CED00E0064900F0B4
:10099000070208684FF6FF03184040EA0220034AA6
:1009A00010430860704700000CED00E00000FA05FD
:1009B0002DE9F0470F46050061D0434E306800F046
:1009C0000700B84209D2306820F007003843306091
:1009D000306800F00700B84251D128683B4C8107CD
:1009E00012D5400703D5606840F4E0606060287865
:1009F000000703D5606840F4605060606068A968D3
:100A000020F0F000084360602878C00728D06868AC
:100A1000012810D02168022810D0890700292EDA79
:100A2000616821F0030101436160FFF705FD804625
:100A300041F288390DE021688903EFE78901EDE78C
:100A4000FFF7FAFCA0EB0801494502D90320BDE8F5
:100A5000F0876068696800F00C00B0EB810FEFD19F
:100A6000306800F00700B8420BD9306820F007006A
:100A700038433060306800F00700B84201D00120F0
:100A8000E5E72878400705D56068E96820F4E0606C
:100A9000084360602878000706D56068296920F45B
:100AA000605040EAC100606000F038F86168084AB0
:100AB000C1F30311515CC84006490860064800684C
:100AC000FFF7F8FE0020C2E70020024000100240BD
:100AD000CC1F00080C000020040000200448054939
:100AE00000684968044AC1F30221515CC84070475C
:100AF0000C00002000100240DC1F000804480549DB
:100B000000684968044AC1F3C221515CC84070477B
:100B10000C00002000100240DC1F000812A185B06C
:100B20000FC98DE80F0014A0144A006804905168A2
:100B3000134801F00C03042B10D0082B0ED1C1F385
:100B40008343C9031DF803000AD5516804AAC1F301
:100B50004041515C0A4A5043B0FBF1F005B0704788
:100B600008494843FAE7000002030405060708099C
:100B70000A0B0C0D0E0F10100102000000100240B5
:100B800000127A0000093D002DE9F84F040070D0F2
:100B90002078C04DC00749D06868C0F381000128A3
:100BA00007D06868C0F38100022809D16868C003D3
:100BB00006D52868800339D560680028E7D035E07D
:100BC0006068B0F5803F0BD010B1B0F5A02F11D008
:100BD000286820F480302860286820F4802002E013
:100BE000286840F480302860606890B1FFF724FCEA
:100BF00006460AE0286840F480202860F0E700BF3D
:100C0000FFF71AFC801B642873D828688003F7D587
:100C10000CE0FFF711FC064605E000BFFFF70CFCF7
:100C2000801B6428F0D828688003F7D420789A4E77
:100C300080074FF001094FF0000839D5686810F0BF
:100C40000C0F07D06868C0F38100022809D16868DA
:100C5000C00306D42868800714D52069012808D16C
:100C600010E02069B0B1C6F80090FFF7E5FB074639
:100C700005E00AE1FFF7E0FBC01B0228C4D82868A2
:100C80008007F7D52868616920F0F80040EAC100C4
:100C900028600DE0C6F80080FFF7CEFB074604E0B1
:100CA000FFF7CAFBC01B022823D828688007F7D4A7
:100CB000207800072CD57948A169D9B1C0F80090F7
:100CC000FFF7BAFB074604E0FFF7B6FBC01B02289C
:100CD0000FD8686A8007F7D571484FF4FA51006859
:100CE000B0FBF1F0009000BF0098411E0091FAD2D5
:100CF0000EE080E0C0F80080FFF79EFB074604E0AE
:100D0000FFF79AFBC01B022875D8686A8007F7D4E2
:100D10002078400760D5E8690027C00008D4E8695A
:100D200040F08050E861E869012700F080500090B1
:100D30005C480168C90513D40168834641F4807199
:100D40000160FFF779FB824606E000BFFFF774FB06
:100D5000A0EB0A0064284ED8DBF80000C005F5D5EA
:100D6000E06801280AD008B1052813D0286A20F0CD
:100D700001002862286A20F0040002E0286A40F09E
:100D800001002862E06841F2883B98B1FFF754FB0C
:100D900082460BE0286A40F004002862EEE700BFBC
:100DA000FFF74AFBA0EB0A0159455AD8286A800789
:100DB000F6D50CE0FFF740FB824605E0FFF73CFB71
:100DC000A0EB0A0159454CD8286A8007F6D41FB118
:100DD000E86920F08050E861E06988B36968C1F390
:100DE0008101022944D00228C6F8608004D0FFF7B0
:100DF00023FB044638E034E0FFF71EFB074604E01F
:100E0000FFF71AFBC01B02282BD828688001F7D4F3
:100E1000206AB0F5803F05D16868A16820F40030F1
:100E200008436860D4E908010843696821F4741133
:100E300008436860C6F86090FFF7FEFA044606E0D3
:100E400025E000BFFFF7F8FA001B022809D8286840
:100E50008001F7D51BE000BFFFF7EEFA001B022868
:100E600002D90320BDE8F88F28688001F4D40EE091
:100E70000128F7D06868226A00F48031914204D1D9
:100E8000616A00F47010884201D00120EAE7002076
:100E9000E8E70000001002400000424280044242A5
:100EA0000C0000200070004010B5401EB0F1807FA3
:100EB00001D3012010BD4FF0E02460610F216017C5
:100EC00001F032F80020A06107202061002010BD51
:100ED00070477047F8B5026804461068D1685369D6
:100EE00010F00F0F4FF0000554D003F0010601F48D
:100EF000907737435FD0C20705D0CA0503D5226C6F
:100F000042F001022264420705D5DA0703D0226CC1
:100F100042F002022264820705D5DA0703D0226C70
:100F200042F004022264020707D501F02002324396
:100F300003D0226C42F008022264226C002A35D0D1
:100F4000800604D5880602D5204600F0F3FE20680E
:100F50004069216CC0F3801001F008010143204674
:100F600025D000F0CFFE2068416949061BD54169B4
:100F700021F040014161A06BA8B158494163A06BC9
:100F8000FFF71AF9002811D0A06B416B01B0BDE842
:100F9000F040084783060ED58B060CD52046BDE8E9
:100FA000F84000F0C7BE2046FFF793FFF8BDFFF7FB
:100FB00090FF2564F8BD266B2023012E52D1C60672
:100FC00050D5CE064ED51068506800905069400646
:100FD0002AD5A16B086840680004000CEAD0A68DF1
:100FE0008642E7D9E0858869202818D0D06820F4A7
:100FF0008070D0602068416921F001014161206862
:10100000416921F04001416184F83E302563206848
:10101000C16821F01001C160A06BFFF7AAF8A08D94
:10102000E18D401A81B219E0A08DE18D401A81B2A4
:10103000E08D0028BED00029BCD0D06820F490708C
:10104000D0602068426922F00102426184F83E309B
:1010500025632068C26822F01002C2602046FFF7B4
:1010600037FFF8BD05062BD50D0629D594F83D00B0
:101070002128F6D1A068B0F5805F01D12069B0B118
:10108000206A411C2162216800784860E08C401E83
:101090000004000CE084E4D12068C16821F08001E4
:1010A000C1602068C16841F04001C160F8BD206A9C
:1010B0000088C0F308005060206A801C2062E5E7C9
:1010C0004006F3D54806F1D5D168204621F040010D
:1010D000D16084F83D3000F0D0F8F8BDF51C000870
:1010E00070B5040004D094F83D00002510B106E06E
:1010F000012070BD84F83C50204600F023F82420E5
:1011000084F83D002068C16821F40051C160204688
:1011100000F06CFE2068016921F4904101612068B3
:10112000416921F02A0141612068C16841F4005100
:10113000C1602564202084F83D0084F83E00002032
:1011400070BD000030B585B0002400940194029475
:1011500003940068184988422CD11848816941F4E9
:1011600080418161816901F480410491816941F08C
:10117000040181618069124D00F0040004904FF475
:1011800000700090022001900320039069462846D9
:10119000FFF762F82815CDE9000469462846029455
:1011A000FFF75AF8002211462520FFF7CFFB252034
:1011B000FFF7BEFB05B030BD003801400010024013
:1011C00000080140704700002DE9F843044690F8FC
:1011D0003D001F4616460D4620284CD1C5B1BEB174
:1011E00094F83C00012846D0012084F83C004FF0E0
:1011F0000008C4F84080212084F83D00FFF71CF966
:10120000A6848146E684A068B0F5805F03D004E040
:101210000120BDE8F883206928B12E465FF0000563
:1012200084F83C800EE00026FAE78021204600F09A
:1012300039FEA0B9AEB116F8010B21684860E08C08
:10124000401EE084E08C4B464FF0000200970028DF
:10125000EBD14FF04001204600F024FE30B10320D6
:10126000D7E735F8020BC0F30800E6E7202084F842
:101270003D000020CDE70220CBE77047FEE70000ED
:101280000148FFF7E1B800001400002038B5406ABB
:10129000002190F83D202B4B46F2A8141B68B3FBAD
:1012A000F4F3C3EBC30303EB830300933BB15B1E77
:1012B000009303681B689B0505D5009BF6E7036C4C
:1012C00043F020030364436B03B19962836B03B162
:1012D000996203681C6824F480641C604185436B38
:1012E00003B15963836B03B1596303681C6824F02D
:1012F00001041C6090F83D402023602C0BD0282472
:1013000034EA02020FD080F83D3080F83E1000BF72
:10131000FFF7B2F938BD80F83D3080F83E10016427
:10132000FFF790F838BD0268136843F001031360BB
:101330000268136843F480631360016380F83D40E2
:10134000E6E700000C00002070B5044690F83D0070
:1013500094F83E10102901D0402906D1222804D14A
:1013600021680A6822F400620A60282131EA00023A
:101370004FF000054FF0200626D021684968090586
:1013800005D4602803D084F83D6084F83E5025637E
:1013900020684168090537D5416821F40061416042
:1013A000606B3D4990F82120012A11D04163606BA8
:1013B000FEF702FF38B32068016821F001010160E7
:1013C00084F83D60606B1CE0256384F83D10DFE726
:1013D000A06B4163A06BFEF7EFFEA0B120684169EE
:1013E000C943490605D40069616A0870606A401CF7
:1013F00060622068016821F00101016084F83D60AD
:10140000A06B416B884710E094F83D10602910D024
:101410004169C943490605D40069616A0870606A78
:10142000401C60622046FFF727F9206CC1071CD1E1
:1014300015E084F83D6025644169C943490605D437
:101440000069616A0870606A401C60622068016817
:1014500021F0010101602046FEF7F4FFE5E7810776
:1014600003D4410701D4000704D52068416821F462
:10147000E061416094F83D00216C49070BD52828B4
:1014800009D10648E062256384F83D6084F83E5047
:101490002046FFF7B7F970BD8D1200080000FFFF6E
:1014A00010B5C26A438D0168042B06D0438D032B0F
:1014B00008D0438D022B1DD012E04A6822F48062CE
:1014C0004A600CE04B6823F480634B60042A06D02A
:1014D000022A04D001680A6822F480620A60016866
:1014E0000969426A1170416A491C4162418D491E75
:1014F000418510BD012A30D0102A2ED0042A30D0C8
:10150000022A2ED00A6842F400720A600168096952
:10151000426A1170416A491C4162428D521E4285E5
:10152000026812690A70416A491C4162418D491E74
:10153000418501684A6822F440724A60202180F89F
:101540003D1090F83E200021402A80F83E100CD03B
:1015500012210163FFF757F910BD0A6822F4806277
:10156000D3E70A6842F48062CFE70163FFF74DF9E1
:1015700010BD000038B590F83D10222914D1418DDE
:10158000032912D901680969426A1170416A491C2C
:101590004162418D491E4185418D032904D1006876
:1015A000416821F48061416038BDC26A022AFBD0E3
:1015B000012901D00029F7D1274946F2A8130022BA
:1015C0000968B1FBF3F101EB81010091016820236F
:1015D000009C641E009422D00C68A405F8D40C680A
:1015E00024F480640C6001684C6824F4E0644C606E
:1015F00001680969446A2170416A491C4162418D50
:10160000491E418580F83D3090F83E1080F83E201C
:1016100040291DD012210163FFF7F5F838BD046C95
:1016200044F0200404644C6824F4E0644C600168D5
:101630000969446A2170416A491C4162418D491E11
:10164000418580F83D3080F83E20FFF715F838BD21
:101650000263FFF7DAF838BD0C00002010B5C26A4B
:1016600090F83D1021290BD1418D51B1416A02689A
:1016700009781161416A491C4162418D491E4185C9
:1016800010BD20230021082A13D0202A11D012F5E2
:10169000803F0ED00268546824F4E0645460112244
:1016A000026380F83E1080F83D3000BFFFF7ACF8D1
:1016B00010BD0268546824F4E06454600268146841
:1016C00044F400741460016380F83D3090F83E20CB
:1016D00080F83E10402AE9D1FFF798F810BD0000CD
:1016E00010B590F83D1090F83E30C26A048DB4B148
:1016F000212903D0402B11D122290FD1418DE1B3F3
:1017000090F83E10402942D0416A02680978116180
:10171000416A491C4162418D491E418510BD212904
:10172000E8D120230021082A13D0202A11D012F555
:10173000803F0ED00268546824F4E06454601122A3
:10174000026380F83E1080F83D3000BFFFF75CF880
:1017500010BD0268546824F4E064546002681468A0
:1017600044F400741460016380F83D3090F83E202A
:1017700080F83E10402AE9D100E002E0FFF746F889
:1017800010BD0068416821F48061416010BDBDE872
:10179000104000F0F3B8000078B590F83E50C26AEF
:1017A000046B90F83D6000230168222E73D1066D12
:1017B0000EB9402D6FD0056D1DB90569B5F5404FC7
:1017C0001BD0458D95B3468D484D012E20D0448DBC
:1017D000022C4DD00C6844F480640C6001684C68A5
:1017E000240579D5AA4273D0012A71D0082A6FD076
:1017F000102A6DD0202A6BD06EE04A698A69009267
:101800000A6842F480720A60016D491C016578BD66
:10181000AA4214D10A6822F480620A6001684A6808
:10182000120504D50A6822F4806217E0FFE74A69CE
:101830008A6900920A6842F400720A6050E0082A3D
:1018400010D0202A0ED0122C0AD0042A03D0022A4B
:1018500001D0102AE6D10A6842F480620A603BE0B7
:10186000012ADFD00A6822F480620A600168DEE79C
:10187000042A11D0022A0FD0102A0DD00C6844F48B
:1018800000640C6001684C698C6900940C6824F455
:1018900080640C6008E025E00C6844F480640C600F
:1018A00001684C698969009101684C68240517D565
:1018B000AA4207D0012A05D0082A03D0102A01D055
:1018C000202A0DD14A6842F480524A6008E0FFE7BE
:1018D0004A6842F480524A6001684A698969009105
:1018E000036578BD48698869009078BD0000FFFFF6
:1018F00090F83E10402910D00169B1F5804F19D001
:10190000016DA9B3016D012910D1416C5FF0F102A5
:1019100001F4407142EAD11106E0016D0029416CE9
:1019200005D0C9B241F0010100680161704701F0C2
:10193000FE01F9E790F83D102129416C09D0C9B2A8
:1019400041F0010102681161416B29B1896A49B90D
:1019500002E001F0FE01F5E7816B0029E6D0896A1B
:101960000029E3D00068416841F40061416070479C
:10197000FFE7416CF02201F44071CBE710B590F81D
:101980003D10026D22B3026D012A2FD0026D022A92
:101990001DD122292FD0428D0AB1212933D0428D69
:1019A000002A14D1212912D101684A6822F4E06288
:1019B0004A6001680A6842F400720A60002101630B
:1019C000202280F83D2080F83E10FEF71FFF10BD5A
:1019D000C16C0129816C02D0C1F3072108E00268C3
:1019E000C9B21161016D891C016510BD816CC9B25C
:1019F0000268116104E001680A6842F480720A60BA
:101A0000016D491CF0E7416A026809781161416A79
:101A1000491C4162418D491E418510BD38B50C46B7
:101A200090F83D2000212825954302680B4605D0FB
:101A300051699169009180F83C3038BD556825F4B2
:101A400080655560E243540700D50121120601D597
:101A5000828900E0028B80F83C3092B2FEF7F3FC02
:101A600038BD0000F8B590F83D6004460068416854
:101A700021F4E0614160206800254169009101681E
:101A800041F0010101602068016821F4806101607A
:101A900020684168090520D5474F222E48D02A2EBC
:101AA00046D0616B096849686185618D19B1216C07
:101AB00041F004012164416821F400614160606BE0
:101AC000FEF7C6FB012808D0606B4763606BFEF72A
:101AD00073FB10B1606B416B8847608D08B3206861
:101AE0004169C943490708D40069616A0870606A9E
:101AF000401C6062608D401E608520684169C9435A
:101B0000490608D40069616A0870606A401C606216
:101B1000608D401E6085608D18B1206C40F004001F
:101B20002064206C00B32046BDE8F840FFF70CBCF1
:101B3000A16B096849686185618D19B1216C41F01B
:101B400004012164416821F400614160A06BFEF74B
:101B50007FFB0128C1D0A06B4763A06BFEF72CFB75
:101B60000028BAD0A06BB6E72A2E06D1256328201C
:101B700084F83D002046FEF781FE94F83D102020B9
:101B800028290DD0216B222901D0222E07D12563CF
:101B900084F83D0084F83E502046FEF76FFEF8BD05
:101BA0000649E162256384F83D0084F83E502046F2
:101BB000FEF728FEF8BD00008D1200080000FFFFB0
:101BC00000B585B0002003901248816941F02001E2
:101BD0008161816901F020010491816941F0040172
:101BE0008161816901F004010491816941F008017A
:101BF00081618069694600F008000490202000900F
:101C000005480190022002900448FEF725FB05B02C
:101C100000BD00000010024000001110000C014047
:101C20000D4810B50B4901600C49416000214FF48B
:101C300080428160C0E9031241618161C16101623A
:101C4000FEF71CFD002803D0BDE81040FEF790BA57
:101C500010BD00000054004014000020A0860100C8
:101C60000C4810B50A4901604FF4E1314160002190
:101C700081600C22C160C0E904128161C161FFF77B
:101C80002FFA002803D0BDE81040FEF771BA10BD4E
:101C90000038014068000020FEE770477047704739
:101CA000FEF7EEBD30B58FB028216846FEF741FA49
:101CB00014210AA8FEF73DFA01210804CDE900101D
:101CC0000024029402250491CDE907504FF4E0105E
:101CD00009906846FEF758FF0F20CDE90A05680213
:101CE000CDE90C4002210AA80E94FEF761FE0FB068
:101CF00030BD704710B5406A0021C185C184FFF72F
:101D0000E8F810BD0168CA6822F49072CA600168E0
:101D10004A6922F001024A61016B012904D101687C
:101D2000CA6822F01002CA60202180F83E1000210B
:101D30000163704708B590F83E10222901D00220B7
:101D400008BD82684FF480539A4201D1016921B1E4
:101D5000816A9A421BD04AB10AE00268816A5268DD
:101D6000C2F308020A80816A891C08E0026972B124
:101D70000268526802F07F020A70816A491C81621F
:101D8000C18D491E0904090CC18503D019E0026800
:101D90005268F1E70168CA6822F02002CA6001684F
:101DA000CA6822F48072CA6001684A6922F001029E
:101DB0004A61202180F83E10016B012903D0FFF712
:101DC00001FA002008BD002101630168CA6822F001
:101DD0001002CA6001680A68D20602D50A6849681A
:101DE0000091818DFFF774F8EBE7000070B50446B1
:101DF00000680169E26821F44051114301612169E1
:101E0000A0680843616908432168CA6841F20C630D
:101E10009A430243CA6020684169A26921F4407173
:101E2000114341611E492068884202D1FEF766FED7
:101E300001E0FEF753FE00EBC00101EB0012606809
:101E400064218000B2FBF0F3B3FBF1F36FF01806EE
:101E50007343B2FBF0F5B2FBF0F605EB83053223DA
:101E600003EB0515B5FBF1F5B6FBF1F605F0F00552
:101E700005EB0615B2FBF0F6B2FBF0F0B0FBF1F0AB
:101E80006FF01802504306EB800003EB0010B0FB2C
:101E9000F1F0216800F00F002844886070BD000058
:101EA000003801402DE9F041984617460E46044699
:101EB000069D1DE0681C1BD02DB1FEF7BDFAA0EBFE
:101EC0000800A84214D92068C16821F4D071C1600B
:101ED0002068416921F001014161202084F83D0022
:101EE00084F83E00002084F83C000320BDE8F08127
:101EF0002068006836EA000004D00020B842D9D03B
:101F00000020F3E70120F9E70148FEF7E3BF0000F6
:101F100068000020FEE70000014A024900F023B8F3
:101F2000891F0008100000200907090E002804DBA3
:101F300000F1E02080F80014704700F00F0000F17D
:101F4000E02080F8141D704702E008C8121F08C185
:101F5000002AFAD170477047002001E001C1121F2A
:101F6000002AFBD170472DE9F04116460F46044682
:101F7000002503E03946B047641C6D1C207800281A
:101F8000F8D12846BDE8F08113B5FF230122694648
:101F90000248FFF719F900981CBD000068000020F6
:101FA000FEF776FCFFF77EFEFFF70AFEFFF758FE0E
:101FB000FFF736FE01A0FFF7AFFFFEE75374617233
:101FC0007420696E69740D0A0000000000000000B2
:101FD00000000000010203040607080900000000D9
:101FE0000102030404200008000000201400000087
:101FF000481F000818200008140000209C0400005E
:10200000581F000801000000100000000000000040
:082010000024F40000000000B0
:04000005080000ED02
:00000001FF
