:020000040800F2
:10000000100700200101000833240008DD1C00084F
:1000100031240008BF0A0008C129000800000000C0
:100020000000000000000000000000003126000871
:10003000C10A000800000000352400084D27000810
:100040001B0100081B0100081B0100081B01000820
:100050001B0100081B0100081B0100081B01000810
:100060001B0100081B010008C30A00081B0100084F
:100070001B0100081B0100081B0100081B010008F0
:100080001B0100081B0100081B0100081B010008E0
:100090001B0100081B0100081B010008C90A000819
:1000A0001B0100081B0100081B0100081B010008C0
:1000B0001B0100081B0100081B0100081B010008B0
:1000C0001B0100081B0100081B0100081B010008A0
:1000D0001B010008B52900081B0100081B010008CE
:1000E0001B0100081B0100081B010008DFF80CD0F1
:1000F00000F04EFC00480047313C0008100700208B
:100100000648804706480047FEE7FEE7FEE7FEE7B1
:10011000FEE7FEE7FEE7FEE7FEE7FEE79F270008B3
:10012000ED000008202A04DB203A21FA02F0002129
:10013000704721FA02F3D040C2F1200291400843F7
:100140001946704740EA01039B0703D009E008C93C
:10015000121F08C0042AFAD203E011F8013B00F88C
:10016000013B521EF9D27047D2B201E000F8012BD8
:10017000491EFBD270470022F6E710B513460A4627
:1001800004461946FFF7F0FF204610BDF0B480EAA0
:100190000102D40F4200B2EB410F02D202460846E0
:1001A00011464A0042D0C30DDDB2C1F3C752AD1AA9
:1001B000202D35DAC1F3160141F4000204B1524298
:1001C000C5F1200602FA06F12A411044B3EBD05FD4
:1001D00023D0C4B1012DA0EBC35009DCF0BC4FF01B
:1001E000004202EAC352DBB200F5000000F0FDBAA3
:1001F000400000F1807000EBC350A0F1807040EA35
:10020000D170490009E0490841EAC071A0EBC35030
:1002100000F50000400800EBC350F0BC00F0DCBA71
:100220006142012202EB4101001BF6E7F0BC70477E
:1002300081F00041AAE780F00040A7E780EA0102D0
:1002400010B502F00043400022D04A001FD0010E3A
:1002500001EB1261C0F35600C2F3560240F40000F5
:1002600042F40002A0FB022000047F39140400D0F5
:10027000401C50EA124001D44000491EC2B20C0694
:1002800004EBD010401C4008802A02D003E000207C
:1002900010BD20F00100002900DA0020184310BD35
:1002A00030B480EA010202F0004530F0004221F053
:1002B000004013D090B1C30DD40DC2F31601C0F3AA
:1002C0001600E41A41F4000140F400027D3491422A
:1002D00001D3641C00E04900002C02DA30BC00208D
:1002E00070474FF400000023914201D3891A034361
:1002F00040084FEA4101F7D151B1914202D14FF08C
:10030000004105E002D24FF0010101E06FF0010170
:1003100003EBC450284430BC00F05EBA420005D064
:10032000C0F3C7525242914201DC0020704700EBFB
:10033000C15070472DE9FE4F804681EA0300C00F8F
:100340000C46009021F0004123F00045B8EB02007C
:10035000A94105D24046214690461C460B4602461E
:1003600023F00040104347D0270DC7F30A00C3F322
:100370000A510290401A019040286BDAC3F313002F
:1003800040F4801B0098924620B10023D2EB030A70
:1003900063EB0B0B01985946C0F14002504600F048
:1003A000FAF906460D4650465946019A00F002FAFF
:1003B00010EB08006141002487EA115284EAE773D8
:1003C0001A4340D0009A62B3019A012A4FEA0752B9
:1003D00015DC001B61EB02014FF0004202EA0752FC
:1003E000CDE90042001C41F5801132462B4600F059
:1003F00039FA03B0BDE8F08F40462146F9E7001B0B
:1004000061EB0201001C41F5801300185B412018CC
:10041000A2F5001747EB030140EAD570B6196D410C
:1004200011E06D084FEA360645EAC0754FEA0752FB
:10043000001B61EB0201001C41F5801149084FEAE5
:1004400030000019514132462B4603B0BDE8F04F51
:1004500000F0F9B90098012240000023D0EB02021D
:1004600063EBE073009821464FEAE074B8EB0000BC
:1004700061EB0401E9E783F000435BE781F00041B1
:1004800058E72DE9FE4F81EA030404F0004421F00F
:10049000004100944FF0000B23F0004350EA0104A8
:1004A0005ED052EA03045BD0C3F30A54C1F30A5589
:1004B0002C44A4F2F3340194A0FB0254C1F31301C1
:1004C00041F48011C3F3130343F4801301FB02448E
:1004D00000FB034E840A970A44EA815447EA835793
:1004E000A4FB076802958D0A05FB07854FEA932C4C
:1004F00004FB0C542705029D4FEA065847EA1637BD
:10050000B5EB08056EEB070C870E920E47EA8117D4
:1005100042EA8312A7FB0201B6EB0B0164EB000475
:100520002B0D43EA0C335E1844EB1C50DA4651465F
:10053000E7FB0201C5F313044FEA0B3343EA1453FC
:100540004FEA0432019C43EA0603A4F10C0402942E
:10055000009CCDE900B400F085F903B0BDE8F08F50
:1005600000200146F9E72DE9F04D81EA030404F08B
:10057000004B21F0004514464FF0000A23F00041E3
:1005800050EA050220D054EA01021DD0C5F30A57F3
:100590000246C5F31303C1F31300C1F30A5640F436
:1005A000801543F48013A7EB0608101BD64608F20B
:1005B000FD3873EB050002D308F1010801E0921841
:1005C0005B41B8F1000F03DA00200146BDE8F08D71
:1005D00000204FF48011064684460EE0171B73EB93
:1005E000050705D3121B63EB050306434CEA010C18
:1005F00049084FEA300092185B4150EA0107EDD1FB
:1006000052EA030012D082EA040083EA050108439B
:1006100005D0101BAB4106D20122002306E00022C8
:100620004FF0004302E06FF0010253101AEB060096
:100630004CEB085110EB0A0041EB0B01BDE8F04D0B
:1006400000F001B9C10F80EAE0700844CA079623A0
:10065000002100F0CAB80EB5C10F80EAE07008446E
:10066000CA07002140F233438DE80E000A460B46CC
:1006700000F0F8F803B000BD00F0004220F00040A8
:10068000C10DC0F3160040F400007F2901DA0020FC
:100690007047962903DCC1F19601C84001E0963904
:1006A0008840002AF4D04042704700F0004230F009
:1006B00000400AD0C10D01F56071C0F3160042EA96
:1006C0000151C2084007114370470020014670479E
:1006D00001F0004330B421F0004150EA010206D09D
:1006E0000A0DA2F56072C1F31301002A02DC30BCCE
:1006F00000207047440F44EAC104C100E01830BC38
:1007000000EBC25000F068B830B50B46014600203F
:100710002022012409E021FA02F59D4205D303FAC3
:1007200002F5491B04FA02F52844151EA2F1010244
:10073000F1DC30BD2DE9F05F0546002092469B4676
:1007400088460646814640241BE0284641464746E7
:100750002246FFF7E7FC53465A46C01A914110D390
:1007600011461846224600F016F82D1A67EB0108CC
:100770004F4622460120002100F00DF817EB00093A
:100780004E41201EA4F10104DFDC484631462A46D2
:100790004346BDE8F09F202A04DB203A00FA02F12C
:1007A000002070479140C2F1200320FA03F319435F
:1007B00090407047202A06DBCB17203A41FA02F01E
:1007C00043EAE07306E041FA02F3D040C2F12002AE
:1007D00091400843194670470029A8BF7047401C44
:1007E000490008BF20F00100704710B4B0FA80FC47
:1007F00000FA0CF050EA010404BF10BC704749B184
:10080000CCF1200421FA04F411FA0CF118BF0121F3
:1008100021430843A3EB0C01CB1D4FEA00614FEAD3
:10082000102042BF002010BC704700EBC3501044A2
:100830000029A4BF10BC7047401C490008BF20F02D
:10084000010010BC704710B5141E73F1000408DAE3
:10085000401C41F1000192185B411A4301D120F084
:10086000010010BD2DE9F04D92469B4611B1B1FA41
:1008700081F202E0B0FA80F220329046FFF78BFF5F
:1008800004460F4640EA0A0041EA0B0153465A4625
:10089000084313D0114653EA010019D0C8F14002B1
:1008A0005046FFF73FFC05460E4650465946424625
:1008B000FFF771FF084305D0012004E020463946C8
:1008C000BDE8F08D0020054346EAE0762C4337432F
:1008D0000A986305E40AA0EB08000022FD0A44EA36
:1008E00047540A3002D500200146E9E701051019F6
:1008F0006941DDE9084500196941BDE8F04DA2E70D
:1009000070B521F0004303430CD0C1F30A55002415
:10091000D5EB040564EB0403D617AD1AB34102DB33
:100920000020014670BD201841EB025170BDC1F39B
:100930000A52C1F3130140F2FF3341F480119A428D
:1009400002DA00200146704740F233439A42A2F295
:10095000334202DC5242FFF7E5BBFFF71CBF000049
:1009600030B5041E71F1000404DB4FF00044404236
:1009700064EB0101141E73F1000405DB1C464FF00B
:100980000043524263EB0403994208BF904230BDDA
:10099000064C074D06E0E06840F0010394E80700CC
:1009A00098471034AC42F6D3FFF7A4FB304300085D
:1009B000504300082DE9F04D00231A461B1A8A41C6
:1009C00003DB00200146BDE8F08DC1F30A52C1F3FC
:1009D000130141F480154FF0000BD10702D100182C
:1009E0006D41521E0027044640F2FF11384601EBCC
:1009F000620A3E468046024600204FF48011FFF70F
:100A000091FBC2197141BB1846EB0100B4EB030C1A
:100A100075EB000C04D3E41A65EB000517460E468F
:100A2000241908F101006D4180463428E3DDF919ED
:100A300046EB0600091BA84103D24FF0FF321346D4
:100A400001E0002213461BEB070046EB0A51BDE80C
:100A5000F04DFFF7F8BE0000044910B5C968FFF774
:100A6000EDFBBDE810400249FFF71ABCB0000020C2
:100A700000007A44094910B58968FFF7DFFBFFF7EA
:100A800014FE074A074BFFF7FCFC0022064BFFF75A
:100A90006AFDBDE81040FFF71BBE0000B00000205B
:100AA0006F1283C0CA2109400080664010B50C4611
:100AB000FFF7C8FD2146BDE81040FFF7BFBBFEE7CA
:100AC0007047102000F08EB8202000F08BB87047DF
:100AD00010B590F821100022022905D0042181636D
:100AE00080F82020012010BD01680B6823F00E0360
:100AF0000B6001680B6823F001030B6090F8403035
:100B0000C46B012101FA03F3636080F8211080F8BF
:100B10002020104610BD000010B590F821100024D0
:100B2000022903D00421816301243DE001680A68A1
:100B300022F00E020A6001680A6822F001020A60CF
:100B40001A4A0168914201D1012121E0174A143269
:100B5000914201D110211BE0144A2832914201D167
:100B6000891515E0114A3C32914201D189140FE0F8
:100B70000E4A5032914202D14FF4803108E00B4AC4
:100B80006432914202D14FF4801101E04FF0807144
:100B9000064A083A5160012180F82110002180F8AE
:100BA0002010416B01B18847204610BD080002406B
:100BB00070B5044600F018F90546601C02D00448E0
:100BC0000078044400F010F9401BA042FAD370BD35
:100BD000980000200249012008702D2003F0BCB9C4
:100BE00084000020044910B50A68024202D008605F
:100BF000FFF7F0FF10BD0000140401402DE9F84F8D
:100C0000DFF8B891002409F1040A0AF1040B234625
:100C10000F270BF1040EC9E00125A5402A40AA4286
:100C20007DD1674ED1F804C0ACEB0608B44532D094
:100C300014DCBCF1030F3AD009DCBCF1000F2AD060
:100C4000BCF1010F1CD0BCF1020F31D11DE0BCF191
:100C5000110F17D0BCF1120F2AD119E0B8F5881F77
:100C600019D006DCB8F5803F15D0B8F5801F1FD12C
:100C700011E0B8F5001F0ED0B8F5041F18D10AE036
:100C8000CB6815E0CB681B1D12E0CB6808330FE082
:100C9000CB680C330CE08B682BB1012B4FF00803B1
:100CA00003D0456104E0042302E0056100E0002375
:100CB000FF2A01D8064601E000F104064FEA840548
:100CC00001D9A5F12005D6F8008007FA05FC28EA2D
:100CD0000C0803FA05F548EA0508C6F800804D68D7
:100CE000ED0062D5374DAE6946F00106AE61AD69E3
:100CF00024F0030605F001050095334D06EB050CC5
:100D0000DCF80850A607360F07FA06F825EA0805AA
:100D1000DFF8B880404503D14FF0000817E044E009
:100D2000DFF8AC80404502D14FF001080FE0DFF85A
:100D3000A480404502D14FF0020808E0DFF8988017
:100D4000404502D14FF0030801E04FF0040808FAD3
:100D500006F848EA0508CCF808804D68D9F8006024
:100D6000ED034D4601D5164300E096432E604D68D5
:100D7000DAF80060AD03554601D5164300E096430E
:100D80002E604D68DBF80060ED025D4601D516432C
:100D900000E096432E604D68DEF80060AD027546B7
:100DA00001D5164300E096432E60641C0D682A4668
:100DB000E5407FF431AFBDE8F88F0000000401404A
:100DC0000000111000100240000001400008014026
:100DD000000C014000100140001401400AB1016103
:100DE00070470904FBE70000014880687047000075
:100DF0009800002070B5040025D094F83D0000252F
:100E000020B984F83C50204600F0B8F8242084F83B
:100E10003D002068016821F001010160206801683F
:100E200041F4004101602068016821F40041016043
:100E300000F000FA4D4A6168914201D84C4900E047
:100E40004C49884201D2012070BD4B492368B0FB58
:100E5000F1F15E6826F03F060E435E6063689342E0
:100E600006D94FF4967359434FF47A73B1FBF3F1FB
:100E70002368491C1E6A26F03F06314319626168E7
:100E8000914210D84900401EB0FBF1F2521CC2F34F
:100E90000B02042A01D2042022E0B0FBF1F0401C36
:100EA000C0F30B001CE0A268F2B301EBC10303EB3B
:100EB0000116431EB3FBF6F35B1C43F480431B0592
:100EC00049D092B301EBC10202EB0111401EB0FB0D
:100ED000F1F0401CC0F30B0040F4804040F40040AF
:100EE0002168CA694CF6FF739A431043C861D4E97C
:100EF000071001432068026822F0C002114301601C
:100F0000D4E9030101432068826848F2FF339A4321
:100F100011438160D4E9050108432168CA6822F0C1
:100F2000FF021043C86001E00EE016E0206801688F
:100F300041F0010101602564202084F83D00256313
:100F400084F83E50002070BD01EB4106431EB3FB08
:100F5000F6F35B1CB3E70120C2E701EB4101401E41
:100F6000B0FBF1F0401CC0F30B00B7E7A086010016
:100F700080841E0000093D0040420F0010B586B07D
:100F80000021009101910291039100680F4988426C
:100F90001AD10F4CA06940F00800A061A069694611
:100FA00000F008000490C02000901220019003205F
:100FB00003900848FFF722FEE06940F40010E0616A
:100FC000E06900F40010049006B010BD0054004029
:100FD00000100240000C0140024881680278114470
:100FE0008160704798000020074810B5016841F003
:100FF00010010160032000F075F8002000F006F8F1
:1010000000F024F8002010BD0020024070B50D4D06
:1010100004464FF47A712878B1FBF0F00A49096868
:10102000B1FBF0F000F06FFC48B9102C07D20022A1
:101030002146501E00F036F800206C6070BD012083
:1010400070BD000098000020A40000200C4808B5E6
:10105000816941F001018161816901F00101009123
:10106000C16941F08051C161C06900F080500090B9
:101070000448416821F0E06141F00071416008BD21
:101080000010024000000140002809DB00F01F02B0
:10109000012191404009800000F1E020C0F80011DA
:1010A00070470000F0B40E4B1B680C46C3F30223DC
:1010B000C3F10705042D00D90425191D072901D204
:1010C000002300E0DB1E012606FA05F1491E21403F
:1010D00099409E40761E16403143F0BC01F096BC0C
:1010E0000CED00E0064900F0070208684FF6FF0328
:1010F000184040EA0220034A10430860704700008D
:101100000CED00E00000FA052DE9F0470F46050060
:1011100061D0434E306800F00700B84209D2306811
:1011200020F0070038433060306800F00700B84214
:1011300051D128683B4C810712D5400703D5606820
:1011400040F4E06060602878000703D5606840F4F0
:10115000605060606068A96820F0F000084360603B
:101160002878C00728D06868012810D02168022894
:1011700010D0890700292EDA616821F003010143AC
:101180006160FFF731FE804641F288390DE0216849
:101190008903EFE78901EDE7FFF726FEA0EB0801E1
:1011A000494502D90320BDE8F0876068696800F00E
:1011B0000C00B0EB810FEFD1306800F00700B842AF
:1011C0000BD9306820F0070038433060306800F0F9
:1011D0000700B84201D00120E5E72878400705D58F
:1011E0006068E96820F4E0600843606028780007E0
:1011F00006D56068296920F4605040EAC10060604B
:1012000000F038F86168084AC1F30311515CC84026
:101210000649086006480068FFF7F8FE0020C2E7AC
:10122000002002400010024024420008A4000020D8
:101230009C0000200448054900684968044AC1F33D
:101240000221515CC8407047A400002000100240F9
:10125000344200080448054900684968044AC1F35B
:10126000C221515CC8407047A40000200010024019
:101270003442000812A185B00FC98DE80F0014A0F8
:10128000144A006804905168134801F00C03042BC1
:1012900010D0082B0ED1C1F38343C9031DF80300FE
:1012A0000AD5516804AAC1F34041515C0A4A50432F
:1012B000B0FBF1F005B0704708494843FAE7000079
:1012C00002030405060708090A0B0C0D0E0F101087
:1012D000010200000010024000127A0000093D00E7
:1012E0002DE9F84F040070D02078C04DC00749D0D8
:1012F0006868C0F38100012807D06868C0F38100E6
:10130000022809D16868C00306D52868800339D54A
:1013100060680028E7D035E06068B0F5803F0BD00A
:1013200010B1B0F5A02F11D0286820F480302860CB
:10133000286820F4802002E0286840F4803028608B
:10134000606890B1FFF750FD06460AE0286840F457
:1013500080202860F0E700BFFFF746FD801B64286F
:1013600073D828688003F7D50CE0FFF73DFD0646EB
:1013700005E000BFFFF738FD801B6428F0D828681F
:101380008003F7D420789A4E80074FF001094FF080
:10139000000839D5686810F00C0F07D06868C0F3F2
:1013A0008100022809D16868C00306D42868800734
:1013B00014D52069012808D110E02069B0B1C6F821
:1013C0000090FFF711FD074605E00AE1FFF70CFD6D
:1013D000C01B0228C4D828688007F7D5286861692F
:1013E00020F0F80040EAC10028600DE0C6F8008057
:1013F000FFF7FAFC074604E0FFF7F6FCC01B0228E3
:1014000023D828688007F7D4207800072CD579489E
:10141000A169D9B1C0F80090FFF7E6FC074604E0E7
:10142000FFF7E2FCC01B02280FD8686A8007F7D5D7
:1014300071484FF4FA510068B0FBF1F0009000BF22
:101440000098411E0091FAD20EE080E0C0F80080C2
:10145000FFF7CAFC074604E0FFF7C6FCC01B0228E2
:1014600075D8686A8007F7D42078400760D5E869A6
:101470000027C00008D4E86940F08050E861E869BE
:10148000012700F0805000905C480168C90513D422
:101490000168834641F480710160FFF7A5FC824634
:1014A00006E000BFFFF7A0FCA0EB0A0064284ED8BE
:1014B000DBF80000C005F5D5E06801280AD008B1C6
:1014C000052813D0286A20F001002862286A20F03D
:1014D000040002E0286A40F001002862E06841F25E
:1014E000883B98B1FFF780FC82460BE0286A40F009
:1014F00004002862EEE700BFFFF776FCA0EB0A01CC
:1015000059455AD8286A8007F6D50CE0FFF76CFCDD
:10151000824605E0FFF768FCA0EB0A0159454CD86C
:10152000286A8007F6D41FB1E86920F08050E8618E
:10153000E06988B36968C1F38101022944D00228B7
:10154000C6F8608004D0FFF74FFC044638E034E072
:10155000FFF74AFC074604E0FFF746FCC01B0228E1
:101560002BD828688001F7D4206AB0F5803F05D1D8
:101570006868A16820F4003008436860D4E9080175
:101580000843696821F4741108436860C6F86090E4
:10159000FFF72AFC044606E025E000BFFFF724FC25
:1015A000001B022809D828688001F7D51BE000BF7E
:1015B000FFF71AFC001B022802D90320BDE8F88FB0
:1015C00028688001F4D40EE00128F7D06868226A08
:1015D00000F48031914204D1616A00F470108842B5
:1015E00001D00120EAE70020E8E7000000100240F7
:1015F0000000424280044242A400002000700040EB
:1016000070B5040009D0606A002540B125616561AC
:10161000A56294F8510040B10CE0012070BD6068F3
:10162000B0F5827FF4D0E561F2E784F850502046AF
:1016300000F040F8022084F851002068016821F091
:1016400040010160A088218900F4827001F4044106
:101650000843A18901F400610843217C01F00201E3
:101660000843217D01F001010843218B01F4007141
:101670000843217F01F03801084394F8201001F05D
:1016800080010843218D01F400510843216808605E
:10169000A069042101EA1040216848602068C169FE
:1016A00021F40061C1616565012084F851000020CA
:1016B00070BD000030B585B0002400940194029400
:1016C000039400681449884223D11448816941F485
:1016D00080518161816901F480510491816941F0F7
:1016E0000401816180690E4D00F004000490A02087
:1016F0000090022001900320039069462846FFF7DE
:101700007DFA4020CDE90004694628460294FFF79F
:1017100075FA05B030BD00000030014000100240F5
:10172000000801402DE9F84F044690F850000027CA
:101730000A9E1D4692468B464FF0010901280ED0A5
:10174000012084F85000FFF74FFB804694F85100C9
:10175000616801280CD0B1F5827F07D102E0022038
:10176000BDE8F88FA16809B9042801D00227C2E0BA
:10177000BBF1000F27D0BAF1000F24D01DB394F8AD
:101780005100042802D0052084F851000020606533
:10179000C4F838A0E587A587C4F830B0E586A586EB
:1017A0002064606420680168490603D4016841F040
:1017B00040010160E068B0F5006F606805D0E8B3F3
:1017C000012D46D07FE0012795E008B1012D39D1E8
:1017D000206B21680088C860206B801C2063E08E2D
:1017E000401EE0862EE02068816889070FD5E18ED3
:1017F00069B1B9F1010F0AD1216B0988C160206B71
:10180000801C2063E08E401EE0864FF000092068B7
:101810008168C9070CD0E18F51B1C068A16B088005
:10182000A06B801CA063E08F401EE0874FF0010991
:10183000FFF7DAFAA0EB0800B04200E009E001D3BC
:10184000701C50D1E08E0028CDD1E08F0028CAD185
:101850003FE0206B216800780873206B401C2063F8
:10186000E08E401EE0862EE02068816889070FD553
:10187000E18E69B1B9F1010F0AD1216B09780173C9
:10188000206B401C2063E08E401EE0864FF0000974
:1018900020688168C9070CD0E18F51B1C068A16B85
:1018A0000870A06B401CA063E08F401EE0874FF0E3
:1018B0000109FFF799FAA0EB0800B04202D3701CAF
:1018C00001D010E07EB1E08E0028CDD1E08F00285D
:1018D000CAD142463146204600F0ECFD28B101272E
:1018E0002020606507E0032705E0A06818B920689C
:1018F000C16880680090012084F85100002084F8BD
:10190000500038462CE710B5401EB0F1807F01D35F
:10191000012010BD4FF0E02460610F21601701F03D
:1019200075F80020A06107202061002010BD7047DD
:1019300070470000F8B5026804461068D168536922
:1019400010F00F0F4FF0000554D003F0010601F422
:10195000907737435FD0C20705D0CA0503D5226C04
:1019600042F001022264420705D5DA0703D0226C57
:1019700042F002022264820705D5DA0703D0226C06
:1019800042F004022264020707D501F0200232432C
:1019900003D0226C42F008022264226C002A35D067
:1019A000800604D5880602D5204600F019FF20687D
:1019B0004069216CC0F3801001F00801014320460A
:1019C00025D000F0F5FE2068416949061BD5416924
:1019D00021F040014161A06BA8B158494163A06B5F
:1019E000FFF79AF8002811D0A06B416B01B0BDE859
:1019F000F040084783060ED58B060CD52046BDE87F
:101A0000F84000F0EDBE2046FFF792FFF8BDFFF76B
:101A10008FFF2564F8BD266B2023012E52D1C60608
:101A200050D5CE064ED510685068009050694006DB
:101A30002AD5A16B086840680004000CEAD0A68D86
:101A40008642E7D9E0858869202818D0D06820F43C
:101A50008070D0602068416921F0010141612068F7
:101A6000416921F04001416184F83E3025632068DE
:101A7000C16821F01001C160A06BFFF729F8A08DAB
:101A8000E18D401A81B219E0A08DE18D401A81B23A
:101A9000E08D0028BED00029BCD0D06820F4907022
:101AA000D0602068426922F00102426184F83E3031
:101AB00025632068C26822F01002C2602046FFF74A
:101AC00036FFF8BD05062BD50D0629D594F83D0047
:101AD0002128F6D1A068B0F5805F01D12069B0B1AE
:101AE000206A411C2162216800784860E08C401E19
:101AF0000004000CE084E4D12068C16821F080017A
:101B0000C1602068C16841F04001C160F8BD206A31
:101B10000088C0F308005060206A801C2062E5E75E
:101B20004006F3D54806F1D5D168204621F04001A2
:101B3000D16084F83D3000F0D0F8F8BDA12700084E
:101B400070B5040004D094F83D00002510B106E003
:101B5000012070BD84F83C50204600F023F824207A
:101B600084F83D002068C16821F40051C16020461E
:101B700000F092FE2068016921F490410161206823
:101B8000416921F02A0141612068C16841F4005196
:101B9000C1602564202084F83D0084F83E000020C8
:101BA00070BD000030B585B000240094019402940B
:101BB00003940068184988422CD11848816941F47F
:101BC00080418161816901F480410491816941F022
:101BD000040181618069124D00F0040004904FF40B
:101BE000007000900220019003200390694628466F
:101BF000FFF704F82815CDE9000469462846029449
:101C0000FEF7FCFF002211462520FFF74BFA2520A6
:101C1000FFF73AFA05B030BD00380140001002402D
:101C200000080140704700002DE9F843044690F891
:101C30003D001F4616460D4620284CD1C5B1BEB109
:101C400094F83C00012846D0012084F83C004FF075
:101C50000008C4F84080212084F83D00FFF7C4F854
:101C6000A6848146E684A068B0F5805F03D004E0D6
:101C70000120BDE8F883206928B12E465FF00005F9
:101C800084F83C800EE00026FAE78021204600F030
:101C90005FFEA0B9AEB116F8010B21684860E08C78
:101CA000401EE084E08C4B464FF000020097002875
:101CB000EBD14FF04001204600F04AFE30B1032046
:101CC000D7E735F8020BC0F30800E6E7202084F8D8
:101CD0003D000020CDE70220CBE77047FEE7000083
:101CE0003EB500248DF800408DF80440012201A982
:101CF000762002F07BFA01226946752002F040F955
:101D00009DF800100AA000F05DFE9DF80000472835
:101D100001D0A01E3EBD8DF80840012202A911206D
:101D200002F064FA0220FEF743FF00203EBD0000EF
:101D30000D0A20202578200D0A0000002DE9FC4125
:101D4000DFF86080ADF8000000141546ADF8020021
:101D5000ADF8041000246F4637F91400FEF772FC4A
:101D6000014604EB440208EBC200064601F036FFD0
:101D7000B068FEF781FC27F81400641CE4B2032C61
:101D8000EAD3BDF90000FEF75DFC2860BDF9020052
:101D9000FEF758FC6860BDF90400FEF753FCA8602C
:101DA000BDE8FC813C0000202DE9FC47DFF878907D
:101DB000ADF8000000141D4FDFF874A09046ADF898
:101DC0000200ADF8041000246E464D4636F91400AA
:101DD000FEF738FC2946FEF731FA054657F824008D
:101DE0005146FEF72BFA2946FEF7D0F947F82400B2
:101DF000FEF742FC26F81400641CE4B2032CE4D382
:101E0000BDF90000FEF71EFCC8F80000BDF9020095
:101E1000FEF718FCC8F80400BDF90400FEF712FC38
:101E2000C8F80800BDE8FC879A99193EE800002030
:101E30009A99593FF0B5194C0025A68876B9656284
:101E4000A5620123E562A380158065F30F0055802C
:101E500065F31F4065F30F0100239580676A06B2A2
:101E60003E446662A76A07EB204708B2A762E16AB0
:101E7000C01A0144E162A088C82803D0401CA08099
:101E80000020F0BD96FBF0F3138097FBF0F391FB7D
:101E9000F0F053809080A5800120F0BD000000206C
:101EA000F0B5154C0546174620789C46C0430E46B3
:101EB000C0070DD1002304F1300261463846FFF718
:101EC000B9FF28B1207820F0010040F00200207016
:101ED0002078C04380070DD4074A42F2040336320B
:101EE00031462846FFF7A6FF002803D0207820F0CF
:101EF00002002070F0BD0000000000202DE9F04F2E
:101F0000D1E9018B91B00646D1F800A0006800909D
:101F100070680490DFF89C93B0680390D9F80810BB
:101F200015464C4608460691FEF788F90C90E16884
:101F300006980F46FEF782F90A90216908910698E3
:101F4000FEF77CF90E90394664690846FEF776F98B
:101F50000B9021463846FEF771F90899079008461C
:101F6000FEF76CF90D9021460898FEF767F92146B7
:101F700009900846FEF762F90F9041465046FEF779
:101F80005DF95946FEF75AF910F0FF4F7ED05946D9
:101F90000846FEF753F9074641460846FEF74EF954
:101FA000044651460846FEF749F92146FEF7EEF889
:101FB0003946FEF7EBF801F0F7FD044601465046BE
:101FC000FEF73CF9059021464046FEF737F90290AE
:101FD00021465846FEF732F983460E990798FEF7D8
:101FE00027F90121FEF79AF907460E90DDE909105D
:101FF000FEF7CCF80121FEF791F98046DDE90B10E0
:10200000FEF716F90D99FEF713F90F99FEF7BEF8D2
:1020100004460D9041465846FEF710F98246214687
:102020000298FEF70BF95146FEF702F98246214667
:102030000598FEF703F9044639465846FEF7FEF8C0
:102040002146FEF7F5F8834639460298FEF7F6F882
:10205000044641460598FEF7F1F82146FEF7E8F8F8
:10206000089095495046FEF7E9F84C46D9F8181003
:10207000FEF78CF88146A0618F495846FEF7DEF8DE
:10208000E169FEF783F807468B4900E00FE1E06164
:102090000898FEF7D3F8216AFEF778F880462062A8
:1020A0004FF07F515046FEF7C9F80099FEF76EF8E1
:1020B0004946FEF76BF800904FF07F515846FEF707
:1020C000BDF80499FEF762F83946FEF75FF88346DB
:1020D0004FF07F510898FEF7B1F80399FEF756F8D4
:1020E0004146FEF753F88246014660690290FEF7CA
:1020F000A5F88146206959460690FEF79FF8E768E3
:10210000804687F000400099FEF798F84146FEF7B8
:102110008FF84946FEF78CF86749FEF78FF8A168FB
:10212000FEF734F88146A06059460298FEF786F81B
:10213000079051460698FEF781F880464846009978
:10214000FEF77CF84146FEF721F80799FEF770F894
:102150005949FEF773F83946FEF718F8E0608046F3
:1021600000990298FEF76AF8089051464046FEF73B
:1021700065F8074659464846FEF760F83946FEF7C7
:1021800057F80899FEF702F84B49FEF757F80699F9
:10219000FDF7FCFF206107460099FEF74FF800901D
:1021A00059464046FEF74AF8834651464846FEF7F0
:1021B00045F85946FDF7EAFF0099FEF739F83E4920
:1021C000FEF73CF80299FDF7E1FF01466061FEF77A
:1021D00035F8834639460846FEF730F882464146D0
:1021E0000846FEF72BF8074649460846FEF726F84C
:1021F0003946FDF7CBFF5146FDF7C8FF5946FDF7BD
:10220000C5FF01F0D1FC07460146A068FEF716F8AD
:10221000A0603946E068FEF711F8E06039462069B1
:10222000FEF70CF8206139466069FEF707F8606137
:102230002249B068FEF702F8B0F17E5F02DC10F1CF
:10224000814F06D91E49FDF7F9FFA968FDF79EFFEA
:10225000A8600E98FEF729FA01F0B0F8DFF8648064
:102260004FF0C04632464346FEF70BF9FEF730FA10
:1022700028600D98FEF719FA07460C4601210A98C6
:10228000FEF74CF8814601210998FEF747F84946C8
:10229000FDF77CFFFEF709FA3A46234601F0D6FA2D
:1022A00032464346FEF7EDF8FEF712FA686011B0C9
:1022B000BDE8F08F000000200AD7A33BA34C654285
:1022C0000AD7233C66A64CC030B585B000200090EC
:1022D0000190029003902248816941F020018161C0
:1022E000816901F020010491816941F0040181615B
:1022F000816901F004010491816941F00801816163
:102300008069184D00F00800049000221021284632
:10231000FEF764FD012102241020CDE90214CDE96D
:10232000000169462846FEF769FC302000900E48FF
:10233000CDE9010469460D48FEF760FC0022022148
:102340000A20FEF7AFFE0A20FEF79EFE00220121C2
:102350001720FEF7A7FE1720FEF796FE05B030BD4A
:10236000001002400008014000001110000C014064
:102370000D4810B50B4901600C49416000214FF434
:1023800080428160C0E9031241618161C1610162E3
:10239000FEF730FD002803D0BDE81040FEF797BBE4
:1023A00010BD00000054004020020020801A0600EA
:1023B000104810B50E4901604FF482714160002150
:1023C0008160C1604FF400720161C0E9051208220A
:1023D000C0E90721416281620A21C162FFF710F959
:1023E000002803D0BDE81040FEF771BB10BD00000F
:1023F00000300140740200200C4810B50A49016009
:102400004FF461214160002181600C22C160C0E96C
:1024100004128161C161FFF793FB002803D0BDE87E
:102420001040FEF754BB10BD00380140CC02002024
:10243000FEE77047704700002DE9F04116461F4641
:1024400004460D46FFF72CFD174A29462046FFF7A4
:1024500075FC164A39463046FFF7A6FC124C206838
:10246000FEF7FAFA124D2946FDF7E8FE2060606893
:10247000FEF7F2FA2946FDF7E1FE6060A068FEF77C
:10248000EBFA2946FDF7DAFEA060084C2068FEF75B
:10249000F1FA20606068FEF7EDFA6060A068FEF770
:1024A000E9FAA060BDE8F0810802002014020020D3
:1024B0000AE81C4138B50B460092044600228021F0
:1024C00000F03AF8002804D0606D40F0200060650C
:1024D000032038BD2DE9F0410E4F15460C46064647
:1024E000002210213846FEF779FC204600F014F84F
:1024F000002405E0FF2000F00FF83055641CA4B262
:10250000AC42F7D33846BDE8F04101221021FEF776
:1025100065BC00000008014001B582B04FF47A703C
:102520000090012301AA02A90248FFF7FBF89DF8D9
:1025300004000EBD740200202DE9F8431E469146AA
:1025400088460446089DFEF74FFC401B351AFEF7EF
:102550004BFC074625480068C0F3CB30684338E0A1
:10256000701C37D0FEF740FCC01BA84203D215B147
:10257000009860B32CE02068416821F0E0014160E0
:102580006068B0F5827F0BD1A068B0F5004F02D033
:10259000B0F5806F04D12068016821F0400101602E
:1025A000A06AB0F5005F09D12068016821F40051EC
:1025B00001602068016841F400510160012084F845
:1025C0005100002084F850000320BDE8F883002566
:1025D000401E00902068816838EA010004D0002184
:1025E0004945BDD10020F0E70121F9E7A400002012
:1025F0002DE9F0410D4F15460C46064600221021EC
:102600003846FEF7EBFB2046FFF786FF002404E088
:10261000305DFFF781FF641CA4B2AC42F8D33846AA
:10262000BDE8F04101221021FEF7D8BB00080140AF
:10263000704700008AB20146FF230148FFF7F4BA51
:10264000CC02002030B51E4D85B00DF1040C3CCD00
:102650008CE83C00028864235A43ADF800209DF8C2
:1026600001208DF808209DF800208DF8092042886F
:1026700000215A43ADF800209DF801208DF80A2072
:102680009DF800208DF80B20808801AA5843ADF8F2
:1026900000009DF801008DF80C009DF800008DF8F9
:1026A0000D000020135C401C1944C9B20F28F9DB4F
:1026B0008DF8131010211046FFF7BCFF05B030BD98
:1026C0001442000830B587B00446002518221E4980
:1026D0006846FDF737FD60788DF8040020788DF8A6
:1026E0000500E0788DF80600A0788DF80700607985
:1026F0008DF8080020798DF80900E0798DF80A003E
:10270000A0798DF80B00607A8DF80C00207A8DF896
:102710000D00E07A8DF80E00A07A8DF80F000020F1
:102720008DF8140004908DF8150069460A5C401C71
:102730002A44D5B21628F9DB8DF8165017216846C1
:10274000FFF778FF07B030BDFC410008FEF744BC3E
:1027500030B58FB028216846FDF70DFD14210AA879
:10276000FDF709FD01210804CDE9001000240294C1
:1027700002250491CDE907504FF4E0100990684616
:10278000FEF7AEFD0F20CDE90A056802CDE90C4049
:1027900002210AA80E94FEF7B7FC0FB030BD7047B7
:1027A00010B5406A0021C185C184FFF7C1F810BD92
:1027B0000168CA6822F49072CA6001684A6922F00E
:1027C00001024A61016B012904D10168CA6822F043
:1027D0001002CA60202180F83E100021016370477A
:1027E00008B590F83E10222901D0022008BD826869
:1027F0004FF480539A4201D1016921B1816A9A4212
:102800001BD04AB10AE00268816A5268C2F308022A
:102810000A80816A891C08E0026972B10268526804
:1028200002F07F020A70816A491C8162C18D491ED3
:102830000904090CC18503D019E002685268F1E768
:102840000168CA6822F02002CA600168CA6822F4DE
:102850008072CA6001684A6922F001024A6120213F
:1028600080F83E10016B012903D0FFF7DBF900204F
:1028700008BD002101630168CA6822F01002CA6025
:1028800001680A68D20602D50A6849680091818DFC
:10289000FFF74DF8EBE7000070B5044600680169EA
:1028A000E26821F44051114301612169A0680843A5
:1028B000616908432168CA6841F20C639A43024384
:1028C000CA6020684169A26921F4407111434161E5
:1028D0001E492068884202D1FEF7BCFC01E0FEF7E9
:1028E000A9FC00EBC00101EB0012606864218000CC
:1028F000B2FBF0F3B3FBF1F36FF018067343B2FBD6
:10290000F0F5B2FBF0F605EB8305322303EB05157A
:10291000B5FBF1F5B6FBF1F605F0F00505EB061594
:10292000B2FBF0F6B2FBF0F0B0FBF1F06FF0180282
:10293000504306EB800003EB0010B0FBF1F0216880
:1029400000F00F002844886070BD0000003801408E
:102950002DE9F041984617460E460446069D1DE0B7
:10296000681C1BD02DB1FEF73FFAA0EB0800A8426F
:1029700014D92068C16821F4D071C1602068416910
:1029800021F001014161202084F83D0084F83E00DF
:10299000002084F83C000320BDE8F0812068006836
:1029A00036EA000004D00020B842D9D00020F3E776
:1029B0000120F9E70148FEF7BDBF0000CC0200206E
:1029C000FEE700000FB4054B10B503A9044A0298B6
:1029D00000F05CF910BC5DF814FB0000453A0008FB
:1029E000A8000020490050EAC12018BF04204A0D69
:1029F00018BF40F0010040F2FF72B2EB515F08BF18
:102A000040F00200012808BF052070470907090EA1
:102A1000002804DB00F1E02080F80014704700F08B
:102A20000F0000F1E02080F8141D70472DE9F041FF
:102A30004F1E00EBC7010446D1E9000115461E46B2
:102A400037F006020DD02A463346FDF71AFD7F1EE9
:102A500004EBC703D3E90023FDF76CFC37F0060253
:102A6000F1D1022F25D0042F13D0062F18BFBDE8B7
:102A7000F0812A463346FDF704FDD4E90A23FDF729
:102A800059FC2A463346FDF7FCFCD4E90823FDF740
:102A900051FC2A463346FDF7F4FCD4E90623FDF742
:102AA00049FC2A463346FDF7ECFCD4E90423FDF744
:102AB00041FC2A463346FDF7E4FCD4E90223FDF746
:102AC00039FC2A463346FDF7DCFCD4E90023BDE897
:102AD000F041FDF72FBC0122FDF712BFFDF72ABC24
:102AE0000022134610461146FDF73DBD024A002064
:102AF0001107FDF705BF000001FDFFFF02E008C858
:102B0000121F08C1002AFAD170477047002001E067
:102B100001C1121F002AFBD1704700000149086063
:102B200070470000AC0000202DE9FF5FDDE90220C6
:102B3000010DDDF838B0024318D044F61050A1F270
:102B4000FF3141430D140F98012820D0A5EB0B0055
:102B5000401C5FEA000A4FF00004474EDFF81C916A
:102B6000A046504616D5CAF1000728E00F98012468
:102B700043A2012808D0002100980F9BC0E9002142
:102B8000C0E90243BDE8FF9F6FEA0B01F4E7CBF118
:102B90000000DEE7074612E0F80707D0224633467A
:102BA00040464946FDF76DFC80468946224633463D
:102BB00010461946FDF765FC04460E467F10002FAF
:102BC000EAD1DDE90201BAF1000F42464B4602DAD2
:102BD000FDF757FC01E0FDF7C6FC04460E46002257
:102BE000284BFDF7BDFE03D84FF0FF30014607E04C
:102BF0000022254B20463146FDF79CFBFDF797FE52
:102C0000102409E0002C0ADB0A220023FDF792FDC4
:102C1000019B30321A55641E50EA0102F2D1641C45
:102C2000019AC4F1110314440F9A012A03D001221E
:102C300008430DD10AE0084304D000204FF0110BE7
:102C40000F9080E7A3EB0B056D1E0DE05B4504DDE7
:102C50004FF0000205F1010504E003DA4FF0000235
:102C6000A5F10105002AECD000980F99C0E90231C6
:102C7000C0E9004586E70000000024400000F03F66
:102C8000300000000000F0430000E03F2DE9FF4F5E
:102C900095B09B468946064600250FE2252877D148
:102CA00000242746F84A0121059400E0044316F861
:102CB000013F203B01FA03F01042F7D130782A2877
:102CC00011D06FF02F033078A0F13002092A16D806
:102CD000059A44F0020402EB820203EB4202104424
:102CE000761C0590EFE759F8042B0592002A03DAC9
:102CF000504244F40054059044F00204761C3078AD
:102D00002E2816D116F8010F44F004042A280DD0FD
:102D10006FF02F023078A0F13003092B09D807EBB0
:102D2000870302EB4303C718761CF3E759F8047BCB
:102D3000761C30786C280FD006DC4C2817D0682819
:102D40000DD06A2814D104E0742810D07A280FD14D
:102D50000DE044F400140AE044F4801401E044F46B
:102D600040147278824202D104F58014761C761CDD
:102D7000307866280BD013DC582877D009DC00287F
:102D800075D04528F6D04628F4D047281AD19DE1C1
:102D900018E0632835D0642879D0652812D195E1F0
:102DA000702873D008DC6728F1D069286FD06E28AE
:102DB0000DD06F2806D1B5E073282CD0752875D0BA
:102DC000782874D05A46179990476D1C75E1C4F362
:102DD0000250022809D003280DD0D9F80010042889
:102DE0000DD00D6009F1040967E1D9F80010EA1768
:102DF000C1E90052F6E7D9F800100D80F2E70D7036
:102E0000F0E719F8041B8DF8001000208DF8010080
:102E1000EA46012003E059F804AB4FF0FF306107A8
:102E20004FF0000102D40DE008F101018846B942DB
:102E30000FDA8045F8DB1AF808100029F4D108E011
:102E400008F1010188468142FADB1AF808100029CE
:102E5000F6D105985B46A0EB080721463846179A3D
:102E600000F094FA284400EB080507E04DE029E162
:102E70000DE01AF8010B5A4617999047B8F101086E
:102E8000F7D25B4621463846179A13E142E00A2200
:102E90000092C4F302524FF0000A022A08D059F8F7
:102EA00004CB032A4FEAEC710AD00DE029E02AE0B6
:102EB00009F1070121F00702F2E802C1914609E099
:102EC0000FFA8CFC4FEAEC71042A03D14FFA8CFC08
:102ED0004FEAEC71002907DA0A460021DCF1000C08
:102EE00061EB02012D2202E0220504D52B228DF890
:102EF0000420012203E0E20701D02022F7E79046F8
:102F000059E00A2102E010220DE010214FF0000AE2
:102F100000910BE010224FF0000A44F0040408274F
:102F2000009203E008224FF0000A0092C4F302521C
:102F3000022A05D059F804CB0021032A08D009E061
:102F400009F1070121F00702F2E802C1914605E00C
:102F50001FFA8CFC042A01D10CF0FF0C4FF0000882
:102F6000220728D5702806D0009B83F0100353EA6F
:102F70000A0305D00EE040228DF80420012208E06B
:102F80005CEA010206D030228DF804208DF805009D
:102F900002229046009B83F0080353EA0A030AD1F9
:102FA0005CEA010201D1620705D530228DF80420C8
:102FB0004FF001087F1E582804D034A003900EA8BB
:102FC00002900DE036A0F9E753466046009AFDF7FF
:102FD000B1FB84460398825C0298401E0290027006
:102FE0005CEA0100F0D1029806A9081A00F1200A53
:102FF000600702D524F4803400E00127574502DD44
:10300000A7EB0A0000E0002000EB0A010090059801
:103010004144401A0590E00306D45B462146179AC6
:10302000059800F0B3F90544002706E001A85A46C8
:10303000C05D179990476D1C7F1C4745F6DBE00388
:103040000CD55B462146179A059800F09FF9054478
:1030500004E030205A46179990476D1C0099481E8D
:1030600000900029F5DC08E0029802995A460078A1
:10307000491C0291179990476D1CBAF10001AAF101
:10308000010AF1DC65E1000009280100303132332A
:103090003435363738396162636465660000000094
:1030A000303132333435363738394142434445467E
:1030B0000000000000F058F90544761C3078002824
:1030C0007FF4ECAD19B02846BDE8F08F620700D45C
:1030D000062709F1070222F0070CFCE80223E1466B
:1030E00003F000485FEA080C02D00FF2702C0DE0EC
:1030F0005FEA045C02D50FF2682C07E05FEAC47C4B
:1031000002D00FF2602C01E0AFF2700C4FF0FF38EC
:1031100023F00043CDF850C065280CD006DC4528CC
:1031200009D046281DD047283DD13DE0662818D05B
:1031300067287ED138E00021112F01DB112000E04B
:10314000781CCDE9000106A90EA8FFF7EDFCDDE92A
:103150000F010E9A03910021009207F1010A0491D8
:103160004DE04FF000400097CDE9011006A90EA8F0
:10317000FFF7DAFCDDE90F0203920E9B11990022A2
:10318000DDF80CA00093049211B9791C00EB010A40
:10319000B7EB0A0004D4C0F1FF3007F1010A049034
:1031A000AAEB0700019044E0012F00DA012700217B
:1031B000112F01DD112000E03846CDE9000106A9FC
:1031C0000EA8FFF7B1FCDDE90F010E9A0391002173
:1031D00004910092BA4621070CD40399514500DAB4
:1031E0008A46BAF1010F05DD009AAAF10101515C8E
:1031F000302908D0B84202DA10F1040F06DA0121B2
:10320000CDE9011015E0AAF10101E9E7002805DC8C
:10321000049901440491AAEB000102E0411C5145CC
:1032200000DD8A460499401A401C01904FF000408E
:103230000290200704D40198504501DBCDF80480AA
:1032400000208DF84F0002980DF14F07B0F1004FAC
:1032500025D02B200E9002984FF0020800280CDA9F
:10326000404202902D200E9007E00A210298FDF7BF
:103270004BFA3031029007F8011DB8F10001A8F1B6
:103280000108F2DC02980028EFD1791E0E98087030
:10329000307800F0200040F0450007F8020D12A839
:1032A000C01B00F107081498007800B1012000EB62
:1032B0000A01019801EBE07105984144401A401E53
:1032C0000590E00306D45B462146179A059800F066
:1032D0005DF805441498007818B15A46179990473C
:1032E0006D1CE00324D55B462146179A059800F033
:1032F0004DF805441CE00498002807DBDDE90301D4
:10330000884203DD0098405C179901E0179930204E
:103310005A469047049805F10105401C0490019815
:10332000401E019004D12E205A46179990476D1CDB
:10333000BAF10001AAF1010ADDDC05E017F8010B82
:103340005A46179990476D1CB8F10001A8F1010881
:10335000F4DC5B462146179A0598ABE62D00000089
:103360002B000000200000002DE9F041044600255C
:103370001E461746880404D405E039462020B0478D
:103380006D1C641EF9D52846BDE8F0812DE9F04199
:10339000044600251E469046C80301D5302700E0AC
:1033A0002027880404D505E041463846B0476D1C07
:1033B000641EF9D52846BDE8F08100002DE9F04DE6
:1033C0008D4F21F0004A86B005460C46BA452ADBEF
:1033D000AAEB070028430AD08848824501DC1AD1AD
:1033E000CDB106B02846BDE8F04DFFF774BB844A66
:1033F000844B2846FDF745F807460E46824A834B24
:1034000028462146FDF73DF806B03A463346BDE86A
:10341000F04DFCF78FBF0120FFF780FB06B0BDE841
:10342000F04DFFF75DBB7A48824542DABAF1795F29
:103430000BDA2846FFF7D6FA042808BFFFF756FB39
:10344000284606B02146BDE8F08D2A460B461046B8
:10345000FDF717F8834602466E480E460B460621D6
:103460007844FFF7E3FA5A463346FDF70AF88046F8
:1034700069488A465A46334604217844FFF7D6FA0B
:103480005A463346FCF7FDFF00223B46FCF752FF4D
:1034900002460B4640465146FDF765F82A4623464C
:1034A000FCF7EFFF06B02A462346BDE8F04DFCF7D7
:1034B00041BF284624F0004100223D463B46FCF730
:1034C000DDFF4FF0FF32FDF71BFA06460246534878
:1034D0000F460B4606217844FFF7A8FA32463B46D2
:1034E000FCF7CFFFCDE900014D4832463B460421B1
:1034F0007844FFF79BFA32463B46FCF7C2FF0022B6
:103500002B46FCF717FF834602913046394600F000
:10351000F3FD804643480D46504517DCDDE90001C8
:103520005A46029BFDF71FF842462B46FCF7A9FFBF
:1035300042462B46FCF7FEFE0122FDF7E1F9304A38
:10354000304BFCF798FF304A304B4CE04FF0000A0C
:1035500052460B464046FCF7EDFECDE903105246BD
:103560002B4610461946FCF78CFF32463B46FCF7CB
:1035700085FFDDE90332FCF7F6FF06460F46DDE97D
:1035800000015A46029BFCF7EEFF834600910122A0
:1035900030463946FDF7B4F9194A1A4BFCF76EFF6D
:1035A00006460F46012240462946FDF7A9F95A462C
:1035B000009BFCF766FF32463B46FCF75CFF064685
:1035C0000F46012250462946FDF79AF90E4DDFF8C5
:1035D00058802A464346FCF751FF32463B46FCF7EB
:1035E0004DFF2A464346FCF749FF002CD8BF81F027
:1035F000004106B0BDE8F08D0000F03F0000F07F14
:10360000075C143326A6913C182D4454FB21F93F46
:103610000000E03FDC0D0000F20D0000660D000030
:103620007C0D00003333EF3FFB21E93F2DE9F84FDC
:1036300004460D4621F0004000917349814211DC9F
:103640007249884201DC06D12CB120462946BDE8EA
:10365000F84FFFF740BA6E48002DCCBF6D496E4958
:10366000BDE8F88F6D49814211DD6D498142D8BFB7
:103670004FF0FF366DDD20462946FFF7B3F90428E9
:1036800008BFFFF733FA20462946BDE8F88F6549A1
:10369000654F25F00045814233DD6449814219DDE3
:1036A000002632464FF0804320462946FCF742FE72
:1036B00080468A46012220462946FDF721F900224C
:1036C0003B46FCF7D8FE42465346FCF74CFF044607
:1036D0000D463EE001260022BA463B4620462946DA
:1036E000FCF728FE80460F46002253462046294616
:1036F000FCF7C1FE42463B46FCF735FF04460D464B
:1037000027E04B4981421BDDDFF828A10226002279
:10371000534620462946FCF7B4FE00223B46FCF700
:1037200009FE80460F460022534620462946FCF7F4
:10373000A2FE42463B46FCF716FF04460D4608E053
:10374000032622462B4600203B49FCF70CFF04468B
:103750000D4622462B4610461946FCF792FE8B4634
:10376000824602460B46FCF78CFE0746024633486B
:1037700088460B4606217844FFF758F952465B46C7
:10378000FCF77FFE82462E488B463A46434605218B
:103790007844FFF74BF93A464346FCF772FE02467F
:1037A0000B46002E504659460CDAFCF7C3FD224664
:1037B0002B46FCF766FE01B022462B46BDE8F04FD3
:1037C000FCF75CBEFCF7B6FD22462B46FCF759FE23
:1037D0001C4A7A4402EBC603D3E90023FCF74BFEF4
:1037E00022462B46FCF747FE174A7A4402EBC603F3
:1037F000D3E90023FCF742FE009A002AB8BF81F00B
:103800000041BDE8F88F0000000010440000F07F88
:10381000182D4454FB21F93FFB21F9BF0000DC3F88
:103820000000203E0000F33F0000F03F0000E63FB4
:10383000008003400000F83F0000F0BF7E0B000056
:103840003C0B0000DA0A0000A20A00002DE9F04D4E
:103850009446CCF1000423F000464CEA0404524F95
:1038600046EAD4749A46884621F00042BC4206D803
:10387000454240EA050442EAD474BC4204D9BDE89A
:10388000F04D6246FFF72AB9AAF14055A5F17F65D0
:1038900055EA0C040BD0022404EAAA74434DDFF865
:1038A00010E144EAD87452EA000B04D00CE0BDE801
:1038B000F04DFFF7BBBE002C14BF012CBDE8F08D0E
:1038C000022C30D0032C32D056EA0C0B0AD0BE4268
:1038D00020D1BA4209D126F0804622F080423346F8
:1038E000114617E000291ADB25E0DFF8C8B0FB44D9
:1038F000002C04BFDBE90001BDE8F08D012C02BF04
:10390000DBE9000181F00041BDE8F08D022C0AD016
:10391000032C0CD0BA4212D1B8F1000F0BDA2348B5
:103920002549BDE8F08D28462449BDE8F08D28469C
:103930007146BDE8F08D1D482149BDE8F08D921B10
:1039400012153C2AC4BF19481D490EDCBAF1000FFC
:10395000BEBF12F13C0F0020014606DB6246FCF7B9
:1039600002FE21F00041FFF761FE002C08BFBDE818
:10397000F08D012C04BF81F00041BDE8F08D114AAB
:10398000114B022C07D0FCF776FD2A46BDE8F04D1E
:103990000A4BFCF770BDFCF76EFD2A46BDE8F04D02
:1039A000064BFCF76BBD00000000F07F182D44545F
:1039B000FB2109C0360A0000FB21F9BFFB210940A9
:1039C000FB21F93F075C143326A6A13C7CB50025FA
:1039D0008DF80450012201A9762000F007FC184C54
:1039E00008208DF80000E07F4FF0010201286946B1
:1039F00023D0682000F0FAFB3220FDF7D9F8202010
:103A00008DF8000001226946632000F0EFFB3220B0
:103A1000FDF7CEF88DF80450012201A9762000F0C0
:103A2000E5FB14F82D0F064940F01000207001222C
:103A30002D31562000F0DAFB7CBD6520DAE700006E
:103A4000B000002013B5FF23012269460248FEF7AB
:103A5000EBF800981CBD0000CC020020084808B517
:103A6000017C11B1B0F9120008BD022269461F2085
:103A700000F086FABDF8000040BA00B208BD0000B0
:103A8000B0000020084808B5017C11B1B0F914005D
:103A900008BD02226946212000F072FABDF800003C
:103AA00040BA00B208BD0000B0000020084808B5C8
:103AB000017C11B1B0F9160008BD0222694623202D
:103AC00000F05EFABDF8000040BA00B208BD000088
:103AD000B0000020084808B5017C11B1B0F9180009
:103AE00008BD02226946252000F04AFABDF8000010
:103AF00040BA00B208BD0000B0000020084808B578
:103B0000017C11B1B0F91C0008BD022269462720D2
:103B100000F036FABDF8000040BA00B208BD00005F
:103B2000B0000020084808B5017C11B1B0F91A00B6
:103B300008BD02226946292000F022FABDF80000E3
:103B400040BA00B208BD0000B000002038B51148EE
:103B5000114D124C017C31B190F91E00FCF77BFD38
:103B60002A460F4B0CE0022269461D2000F008FA9D
:103B7000BDF8000040BA00B2FCF76DFD2A46094BC3
:103B8000FCF7F1FC00222346FCF7D4FBBDE83840EB
:103B9000FCF79EBDB00000208FC2F5280000394020
:103BA0005C8F00405C8F604010B504464FF0FF31E1
:103BB000FCF7B4FB0849A1EB64042146FCF73EFB8B
:103BC0002146FCF73BFB4FF07F51FCF734FB2146CD
:103BD000BDE81040FCF732BB865A375F2DE9F04153
:103BE0008846044601690068FCF7D0FA6060054623
:103BF0006169FCF7CBFA01462846FCF751FBE0600F
:103C0000A768064639464046FCF712FB3146FCF7EA
:103C100015FB3946FCF7BAFAA06031464FF07E50EA
:103C2000FCF706FB2946FCF709FB2060BDE8F081A4
:103C30002DE9F0418AB0FDF7D7F9FEF789FDFEF7CF
:103C400043FBFEF7D9FBFEF793FBFEF7B1FB86A023
:103C5000FEF7B8FEFEF744F810F0FF0F06D086A07E
:103C6000FEF7B0FE0AB00120BDE8F08187A0FEF7A4
:103C7000A9FE00220621104600F0BEF9002206210E
:103C8000012000F0B9F900F095FA032000F076FA6F
:103C9000032000F057FA01231A460021022000F009
:103CA00079F9FFF793FE7EA0FEF78CFEDFF8048221
:103CB00098F800100129FBD1002188F80010FFF7C7
:103CC00045FFC8F80400FFF7C9FE7A4D0835288083
:103CD000FFF7D8FE6880FFF7E9FEA880FFF7FAFE3D
:103CE000AE1D3080FFF70AFF7080FFF71BFF724F99
:103CF000B080B5F90000F968FCF7D8FE6F4C206081
:103D0000B5F90200F968FCF7D1FE6060B5F904006E
:103D1000F968FCF7CBFEA060B6F90000B968FCF7C3
:103D2000C5FE04F10C052860B6F90200B968FCF77D
:103D3000BDFE6860B6F90400B968FCF7B7FEA8607C
:103D4000D8F80400FCF7B1FC02460B465CA0FEF775
:103D500039FE52A0FEF736FE2068FCF7A6FC0246AC
:103D60000B465CA0FEF72EFE6068FCF79EFC024648
:103D70000B465DA0FEF726FEA068FCF796FC024607
:103D80000B465EA0FEF71EFE44A0FEF71BFE286851
:103D9000FCF78BFC02460B465EA0FEF713FE68683C
:103DA000FCF783FC02460B465FA0FEF70BFEA868FB
:103DB000FCF77BFC02460B4661A0FEF703FE37A032
:103DC000FEF700FE2068FCF757FCADF810006068B5
:103DD000FCF752FCADF81200A068FCF74DFCADF802
:103DE00014002868FCF748FCADF816006868FCF77A
:103DF00043FCADF81800A868FCF73EFCADF81A00CB
:103E0000002104A8FEF75EFCD8F80E200292B8F854
:103E10001200ADF80C00D8F808000090B8F80C10AB
:103E2000ADF80410039B0199FEF706FB04F118029C
:103E300002F10C0101F10C00FEF760F81834206863
:103E4000FCF71AFCADF81C006068FCF715FCADF837
:103E50001E00A068FCF710FCADF82000032107A8A5
:103E6000FEF7F0FB24E70000537461727420696E62
:103E700069740D0A00000000536F6D655468696E27
:103E80006773206572726F72200D0A00546869733F
:103E90002069732049434D34323638380D0A00000A
:103EA000496E69742066696E7368202C7374617240
:103EB0007400000084000020B0000020E401002015
:103EC00054656D70657261747572653A20252E3285
:103ED00066204300416363656C5F583A20252E32AB
:103EE00066206D6720000000202020416363656C20
:103EF0005F593A20252E3266206D67002020202051
:103F0000416363656C5F5A3A20252E3266206D67E7
:103F1000000000004779726F5F583A2020252E324A
:103F20006620647073200000202020204779726F83
:103F30005F793A2020252E326620647073200000BD
:103F4000202020204779726F5F5A3A2020252E3298
:103F500066206470730000001CB5002104468DF8D3
:103F600004108DF80010012201A9762000F03EF91E
:103F700001226946204600F003F89DF800001CBDB0
:103F80000B4610B540F0800192B21846FEF7A2FA37
:103F900010BD0000F8B50746002015460E468DF806
:103FA00000001C4601226946762000F01FF91149E5
:103FB000012F02D0022F0BD015E0012001F81F0FB6
:103FC000087B66F3820064F3410065F3000009E0BA
:103FD000022001F81F0F087B66F3451064F30410FC
:103FE00065F3C3000873034901222B31142000F04C
:103FF000FDF8F8BDB0000020F8B5044600201546D5
:104000000E4601278DF800003A466946762000F0FA
:10401000EDF82C4814B1012C2CD050E00B2E2DD8EB
:10402000072D2BD8044690F82C00264966F3030090
:1040300065F3471084F82C0001222C314F2000F04A
:10404000D5F8082D3BD2DFE805F00406080A0C0E6F
:1040500010121D480CE01D480AE01D4808E01D48EC
:1040600006E01D4804E01D4802E01D4800E01D4830
:10407000A06024E00F2E01D8032D01D900271EE0F7
:10408000044690F820000F4966F3030065F34710DB
:1040900084F8200001222031502000F0A7F835B12B
:1040A000012D06D0022D06D0032D08D105E00E48C3
:1040B00004E00E4802E00E4800E00E48E06038469A
:1040C000F8BD0000B0000020FA007A3DFA00FA3C8A
:1040D000FA007A3CFA00FA3BFA007A3BFA00FA3A24
:1040E000FA007A3AFA00FA3923DBF93E23DB793E0B
:1040F00023DBF93D23DB793D2DE9F04106460F46F0
:10410000FCF758FC041E0D4618BF0120284320F080
:104110000040C0F17F6000F1E040C00F0ED0301CC5
:1041200018BF0120384320F00040C0F17F6000F14B
:10413000E040C00F04BF0120FEF7F0FC20462946F6
:10414000BDE8F0810C4908B511F8212F60F3010298
:104150000A7000208DF8000001226946762000F0E8
:1041600045F80549012221314E2000F03FF80A2090
:10417000FCF71EFD08BD0000B00000200C4908B58A
:1041800011F8212F60F383020A7000208DF80000DF
:1041900001226946762000F029F8054901222131E3
:1041A0004E2000F023F80120FCF702FD08BD0000BE
:1041B000B00000200C4808B510F8211F012221F0A2
:1041C0002001017000208DF800006946762000F083
:1041D0000DF80549012221314E2000F007F8012099
:1041E000FCF7E6FC08BD0000B00000200B4600F024
:1041F0007F0192B21846FEF7FBB90000AAAA02128C
:1042000000000000000000000000000000000000AE
:1042100000000000AAAA010B00000000000000003E
:104220000000A100000000000000000001020304E3
:104230000607080900000000010203040000000056
:10424000555555555555C53F7D6FEB0312D6D4BF17
:104250005544880E55C1C93F3B8F68B52882A4BF1D
:1042600088B20175E0EF493F09F7FD0DE13D023FDE
:104270004B2D8A1C273A03C0C88A599CE52A004066
:1042800059018D1B6C06E6BF82922EB1C5B8B33FB3
:104290004FBB610567ACDD3F182D4454FB21E93F5E
:1042A0009BF681D20B73EF3F182D4454FB21F93F4D
:1042B000E2652F227F2B7A3C075C143326A6813CD3
:1042C000BDCBF07A8807703C075C143326A6913C7E
:1042D000C4EB98999999C9BF711623FEC671BCBFEA
:1042E0006D9A74AFF2B0B3BF9AFDDE522DDEADBF52
:1042F0002F6C6A2C44B4A2BF0D5555555555D53F6A
:10430000FF8300922449C23F6E204CC5CD45B73F84
:10431000513DD0A0660DB13FEB0D76244B7BA93FFC
:1043200011DA22E33AAD903F0000000000000000E7
:104330005043000800000020B0000000FC2A0008E4
:1043400000440008B0000020600600000C2B0008AC
:1043500001000100000000000000803F000000009C
:10436000000000000000000000000000000000004D
:10437000000000000000000000000000000000003D
:104380000000000000000000000000000AD7A33C6D
:104390000000000000000000000000006F12833ADF
:1043A0000C020B3F0AD7A33C0000000000000000F5
:1043B000000000006F12833A0C020B3F0AD7A33CA7
:1043C0000000000000000000000000006F12833AAF
:1043D0000C020B3F00000000000000000000000085
:1043E00000000000000000000100000010000000BC
:1043F000000000000024F4000000000000000000A5
:04000005080000ED02
:00000001FF
