:020000040800F2
:1000000098050020A1010008EF1800084915000814
:10001000ED1800084D0700089D1C000800000000B6
:10002000000000000000000000000000131900089C
:100030004F070008000000001119000815190008FA
:10004000BB010008BB010008BB010008BB010008A0
:10005000BB010008BB010008BB010008BB01000890
:10006000BB010008BB010008BB010008BB01000880
:10007000BB010008BB010008BB010008BB01000870
:10008000BB010008BB010008BB010008BB01000860
:10009000BB010008BB010008BB010008BB01000850
:1000A000BB010008BB010008BB010008BB01000840
:1000B000BB010008BB010008BB010008BB01000830
:1000C000BB010008BB010008BB010008BB01000820
:1000D000BB010008BB010008BB010008BB01000810
:1000E000BB010008BB010008BB010008BB01000800
:1000F000BB010008BB010008BB010008BB010008F0
:10010000BB010008BB010008BB010008BB010008DF
:10011000BB010008BB010008BB010008BB010008CF
:10012000BB010008BB010008BB010008BB010008BF
:10013000BB010008BB010008BB010008BB010008AF
:10014000BB010008BB010008BB010008BB0100089F
:10015000BB010008BB010008BB010008BB0100088F
:10016000BB010008BB010008BB010008BB0100087F
:10017000BB010008BB010008BB0100080000000033
:10018000BB010008BB010008DFF810D000F0BAFA8C
:1001900000480047B9270008AFF300809805002009
:1001A0000648804706480047FEE7FEE7FEE7FEE711
:1001B000FEE7FEE7FEE7FEE7FEE7FEE79D19000823
:1001C000890100082DE9F05F0546002092469B4614
:1001D00088460646814640241BE02846414647465D
:1001E000224600F04BF953465A46C01A914110D3AB
:1001F00011461846224600F032F92D1A67EB010825
:100200004F4622460120002100F029F917EB000992
:100210004E41201EA4F10104DFDC484631462A4647
:100220004346BDE8F09FD2B201E000F8012B491E21
:10023000FBD270470022F6E710B513460A46044683
:100240001946FFF7F0FF204610BD2DE9FE4F81EA69
:10025000030404F0004421F0004100944FF0000B2F
:1002600023F0004350EA01045ED052EA03045BD05D
:10027000C3F30A54C1F30A552C44A4F2F334019495
:10028000A0FB0254C1F3130141F48011C3F3130323
:1002900043F4801301FB024400FB034E840A970AD7
:1002A00044EA815447EA8357A4FB076802958D0A04
:1002B00005FB07854FEA932C04FB0C542705029D90
:1002C0004FEA065847EA1637B5EB08056EEB070C00
:1002D000870E920E47EA811742EA8312A7FB0201BA
:1002E000B6EB0B0164EB00042B0D43EA0C335E18F4
:1002F00044EB1C50DA465146E7FB0201C5F31304F8
:100300004FEA0B3343EA14534FEA0432019C43EAA9
:100310000603A4F10C040294009CCDE900B400F0A3
:10032000CCF803B0BDE8F08F00200146F9E72DE9D5
:10033000F04D81EA030404F0004B21F0004514461F
:100340004FF0000A23F0004150EA050220D054EAA1
:1003500001021DD0C5F30A570246C5F31303C1F3CA
:100360001300C1F30A5640F4801543F48013A7EB41
:100370000608101BD64608F2FD3873EB050002D3C1
:1003800008F1010801E092185B41B8F1000F03DAAF
:1003900000200146BDE8F08D00204FF48011064694
:1003A00084460EE0171B73EB050705D3121B63EBA6
:1003B000050306434CEA010C49084FEA3000921845
:1003C0005B4150EA0107EDD152EA030012D082EA04
:1003D000040083EA0501084305D0101BAB4106D297
:1003E0000122002306E000224FF0004302E06FF0FC
:1003F000010253101AEB06004CEB085110EB0A00F7
:1004000041EB0B01BDE8F04D00F048B800F00042B0
:1004100030F000400AD0C10D01F56071C0F3160044
:1004200042EA0151C20840071143704700200146CB
:10043000704730B50B46014600202022012409E018
:1004400021FA02F59D4205D303FA02F5491B04FA8D
:1004500002F52844151EA2F10102F1DC30BD202A6C
:1004600004DB203A00FA02F1002070479140C2F10B
:10047000200320FA03F3194390407047202A04DB3D
:10048000203A21FA02F00021704721FA02F3D0400D
:10049000C2F12002914008431946704710B5141E5E
:1004A00073F1000408DA401C41F1000192185B412D
:1004B0001A4301D120F0010010BD2DE9F04D924604
:1004C0009B4611B1B1FA81F202E0B0FA80F220321B
:1004D0009046FFF7C4FF04460F4640EA0A0041EA8F
:1004E0000B0153465A46084313D0114653EA010004
:1004F00019D0C8F140025046FFF7C0FF05460E462E
:10050000504659464246FFF7AAFF084305D001204E
:1005100004E020463946BDE8F08D0020054346EA58
:10052000E0762C4337430A986305E40AA0EB080001
:100530000022FD0A44EA47540A3002D50020014651
:10054000E9E7010510196941DDE90845001969412C
:10055000BDE8F04DA2E72DE9FE4F804681EA030099
:10056000C00F0C46009021F0004123F00045B8EB8D
:100570000200A94105D24046214690461C460B4642
:10058000024623F00040104347D0270DC7F30A006E
:10059000C3F30A510290401A019040286BDAC3F36A
:1005A000130040F4801B0098924620B10023D2EB48
:1005B000030A63EB0B0B01985946C0F14002504609
:1005C000FFF74DFF06460D4650465946019A00F08A
:1005D000ABF810EB08006141002487EA115284EA6D
:1005E000E7731A4340D0009A62B3019A012A4FEA96
:1005F000075215DC001B61EB02014FF0004202EADA
:100600000752CDE90042001C41F5801132462B46CD
:10061000FFF753FF03B0BDE8F08F40462146F9E7EE
:10062000001B61EB0201001C41F5801300185B41C7
:100630002018A2F5001747EB030140EAD570B61960
:100640006D4111E06D084FEA360645EAC0754FEA84
:100650000752001B61EB0201001C41F580114908A3
:100660004FEA30000019514132462B4603B0BDE835
:10067000F04FFFF713BF0098012240000023D0EB9A
:10068000020263EBE073009821464FEAE074B8EB96
:10069000000061EB0401E9E783F000435BE781F0D0
:1006A000004158E7C1F30A52C1F3130140F2FF338E
:1006B00041F480119A4202DA00200146704740F26C
:1006C00033439A42A2F2334202DC5242FFF7D6BED3
:1006D000FFF7C5BE30B5041E71F1000404DB4FF016
:1006E0000044404264EB0101141E73F1000405DB79
:1006F0001C464FF00043524263EB0403994208BF8B
:10070000904230BD064C074D06E0E06840F0010322
:1007100094E8070098471034AC42F6D3FFF738FD51
:10072000242A0008442A0008202A06DBCB17203A96
:1007300041FA02F043EAE07306E041FA02F3D040E6
:10074000C2F120029140084319467047FEE7704706
:1007500070B5044600F0E6F80546601C02D0044877
:100760000078044400F0DEF8401BA042FAD370BDCC
:100770002C0000202DE9F84FDFF87CB100224FF06B
:1007800001084FF0030A4FF00F090BF1040E00BFF0
:100790000B6808FA02F42340A3426ED14D68022D83
:1007A00001D0122D0ED1D50800EB850CDCF82050BD
:1007B0005607F70E09FA07F6B5430E69BE402E43F9
:1007C000CCF82060066855000F790AFA05FC07F09E
:1007D000030726EA0C06AF40374307604E68012E38
:1007E00005D0022E03D0112E01D0122E0ED1866814
:1007F000CF6826EA0C06AF40374387604668A643B9
:100800000C79C4F30014944034434460C6688C6887
:1008100026EA0C06AC403443C4604C68E40065D55D
:10082000364C256845F480452560246822F0030590
:1008300004F480440094324C2E19D6F808489507E9
:100840002F0F09FA07F5AC432E4DA84201D1002520
:1008500024E02D4DA84201D101251FE02B4DA842D7
:1008600001D102251AE02A4DA84201D1032515E045
:10087000284DA84202D1042510E037E0264DA842B9
:1008800001D105250AE0254DA84201D1062505E044
:10089000234DA84201D1072500E00825BD4025438E
:1008A000C6F80858DBF800405D464E689C43F603E6
:1008B00000D51C432C60DEF8004075464E689C4312
:1008C000B60300D51C432C600B4D08352C684E68D0
:1008D0009C43F60200D51C432C60074D0C352C6858
:1008E0004E689C43B60200D51C432C60521C102A53
:1008F000FFF44EAFBDE8F88F003C014044380240A1
:1009000000300140000002400004024000080240A4
:10091000000C024000100240001402400018024087
:10092000001C024001488068704700002C00002035
:1009300070B5040004D094F83D00002510B106E025
:10094000012070BD84F83C50204600F011FA2420AC
:1009500084F83D002068016821F00101016000F089
:100960006BFB33492268B0FBF1F15160314A636897
:10097000934206D94FF4967359434FF47A73B1FBFF
:10098000F3F12368491C1962616891420BD8490050
:10099000B0FBF1F2C2F30B02042A01D2042019E0E9
:1009A000B0FBF1F016E0A3689BB301EBC10202EBD0
:1009B0000112B0FBF2F242F48042120530D04BB388
:1009C00001EBC10202EB0111B0FBF1F040F48040F9
:1009D00040F400402168C861D4E907010843216858
:1009E0000860D4E90310084321688860D4E9050150
:1009F00008432168C8602068016841F00101016076
:100A00002564202084F83D00256384F83E500020B2
:100A100070BD00E006E001EB4102B0FBF2F2CCE772
:100A20000120D7E701EB4101B0FBF1F0D0E7000076
:100A300040420F00A08601002DE9FF4F83B09A4687
:100A4000DDE9118793460446DDF84090FFF76AFF21
:100A5000054694F83D00202874D1192301227249DB
:100A60002046009500F075FE0028F5D194F83C0072
:100A7000012867D0012084F83C0020680168C9077C
:100A800003D1016841F0010101602068016821F48F
:100A900000610160222084F83D00402084F83E007F
:100AA00000262664C4F82490A4F82A805F48E062F7
:100AB000608D2085CDE9007553465A46204604993D
:100AC00000F057FD28B1206C84F83C60042843D026
:100AD00076E0208DC8B1012820D00228206823D0DC
:100AE000416980690090208D03286BD801282AD0A5
:100AF0004F4902283B464FF0000200955BD08846E4
:100B0000204600F026FEE8BB40E02068416981698C
:100B10000091016841F40071016076E0206801688D
:100B200021F480610160F0E7016821F480610160D7
:100B30002068016841F400610160206841698069B2
:100B4000009062E06EE02A463946204600F076FECC
:100B500030B1206C202833D0012007B0BDE8F08FE1
:100B6000206847E02068016841F400710160206856
:100B70000169606A421C62620170208D401E2085FE
:100B8000608D00E01CE0401E6085E9E72068016898
:100B900021F48061016020680169606A421C626220
:100BA0000170208D401E2085608D401E60853B4673
:100BB000002241460095204600F0CBFD0028D1D010
:100BC0000320CAE72A463946204600F037FE0028AF
:100BD000BFD120680169606A421C62620170208D89
:100BE000401E2085608D401E608520684169C94394
:100BF00049070AD40169606A421C62620170208D53
:100C0000401E2085608D401E6085208D00287FF469
:100C10006AAF202084F83D0084F83E6084F83C6090
:100C200000209AE7022098E7020010000000FFFF72
:100C3000040001002DE9FF4F83B09A46DDE91187DA
:100C400093460446DDF84090FFF76CFE064694F8A4
:100C50003D0020287DD119230122434920460096DA
:100C600000F077FD00287CD194F83C00012878D072
:100C7000012084F83C0020680168C90703D101689D
:100C800041F0010101602068016821F40061016008
:100C9000212084F83D00402084F83E000025256492
:100CA000C4F82490A4F82A803048E062608D208542
:100CB000CDE9007653465A462046049900F0D2FC0E
:100CC00080B3206C84F83C50042848D008E03246B9
:100CD0003946204600F0E3FD30B1206C042839D0BD
:100CE000032007B0BDE8F08F606A411C6162216893
:100CF00000780861208D401E80B22085618D491EDC
:100D0000618521684A69D24352070BD468B1606A91
:100D1000421C626200780861208D401E2085608D33
:100D2000401E6085208D0028D1D1324639462046AC
:100D300000F0E8FC0028D0D154F83D0B016841F4E4
:100D400000710160202004F81E09E5776577002016
:100D5000C7E706E02068016841F4007101600120E6
:100D6000BFE70220BDE70000020010000000FFFF07
:100D700010B586B0044614216846FFF75BFA1349A4
:100D80002068884220D11248016841F002010160C8
:100D90000068694600F002000590C0200090122013
:100DA0000190012002900320039004200490094840
:100DB000FFF7E0FC06481030016841F400110160C3
:100DC000006800F40010059006B010BD005400400B
:100DD0003038024000040240024881680278114421
:100DE000816070472C0000200B4810B5016841F469
:100DF00000710160016841F480610160016841F4A3
:100E000080710160032000F06DF8002000F006F80A
:100E100000F024F8002010BD003C024070B50D4DDC
:100E200004464FF47A712878B1FBF0F00A4909685A
:100E3000B1FBF0F000F0E0FA48B9102C07D2002224
:100E40002146501E00F02EF800206C6070BD01207D
:100E500070BD00002C000020380000200A4808B5B2
:100E6000016841F480410160006800F48040009016
:100E70000548001F016841F080510160006800F0E2
:100E80008050009008BD00004438024000F01F026E
:100E9000012191404009800000F1E020C0F80011DC
:100EA00070470000F0B40E4B1B680C46C3F30223DE
:100EB000C3F10705042D00D90425191D072901D206
:100EC000002300E0DB1E012606FA05F1491E214041
:100ED00099409E40761E16403143F0BC00F008BD9C
:100EE0000CED00E0064900F0070208684FF6FF032A
:100EF000184040EA0220034A10430860704700008F
:100F00000CED00E00000FA052DE9F0470E46050063
:100F100065D0DFF81481D8F80000F7B200F00F00B8
:100F2000B04207D288F80070D8F8000000F00F0037
:100F3000B04254D128683D4C810712D5400703D5F3
:100F4000206840F4E05020602878000703D520682E
:100F500040F4604020602068A96820F0F000084359
:100F600020602878C0072DD03049686808390128EA
:100F700012D0022813D0032811D00968890700294C
:100F80002DDA216821F0030101432160FFF7CAFC3B
:100F9000814641F2883A0EE009688903EFE7096863
:100FA0008901ECE7FFF7BEFCA0EB0901514502D92E
:100FB0000320BDE8F0872068696800F00C00B0EB02
:100FC000810FEFD1D8F80010404601F00F01B14277
:100FD00007D90770006800F00F00B04201D001206F
:100FE000E7E72878400705D52068E96820F4E05055
:100FF000084320602878000706D52068296920F476
:10100000604040EAC100206000F036F82168084ADC
:10101000C1F30311515CC840064908600020FFF786
:10102000FDFE0020C5E70000003C024008380240F9
:101030000C2A0008380000200448054900680968A7
:10104000044AC1F38221515CC84070473800002037
:10105000083802401C2A000804480549006809684D
:10106000044AC1F34231515CC84070473800002047
:10107000083802401C2A0008154810B5006810F016
:101080000C02144813D01449042A0FD0082A0ED198
:101090000F4C241F2268236802F03F025B0207D531
:1010A0002068C0F38810A0FB010106E0084610BDCF
:1010B0002168C1F38811A1FB00010023FFF782F82A
:1010C0002168C1F30141491C4900B0FBF1F010BD9A
:1010D000083802400024F40040787D012DE9F84FE3
:1010E000050076D02878DFF8F8B2BE4CC00749D0AA
:1010F000DBF800105846C1F38101012908D00068CF
:10110000C0F3810002280AD1201D0068400206D5E4
:101110002068800336D568680028E2D032E068682D
:10112000B0F5803F10D0B0F5A02F206810D020F48B
:1011300080302060206820F4802020606868A0B1A2
:10114000FFF7F0FB06460CE0206840F48030F4E73F
:1011500040F480202060F7E7FFF7E4FB801B642861
:1011600073D820688003F7D50CE0FFF7DBFB064659
:1011700005E000BFFFF7D6FB801B6428F0D820688D
:101180008003F7D42878DFF8608280074FF00009E9
:101190003ED5DBF80010584611F00C0F09D000685E
:1011A000C0F3810002280BD18D48001F0068400267
:1011B00006D42068800715D5E868012809D111E018
:1011C000E868B8B10120C8F80000FFF7ABFB06469D
:1011D00005E002E1FFF7A6FB801B0228C0D82068CB
:1011E0008007F7D52068296920F0F80040EAC1009F
:1011F00020600DE0C8F80090FFF794FB064604E07D
:10120000FFF790FB801B02281FD820688007F7D4C7
:101210002878000722D5724E744869696C3671B11E
:1012200001210160FFF77EFB074604E0FFF77AFB30
:10123000C01B022809D830688007F7D50EE0C0F837
:101240000090FFF76FFB074605E083E0FFF76AFBBE
:10125000C01B02287ED830688007F7D42878400762
:1012600068D5DFF87CA100270AF1380ADAF8000017
:10127000C0000BD4DAF8001041F08051CAF8001019
:10128000DAF80000012700F080500090584E3068D6
:10129000C00510D4306840F480703060FFF742FB26
:1012A000009005E0FFF73EFB0099401A022851D854
:1012B0003068C005F6D54A4EA868683601280FD0B8
:1012C0000528306810D020F001003060306820F030
:1012D00004003060A868B8B1FFF724FB00900FE06D
:1012E000306840F00100F4E740F004003060F7E7B8
:1012F000FFF718FB0099411A41F28830814264D807
:1013000030688007F4D50EE0FFF70CFB009007E093
:10131000FFF708FB0099411A41F28830814254D806
:1013200030688007F4D42FB1DAF8001021F0805132
:10133000CAF80010A869C0B3DBF80010C1F381013E
:1013400002294AD00228484607D0C8F86000FFF7B3
:10135000E9FA00E039E005463AE04746C8F860009F
:10136000FFF7E0FA064604E0FFF7DCFA801B0228EC
:101370002BD820688001F7D4D5E907010843A96A72
:101380001C4A490802EB01416A6A41EA821108439A
:1013900095F82C1040EA01611148001F01600120FE
:1013A0003866FFF7BFFA054605E014E0FFF7BAFA22
:1013B000401B022809D820688001F7D50BE000BF48
:1013C000FFF7B0FA401B022802D90320BDE8F88FCE
:1013D00020688001F4D40020F8E70120F6E700003F
:1013E000083802400038024000004742800E474261
:1013F000007000400000FFFF10B5401EB0F1807F7C
:1014000001D3012010BD4FF0E02460610F2160176F
:1014100000F06EFA0020A06107202061002010BDBE
:1014200070B5040004D094F83900002510B106E02E
:10143000012070BD84F83850204600F023F82420A5
:1014400084F839002068C16821F40051C160204649
:1014500000F0CEFA2068016921F490410161206812
:10146000416921F02A0141612068C16841F40051BD
:10147000C160E563202084F8390084F83A00002038
:1014800070BD000010B500681A4986B088422FD19F
:101490001948016841F001010160006800F0010095
:1014A000059015481430016841F010010160006892
:1014B000012100F0100005904FF400700090022010
:1014C000CDE90101039007200C4C049069462046A9
:1014D000FFF750F92015009069462046FFF74AF9BA
:1014E0002520FFF7D3FC032211462520FFF7DAFC65
:1014F00006B010BD0010014030380240000002402C
:1015000090F83A30202B1DD1D1B1CAB190F83830C3
:10151000012B17D081628285C2850021C1632222FE
:1015200080F83A2080F8381001684A6942F00102D8
:101530004A610068C16841F49071C1600020704741
:101540000120704702207047FEE701684A69D243D4
:1015500052050CD46FF480624A61042101640021B9
:1015600040F8301F20224273017301207047002091
:1015700070472DE9F84F0446006889460B9D0168C5
:101580009846174641F4806101602068016841F483
:101590008071016000954FF0011A002251462046EB
:1015A0000A9B00F0D6F8F0BB216809F0FE00086144
:1015B0000AF1010B2B46594620460A9A00F0FAF828
:1015C00018B1206C042812D03AE020684169806983
:1015D00000902A4620460A9900F061F950B1206C2B
:1015E00004282DD12068016841F4007101600120B8
:1015F000BDE8F88FFEB2B8F1010F09D02168380AB2
:1016000008612A4620460A9900F049F90028E6D1E7
:10161000206806612A4620460A9900F040F9002811
:10162000DDD1206800E00BE0016841F480710160C9
:1016300000950022514620460A9B00F08AF808B126
:101640000320D5E7216809F0FF0040F001000861A0
:101650002B46594620460A9A00F0ACF80028B0D133
:10166000C6E700002DE9F843044600680D46DDE9B1
:10167000089701689846164641F4807101604B4610
:1016800000224FF001112046009700F062F8E8B9FF
:10169000216805F0FE0008613B464A46184920468D
:1016A00000F088F828B1206C04280FD10120BDE893
:1016B000F88320684169806900903A46494620468F
:1016C00000F0EDF820B1206C042813D00320EEE7E1
:1016D000F5B2B8F1010F09D02168300A08613A4625
:1016E0004946204600F0DBF80028ECD1206805616F
:1016F0000020DCE72068016841F400710160D5E753
:101700000200010070B516460D4604461AE0204658
:10171000FFF71BFF08B1012070BD681C12D025B176
:10172000FFF700F9801BA8420CD954F8400F40F095
:10173000200044F8100900202060202161732073EC
:10174000032070BD20684069C0434007DFD40020FB
:1017500070BD2DE9F0471E4690460D460446C1F384
:101760000747DDF8209012E0701C10D02EB1FFF773
:10177000D9F8A0EB0900B04209D9002044F8300F95
:1017800020216173A07320730320BDE8F0872068D7
:10179000012F0AD0806925EA00000004000C06D061
:1017A00000214145E0D00020EFE74069F3E7012147
:1017B000F7E700002DE9F0479A4691460D460446AA
:1017C00000264FF02008C1F307472AE0206840694F
:1017D000C043400512D42068016841F400710160E3
:1017E00021686FF48060486104202064266384F8D7
:1017F0003D8084F83C600120BDE8F087B9F1FF3FEF
:101800000FD0B9F1000F05D0FFF78CF8A0EB0A015B
:10181000494506D944F8306F84F80D8026730320BB
:10182000EAE72068012F07D0D0F8180025EA000069
:101830000004000CE0D0C9E74069F7E72DE9F0416A
:10184000002590460E460446202721E04069C0430B
:10185000C0060CD421686FF0100048612564256330
:1018600084F83D7084F83C500120BDE8F0812EB131
:10187000FFF758F8A0EB0800B04209D954F8400F20
:1018800040F0200044F80409677025700320ECE75D
:1018900020684169C9434906D8D40020E5E770B5FE
:1018A00016460D4604461AE02046FFF74EFE08B1E4
:1018B000012070BD681C12D025B1FFF733F8801BE2
:1018C000A8420CD954F8400F40F0200044F8100909
:1018D00000202060202161732073032070BD2068E8
:1018E0004069C0430006DFD4002070BDFEE77047AA
:1018F0000907090E002806DA00F00F0000F1E020C9
:1019000080F8141D704700F1E02080F80014704743
:1019100070477047FFF760BA30B593B03021684622
:10192000FEF788FC14210CA8FEF784FC194800255A
:10193000016841F080510160006800F08050119012
:101940001548016841F4804101600068022400F4F8
:101950008040119001200390102004900094069480
:101960000820CDE90750A820CDE9090404200B90F8
:101970006846FFF7B3FB0CA90F2081E831004FF454
:10198000A0500F90E002109005210CA8FFF7BCFAC0
:1019900013B030BD4038024000700040104801686C
:1019A00041F4700101600F48016841F001010160DC
:1019B0000C4A00210832116002680B4B1A40026089
:1019C000031D0A4A1A60026822F480220260054858
:1019D0000C300160024958068039086070470000E9
:1019E00088ED00E000380240FFFFF6FE10300024D2
:1019F0002DE9F04104460068016921F44052E16894
:101A0000114301612168C86849F20C62904323695F
:101A1000A268E5691A4363692B431A430243CA600B
:101A20002168486920F44072A06910434861E16967
:101A30006425B1F5004F9748974A21684FF0320866
:101A40003FD0914201D081427CD1FFF705FB00EBF2
:101A5000C00101EB001061688900B0FBF1F6FFF7EF
:101A6000FBFA00EBC00101EB001061688900B0FBDC
:101A7000F1F0B0FBF5F06FF01801484306EB800180
:101A800008EB0110B0FBF5F000F0F006FFF7E4FA08
:101A900000EBC00101EB001061688900B0FBF1F0C0
:101AA000B0FBF5F006EB0016FFF7D6FA00EBC0012D
:101AB00001EB001061688900B0FBF1F7FFF7CCFA89
:101AC000D2E0914201D081423DD1FFF7C5FA00EB4F
:101AD000C00101EB001061684900B0FBF1F0B0FB00
:101AE000F5F00601FFF7B8FA00EBC00101EB0010BA
:101AF00061684900B0FBF1F7FFF7AEFA00EBC001F7
:101B000001EB001061684900B0FBF1F0B0FBF5F0AB
:101B10006FF01801484307EB800108EBC100B0FBF0
:101B2000F5F000F0F80006EB4006FFF795FA00EB41
:101B3000C00101EB001061684900B0FBF1F7FFF74D
:101B40008BFA3CE055E0FFF777FA00EBC00101EBC0
:101B5000001061684900B0FBF1F0B0FBF5F0060140
:101B6000FFF76AFA00EBC00101EB00106168490061
:101B7000B0FBF1F7FFF760FA00EBC00101EB0010DA
:101B800061684900B0FBF1F0B0FBF5F06FF01801AF
:101B9000484307EB800108EBC100B0FBF5F000F013
:101BA000F80006EB4006FFF747FA00EBC00101EB37
:101BB000001061684900B0FBF1F7FFF73DFA00EB58
:101BC000C00101EB001061684900B0FBF1F0B0FB0F
:101BD000F5F06FF01801484307EB800108EBC100F6
:101BE000B0FBF5F000F00700216830448860BDE8E4
:101BF000F081FFF721FA00EBC00101EB00106168F2
:101C00008900B0FBF1F6FFF717FA00EBC00101EB1A
:101C1000001061688900B0FBF1F0B0FBF5F06FF0E7
:101C20001801484306EB800108EB0110B0FBF5F00A
:101C300000F0F006FFF700FA00EBC00101EB001026
:101C400061688900B0FBF1F0B0FBF5F006EB00161F
:101C5000FFF7F2F900EBC00101EB001061688900A9
:101C6000B0FBF1F7FFF7E8F900EBC00101EB001062
:101C700061688900B0FBF1F0B0FBF5F06FF018017E
:101C8000484307EB800108EB0110B0FBF5F000F0D2
:101C90000F00A9E70014014000100140FEE700001A
:101CA0000FB4054B10B503A9044A029800F0DAF806
:101CB00010BC5DF814FB0000A126000828000020DD
:101CC00002E008C8121F08C1002AFAD17047704705
:101CD000002001E001C1121F002AFBD17047000063
:101CE0002DE9FF5F82B00021DDE90430020DDDF84F
:101CF00040B0034318D044F61050A2F2FF324243E2
:101D00001514119801281FD0A5EB0B00401C5FEAA9
:101D1000000A4FF000064E4FDFF83891B0465046AB
:101D200015D5CAF1000413E0119801244AA3012833
:101D300001D16FEA0B010298119AC0E90031C0E9A4
:101D4000024206B0BDE8F09FCBF10000DFE7044699
:101D50000021404A491842EB0450CDE9001012E03E
:101D6000E00707D032463B4640464946FEF76DFA4B
:101D70008046894632463B4610461946FEF765FACC
:101D800006460F466410002CEAD1DDE90401DDE9C6
:101D90000023BAF1000F06DAFEF757FA42464B4627
:101DA000FEF753FA05E0FEF7C2FA42464B46FEF74D
:101DB000BEFA04460E460022284BFEF78BFC03D8E1
:101DC0004FF0FF30014607E00022254B2046314608
:101DD000FEF7C1FBFEF766FC102409E0002C0ADBCD
:101DE0000A220023FEF7EEF9039B30321A55641ED7
:101DF00050EA0102F2D1641C039AC4F111031444A5
:101E0000119A012A03D0012208430DD10AE00843A8
:101E100004D000204FF0110B119072E7A3EB0B05DB
:101E20006D1E0DE05B4504DD4FF0000205F101057C
:101E300004E003DA4FF00002A5F10105002AECD01E
:101E400002981199C0E90231C0E9004579E7000024
:101E5000000014400000F03F300000000000F0439C
:101E60000000E03F2DE9FF4F95B09A4688460646B0
:101E70000025EEE1252877D100242746F94A0121E3
:101E8000039400E0044316F8013F203B01FA03F0FD
:101E90001042F7D130782A2811D06FF02F03307814
:101EA000A0F13002092A16D8039A44F0020402EB8A
:101EB000820203EB42021044761C0390EFE758F8CD
:101EC000042B0392002A03DA504244F40054039096
:101ED00044F00204761C30782E2816D116F8010F33
:101EE00044F004042A280DD06FF02F023078A0F1BE
:101EF0003003092B09D807EB870302EB4303C7180C
:101F0000761CF3E758F8047B761C30786C280FD0E9
:101F100006DC4C2817D068280DD06A2814D104E0BC
:101F2000742810D07A280FD10DE044F400140AE090
:101F300044F4801401E044F440147278824202D1E7
:101F400004F58014761C761C307866280BD013DCE0
:101F5000582877D009DC002875D04528F6D04628C7
:101F6000F4D047281AD193E118E0632835D06428CB
:101F700079D0652812D18BE1702873D008DC6728EE
:101F8000F1D069286FD06E280DD06F2806D1ACE053
:101F900073282CD0752874D0782853D052461799BE
:101FA00090476D1C54E1C4F30250022809D0032865
:101FB0000DD0D8F8001004280DD00D6008F10408E9
:101FC00046E1D8F80010EA17C1E90052F6E7D8F860
:101FD00000100D80F2E70D70F0E718F8041B8DF883
:101FE000001000208DF80100EB46012003E058F8B6
:101FF00004BB4FF0FF3061074FF0000102D40DE049
:1020000009F101018946B9420FDA8145F8DB1BF875
:1020100009100029F4D108E009F101018946814243
:10202000FADB1BF809100029F6D103985346A0EB00
:10203000090721463846179A00F080FA284400EB39
:10204000090507E044E008E10DE01BF8010B5246EA
:1020500017999047B9F10109F7D2534621463846FE
:10206000179AF2E039E00A21C4F302524FF0000B54
:102070000091022A06D058F8040BC117032A09D090
:102080000AE023E008F1070020F00702F2E802016D
:10209000904605E000B2C117042A01D140B2C11731
:1020A000002906DA0A460021404261EB02012D2296
:1020B00002E0220504D52B228DF80420012203E042
:1020C000E20701D02022F7E7914657E00A2100E01D
:1020D00010214FF0000B00910BE010214FF0000B8E
:1020E00044F004040827009103E008204FF0000B9F
:1020F0000090C4F30252022A05D058F8040B0021C4
:10210000032A08D008E008F1070020F00702F2E8EF
:102110000201904603E080B2042A00D1C0B24FF021
:10212000000922072AD53278702A07D0DDF800C0CE
:102130008CF0100C5CEA0B0C05D00EE040228DF800
:102140000420012208E050EA010306D030238DF874
:1021500004308DF8052002229146009B83F008038D
:1021600053EA0B030AD150EA010201D1620705D5F7
:1021700030228DF804204FF001097F1E3278582A52
:1021800004D039A20C920CAA02920BE03BA2F9E710
:102190005B46009AFEF716F80C9B9B5C029A521E57
:1021A0000292137050EA0102F2D1029804A9081AAF
:1021B00000F1200B600702D524F4803400E00127F1
:1021C0005F4502DDA7EB0B0000E0002000EB0B01F8
:1021D000009003984944401A0390E00306D4534604
:1021E0002146179A039800F0A9F90544002706E054
:1021F00001A85246C05D179990476D1C7F1C4F4542
:10220000F6DBE0030CD553462146179A039800F0FD
:1022100095F9054404E030205246179990476D1C0B
:102220000099481E00900029F5DC08E00298029908
:1022300052460078491C0291179990476D1CBBF1DA
:102240000001ABF1010BF1DC5BE100F065F9054445
:10225000761C307800287FF40DAE19B02846BDE812
:10226000F08F000009280100303132333435363721
:1022700038396162636465660000000030313233D2
:102280003435363738394142434445460000000072
:10229000600700D4062708F1070020F00700F0E8E7
:1022A0000223804603F0004C5FEA0C0001D097A0A7
:1022B00009E0200501D596A005E0E00701D095A032
:1022C00001E0AFF24C001390307823F00043652812
:1022D0000CD006DC452809D046281DD047287FD1E0
:1022E0003BE0662818D067287AD136E00021112F0C
:1022F00001DB112000E0781CCDE9000104A90CA845
:10230000FFF7EEFCDDE90D010C9A4FF0000B07F131
:102310000109109200914EE04FF000400097CDE986
:10232000011004A90CA8FFF7DBFCDDE90D020C9BF2
:102330000F994FF0000B91461093009211B9791C40
:1023400000EB0109B7EB090003D4C0F1FF3B07F133
:102350000109A9EB0700019042E0012F00DA0127F3
:102360000021112F01DD112000E03846CDE90001E8
:1023700004A90CA8FFF7B4FCDDE90D010C9A00914B
:102380004FF0000BB946109221070FD4009A4A452E
:1023900003DA914601E0A9F10109B9F1010F05DD68
:1023A000109AA9F10101515C3029F4D0B84202DA47
:1023B00010F1040F03DA0121CDE9011010E000282B
:1023C00003DC8344A9EB000102E0411C494500DD28
:1023D0008946A0EB0B00401C01904FF0004002909A
:1023E000200705D40198484502DB4FF0FF300190EB
:1023F00000208DF84B0002980DF14B07B0F1004F13
:1024000025D002200C902B200D90029800280CDA89
:10241000404202902D200D9007E00A210298FEF71D
:1024200008F83031029007F8011D0C99481E0C90F5
:102430000029F2DC02980028EFD1791E0D9808706F
:10244000307800F0200040F0450007F8020D11A898
:10245000C01BC01D02901398007800B1012000EB52
:102460000901019801EBE071029801440398401AB8
:10247000401E0390E00306D453462146179A039862
:1024800000F05CF805441398007818B1524617998B
:1024900090476D1CE00323D553462146179A0398B5
:1024A00000F04CF805441BE0BBF1000F07DB00987F
:1024B000584504DD1098179910F80B0001E01799A2
:1024C00030205246904701980BF1010B401E05F158
:1024D0000105019004D12E205246179990476D1C9A
:1024E000B9F10001A9F10109DEDC05E017F8010BE3
:1024F0005246179990476D1C0299481E0290002978
:10250000F4DC53462146179A03989EE62D000000FE
:102510002B000000200000002DE9F04104460025BA
:102520001E461746880404D405E039462020B047EB
:102530006D1C641EF9D52846BDE8F0812DE9F041F7
:10254000044600251E469046C80301D5302700E00A
:102550002027880404D505E041463846B0476D1C65
:10256000641EF9D52846BDE8F081000000B585B0AD
:1025700000227621D02000F037FA2021D02000F070
:10258000B3F98DF804000120401CC828FCDB1F2192
:10259000D02000F0A9F98DF805000220401CC828C1
:1025A000FCDB2221D02000F09FF98DF806000220EC
:1025B000401CC828FCDB2121D02000F095F98DF8C3
:1025C00007000220401CC828FCDB2421D02000F09A
:1025D0008BF98DF808000220401CC828FCDB232161
:1025E000D02000F081F98DF809000220401CC82895
:1025F000FCDB9DF804009DF8051040EA0120ADF8D1
:1026000010009DF806009DF8071040EA0120ADF883
:1026100000009DF808009DF8091040EA0120ADF87F
:102620000C009DF804009DF8051040EA01211B48AC
:1026300041809DF806109DF8072041EA0221818023
:102640009DF808109DF8092041EA0221C180BDF9DA
:10265000101000EE101AB8EEC00A8DED010ABDF997
:10266000001000EE101AB8EEC00A8DED000ABDF998
:102670000C1000EE101AB8EEC00A8DED020A9DEDA6
:10268000010A80ED040A9DED000A80ED050A9DED2A
:10269000020A80ED060A05B000BD0000000000201F
:1026A00003490A685206FCD5C2B24A60704700006E
:1026B0000010014000B585B000227621D02000F046
:1026C00093F92621D02000F00FF98DF80000252184
:1026D000D02000F009F98DF801002A21D02000F067
:1026E00003F98DF804002921D02000F0FDF88DF8C1
:1026F00005002821D02000F0F7F88DF802002721EE
:10270000D02000F0F1F88DF803009DF800009DF84E
:10271000011040EA0120ADF810009DF802009DF87C
:10272000031040EA0120ADF808009DF804009DF870
:10273000051040EA0120ADF80C009DF800009DF85E
:10274000011040EA01211B4801819DF802109DF80B
:10275000032041EA022141819DF804109DF80520E3
:1027600041EA02218181BDF9101000EE101AB8EE85
:10277000C00A8DED000ABDF9081000EE101AB8EE7F
:10278000C00A8DED010ABDF90C1000EE101AB8EE6A
:10279000C00A8DED020A9DED000A80ED070A9DED4D
:1027A000010A80ED080A9DED020A80ED090A05B0D4
:1027B00000BD0000000000202DED028B8AB0FEF766
:1027C00013FBFFF7A9F838480021026842F0020223
:1027D00002600068354A00F0020000903448026050
:1027E000344AC0E901214FF48042C0E9031241613B
:1027F0008161C1610162FEF79BF82F4800F0D8F8B3
:1028000000F088F80120FDF7A3FF9FED2C8A2D2111
:10281000D02000F069F8C00701D0FFF7A7FEFFF74E
:1028200049FF2748406AFDF7F1FD064624480F4658
:10283000006AFDF7EBFD044621480D46C069FDF72F
:10284000E5FDCDE900011E4890ED060A20EE080ADC
:1028500010EE100AFDF7DAFD824619488B4690ED1E
:10286000050A20EE080A10EE100AFDF7CFFD80469B
:102870001348894690ED040A20EE080A10EE100A6B
:10288000FDF7C4FD41EC100B06A853EC102B80E8BB
:10289000F000DDE90001CDE904018DE8000F09A099
:1028A000FFF7FEF9B3E70000303802400054004063
:1028B0003C000020A086010040420F000000003ACA
:1028C00000000020252E33662C20252E33662C2078
:1028D000252E33662C20252E33662C20252E33669C
:1028E0002C20252E33660A001FB500228DF80C20FF
:1028F000FF24082303AA8DE81C000A460146012391
:102900000348FEF799F89DF80C0004B010BD0000D4
:102910003C00002010B500227621D02000F064F8A1
:102920000520FDF715FF01221121D02000F05CF8F1
:102930000520FDF70DFF7521D020FFF7D5FF1B49BE
:1029400008704E21D020FFF7CFFF04460520FDF789
:10295000FFFE44F00F024E21D02000F045F8052084
:10296000FDF7F6FE4F21D020FFF7BEFF04460520FD
:10297000FDF7EEFE44F006024F21D02000F034F8BF
:102980000520FDF7E5FE5021D020FFF7ADFF0446FE
:102990000520FDF7DDFE44F006025021D02000F0B6
:1029A00023F8BDE810400520FDF7D2BE000000204E
:1029B0000C4910B50A4AC1E9002000208860C860AF
:1029C000086188610C2048610846FEF729FD054929
:1029D0006422BDE8104064390248FEF791BD000052
:1029E000001001405801002017B583B0FF240823D0
:1029F00005AA8DE81C000A46014601230248FEF79D
:102A000019F906B010BD00003C00002000000000D5
:102A1000000000000102030406070809000000008E
:102A200001020304442A0008000000203C000000CA
:102A3000C01C0008802A00083C0000205C05000043
:102A4000D01C000800000000000000000000000092
:102A50000000000000000000000000000000000076
:102A60000000000000000000000000000000000066
:102A70000100000010000000000000000024F4002D
:040000050800018965
:00000001FF
